:100000000C946D070C948A070C948A070C948A0749
:100010000C948A070C948A070C948A070C948A071C
:100020000C948A070C948A070C94E81D0C948A0798
:100030000C948A070C943C1D0C94E1170C948A07CD
:100040000C948A070C948A070C94611A0C94981AE1
:100050000C948A070C948A070C948A070C948A07DC
:100060000C948A070C948A07496E76616C69642047
:100070004D50335472696767657220536F756E64B3
:1000800020436F6D6D616E64006400D007D007D0AF
:1000900007D007D007D007D007D007D007D007D0A8
:1000A00007FFFF01000B000000FFFFFFFFFFFFFF46
:1000B000FFFFFFFFFFFFFFFFFFFFFFFFFFFFFFFF50
:1000C000FF01000B001400D007D007D007D007D0E5
:1000D00007D007D007D007D007D007D007FFFF0110
:1000E000000B009600D007E803E803D007D007D044
:1000F00007D007D007D007D007D007FFFF01000BBC
:10010000001E00D007D007D007D007D007D007D0F7
:1001100007D007D007D007D007FFFF01000B001E54
:1001200000D007E803E803D007D007D007D007D0F6
:1001300007D007D007D007FFFF01000B001E00D03B
:1001400007D007D007D007D007D007D007D007D0F7
:1001500007D007D007FFFF01000B001E00D007E803
:1001600003E803D007D007D007D007D007D007D0C7
:1001700007D007FFFF01000B00BE00D007D007D05B
:1001800007D007D007D007D007D007D007D007D0B7
:1001900007FFFF01000B000000FFFFFFFFFFFFFF55
:1001A000FFFFFFFFFFFFFFFFFFFFFFFFFFFFFFFF5F
:1001B000FF01000B001400D007D007D007D007D0F4
:1001C00007D007D007D007D007D007D007FFFF011F
:1001D000000B009600D007D007D007E803D007D067
:1001E00007E803D007D007D007D007FFFF01000BB7
:1001F000009600D007D007D007E803E803E803E83B
:1002000003E803E803D007D007FFFF01000B002C31
:1002100001E803D007D007E803E803E803E803E8B0
:1002200003E803E803D007FFFF01000B003200E8FA
:1002300003D007D007E803E803D007E803E803D0BA
:1002400007E803D007FFFF01000B003200E803D0EE
:1002500007D007E803E803E803E803E803E803E856
:1002600003D007FFFF01000B003200E803D007D0E6
:1002700007E803E803D007E803E803D007E803D062
:1002800007FFFF01000B003200E803D007D007E8AA
:1002900003E803E803E803E803E803E803D007FF03
:1002A000FF01000B004B00D007D007D007E803E8A0
:1002B00003D007E803E803D007D007D007FFFF010A
:1002C000000B00FA00D007D007D007E803D007D012
:1002D00007E803D007D007D007D007FFFF01000BC6
:1002E00000C800D007D007D007D007D007D007D06C
:1002F00007D007D007D007D007FFFF01000B000091
:1003000000FFFFFFFFFFFFFFFFFFFFFFFFFFFFFFFC
:10031000FFFFFFFFFFFFFFFFFF01000B001400D0F6
:1003200007D007D007D007D007D007D007D007D015
:1003300007D007D007FFFF01000B003200E803E8F9
:1003400003E803E803D007D007E803D007D007E8A5
:1003500003D007FFFF01000B000F00D007D007D02C
:1003600007D007D007D007D007D007D007D007D0D5
:1003700007FFFF01000B000F00E803E803E803E8B4
:1003800003D007D007E803D007D007E803D007FF62
:10039000FF01000B000F00D007D007D007D007D017
:1003A00007D007D007D007D007D007D007FFFF013D
:1003B000000B001400E803E803E803E803D007D0CB
:1003C00007E803D007D007E803D007FFFF01000BC1
:1003D000001400D007D007D007D007D007D007D02F
:1003E00007D007D007D007D007FFFF01000B000A96
:1003F00000E803E803E803E803D007D007E803D0E8
:1004000007D007E803D007FFFF01000B00FA00D078
:1004100007D007D007D007D007D007D007D007D024
:1004200007D007D007FFFF01000B000000FFFFFF10
:10043000FFFFFFFFFFFFFFFFFFFFFFFFFFFFFFFFCC
:10044000FFFFFFFFFF01000B001400D007D007D013
:1004500007D007D007D007D007D007D007D007D0E4
:1004600007FFFF01000B009600D007D007D007E878
:1004700003D007D007D007D007D007D007D007FF99
:10048000FF01000B009600D007D007D007E803E873
:1004900003D007D007D007D007D007D007FFFF0150
:1004A000000B000F00D007D007D007E803E803E8EF
:1004B00003D007D007D007D007D007FFFF01000BFC
:1004C000000F00D007D007D007E803E803D007D01B
:1004D00007D007D007D007D007FFFF01000B000FA0
:1004E00000D007D007D007E803E803E803D007D01F
:1004F00007D007D007D007FFFF01000B000F00D087
:1005000007D007D007E803E803D007D007D007D00B
:1005100007D007D007FFFF01000B000F00D007D066
:1005200007D007E803E803E803D007D007D007D0D7
:1005300007D007FFFF01000B001400D007D007D041
:1005400007E803E803D007D007D007D007D007D0CB
:1005500007FFFF01000B00AF00D007D007D007E86E
:1005600003D007D007D007D007D007D007D007FFA8
:10057000FF01000B00C800D007D007D007D007D07C
:1005800007D007D007D007D007D007D007FFFF015B
:10059000000B000000FFFFFFFFFFFFFFFFFFFFFF5B
:1005A000FFFFFFFFFFFFFFFFFFFFFFFFFF01000B4C
:1005B000001400D007D007D007D007D007D007D04D
:1005C00007D007D007D007D007FFFF01000B009628
:1005D00000D007D007D007D007D007D007E803D056
:1005E00007D007D007D007FFFF01000B009600D00F
:1005F00007D007D007D007D007D007E803E803D01B
:1006000007D007D007FFFF01000B001400D007D070
:1006100007D007D007D007D007E803E803E803D0E6
:1006200007D007FFFF01000B001400D007D007D050
:1006300007D007D007D007E803E803D007D007D0DA
:1006400007FFFF01000B001400D007D007D007D030
:1006500007D007D007E803E803E803D007D007FF77
:10066000FF01000B001400D007D007D007D007D03F
:1006700007D007E803E803D007D007D007FFFF0142
:10068000000B001400D007D007D007D007D007D048
:1006900007E803E803E803D007D007FFFF01000BDA
:1006A000001900D007D007D007D007D007D007E83F
:1006B00003E803D007D007D007FFFF01000B0014A9
:1006C00000D007D007D007D007D007D007E803E84D
:1006D00003E803D007D007FFFF01000B00AF00D0F5
:1006E00007D007D007D007D007D007E803D007D03E
:1006F00007D007D007FFFF01000B00FA00D007D09A
:1007000007D007D007D007D007D007D007D007D031
:1007100007D007FFFF01000B000000FFFFFFFFFFF6
:10072000FFFFFFFFFFFFFFFFFFFFFFFFFFFFFFFFD9
:10073000FFFFFF01000B001400D007D007D007D047
:1007400007D007D007D007D007D007D007D007FFC2
:10075000FF01000B009600D007D007D007E803D0B8
:1007600007D007D007D007D007D007D007FFFF0179
:10077000000B009600D007D007D007D007D007D0D5
:1007800007E803D007D007D007D007FFFF01000B11
:10079000006E00D007D007D007E803D007D007D0FD
:1007A00007D007D007D007D007FFFF01000B006E6E
:1007B00000D007D007D007D007D007D007E803D074
:1007C00007D007D007D007FFFF01000B005000D073
:1007D00007D007D007E803D007D007D007D007D04D
:1007E00007D007D007FFFF01000B005000D007D053
:1007F00007D007D007D007D007E803D007D007D02D
:1008000007D007FFFF01000B003200D007D007D050
:1008100007E803D007D007D007D007D007D007D00C
:1008200007FFFF01000B003200D007D007D007D030
:1008300007D007D007E803D007D007D007D007FFBD
:10084000FF01000B008200D007D007D007E803D0DB
:1008500007D007D007D007D007D007D007FFFF0188
:10086000000B008200D007D007D007D007D007D0F8
:1008700007E803D007D007D007D007FFFF01000B20
:1008800000C800D007D007D007D007D007D007D0C6
:1008900007D007D007D007D007FFFF01000B0000EB
:1008A00000FFFFFFFFFFFFFFFFFFFFFFFFFFFFFF57
:1008B000FFFFFFFFFFFFFFFFFF01000B00A604D0BB
:1008C00007D007D007D007D007D007D007D007D070
:1008D00007D007D007FFFF01000B003C00D007D076
:1008E00007D007E803D007D007D007D007D007D03C
:1008F00007D007FFFF01000B003C00D007D007D056
:1009000007D007D007D007E803D007D007D007D01B
:1009100007FFFF01000B003C00D007D007D007E81D
:1009200003D007D007D007D007D007D007D007FFE4
:10093000FF01000B003C00D007D007D007D007D044
:1009400007D007E803D007D007D007D007FFFF0183
:10095000000B003C00D007D007D007E803D007D039
:1009600007D007D007D007D007D007FFFF01000B43
:10097000003C00D007D007D007D007D007D007E849
:1009800003D007D007D007D007FFFF01000B003CC2
:1009900000D007D007D007E803D007D007D007D092
:1009A00007D007D007D007FFFF01000B003C00D0A5
:1009B00007D007D007D007D007D007E803D007D06B
:1009C00007D007D007FFFF01000B003C00D007D085
:1009D00007D007E803D007D007D007D007D007D04B
:1009E00007D007FFFF01000B003C00D007D007D065
:1009F00007D007D007D007E803D007D007E803D017
:100A000007FFFF01000B003C00E803D007D007E818
:100A100003D007D007D007D007D007D007D007FFF3
:100A2000FF01000B003C00D007D007D007D007D053
:100A300007D007E803D007D007E803D007FFFF017E
:100A4000000B003C00E803D007D007E803D007D034
:100A500007D007D007D007D007D007FFFF01000B52
:100A6000003C00D007D007D007D007D007D007E858
:100A700003D007D007E803D007FFFF01000B003CBD
:100A800000E803D007D007E803D007D007D007D08D
:100A900007D007D007D007FFFF01000B003C00D0B4
:100AA00007D007D007D007D007D007E803D007D07A
:100AB00007E803D007FFFF01000B003C00E803D06C
:100AC00007D007E803D007D007D007D007D007D05A
:100AD00007D007FFFF01000B003C00D007D007D074
:100AE00007D007D007D007E803D007D007E803D026
:100AF00007FFFF01000B003C00E803D007D007E828
:100B000003D007D007D007D007D007D007D007FF02
:100B1000FF01000B003C00D007D007D007D007D062
:100B200007D007E803D007D007E803D007FFFF018D
:100B3000000B003C00E803D007D007E803D007D043
:100B400007D007D007D007D007D007FFFF01000B61
:100B5000003C00D007D007D007D007D007D007E867
:100B600003D007D007E803D007FFFF01000B003CCC
:100B700000E803E803D007E803D007D007D007D088
:100B800007D007D007D007FFFF01000B003C00D0C3
:100B900007D007E803D007D007D007E803D007D075
:100BA00007E803D007FFFF01000B003C00E803E863
:100BB00003D007E803D007D007D007D007D007D06D
:100BC00007D007FFFF01000B003C00D007D007E86B
:100BD00003D007D007D007E803D007D007E803D039
:100BE00007FFFF01000B003C00E803E803D007E823
:100BF00003D007D007D007D007D007D007D007FF12
:100C0000FF01000B003C00D007D007E803D007D05D
:100C100007D007E803D007D007E803D007FFFF019C
:100C2000000B003C00E803E803D007E803D007D03E
:100C300007D007D007D007D007D007FFFF01000B70
:100C4000003C00D007D007E803D007D007D007E862
:100C500003D007D007E803D007FFFF01000B003CDB
:100C600000E803E803D007E803D007D007D007D097
:100C700007D007D007D007FFFF01000B003C00D0D2
:100C800007D007E803D007D007D007E803D007D084
:100C900007E803D007FFFF01000B003C00E803E872
:100CA00003D007E803D007D007D007D007D007D07C
:100CB00007D007FFFF01000B003C00D007D007E87A
:100CC00003D007D007D007E803D007D007E803D048
:100CD00007FFFF01000B003C00E803E803D007E832
:100CE00003D007D007D007D007D007D007D007FF21
:100CF000FF01000B003C00D007D007E803D007D06D
:100D000007D007E803D007D007E803D007FFFF01AB
:100D1000000B003C00E803E803D007E803D007D04D
:100D200007D007D007D007D007D007FFFF01000B7F
:100D3000003C00D007D007E803D007D007D007E871
:100D400003D007D007E803D007FFFF01000B003CEA
:100D500000E803E803D007E803D007D007D007D0A6
:100D600007D007D007D007FFFF01000B003C00D0E1
:100D700007D007D007D007D007D007D007D007D0BB
:100D800007D007D007FFFF01000B000000FFFFFFA7
:100D9000FFFFFFFFFFFFFFFFFFFFFFFFFFFFFFFF63
:100DA000FFFFFFFFFF01000B004F4B0A0D000A0D74
:100DB0004D6172634475696E6F204D617374657225
:100DC0002076332E36200A0D00456E746572207031
:100DD000616E656C20636F6D6D616E64207374610C
:100DE0007274696E67207769746820273A27200A31
:100DF0000D00496E697469616C697A696E672E2E9F
:100E00002E0D0A000A0D73756172743120436F6DE7
:100E10006D756E69636174696F6E204F4B200A0DAA
:100E2000000A0D73756172743220436F6D6D756EBB
:100E300069636174696F6E204F4B200A0D0000C218
:100E400001000100110011000C0000E100000A0087
:100E50002500250021000096000019003900390006
:100E60003600127A00001F004600460044008070E1
:100E7000000022004D004D004A00004B00003600EB
:100E8000750075007200403800004A009C009C000C
:100E90009900802500007200EC00EC00E900C0120F
:100EA0000000E900DA01DA01D70160090000D7018A
:100EB000B603B603B303B0040000B3036E076E07B6
:100EC0006B072C010000DC0EC11DC11DBE1D63643B
:100ED000696E6F70737578585B0011241FBECFEF79
:100EE000D8E0DEBFCDBF13E0A0E0B1E0E8EAF0E576
:100EF00002C005900D92A83AB107D9F716E0A8EA0A
:100F0000B3E001C01D92A535B107E1F70E94691554
:100F10000C9452280C9400001092010410920004CA
:100F200081E08093AA0308951092AA03109201040D
:100F300010920004089580EB94E090930104809354
:100F400000048091AA038093B5031092AA03089528
:100F50008091B5038093AA030895CF93DF93EC01AA
:100F600040E050E022E030E0FE01E20FF31F80811C
:100F7000480F511D2F5F3F4F28303105A9F7852FAE
:100F800080958F83842F8095888788810E94441F55
:100F900089810E94441F8A810E94441F8B810E9484
:100FA000441F8C810E94441F8D810E94441F8E81AA
:100FB0000E94441F8F810E94441F88850E94441F05
:100FC00089850E94441FDF91CF91089580931A0371
:100FD00084E193E00E94AD0708958EE193E00E94C2
:100FE000AD07089590932D0380932E0388E293E03C
:100FF0000E94AD0708950E94441F08951F93182F63
:101000008091AB03882321F0812F0E94E60706C060
:1010100086E70E94441F812F0E94441F1F9108955C
:101020008091AB03882311F081E001C084E68093B6
:101030003203809132030E94FE0708958091AB0332
:10104000882321F08EE18093320302C01092320394
:10105000809132030E94FE0708958091AB0388239C
:1010600019F01092320303C08EEF80933203809107
:1010700032030E94FE0708958091AB03882311F08C
:101080008FE001C082E380933203809132030E949B
:10109000FE0708958091AB0320913203882391F0DD
:1010A000222321F0822F90E0039724F481E08093A3
:1010B000320303C0225020933203809132030E94F6
:1010C000E6070895253630F484E690E0821B910906
:1010D000059724F484E68093320303C02B5F2093AA
:1010E0003203809132030E94FE0708958091AB0382
:1010F00090913203882381F09E3110F49D3121F4C8
:101100008EE18093320303C09E5F909332038091FF
:1011100032030E94E6070895992311F0953018F4E0
:101120001092320303C095509093320380913203A2
:101130000E94FE0708951F93CF93DF93282F8A30D4
:1011400008F053C0882311F4162F40C06A3108F00C
:101150004CC06623E9F0282F30E0695189E190E026
:10116000AC01249FC001259F900D349F900D112448
:10117000162F180F675EF901EE56FC4FE081D9017A
:10118000A455BC4FE61710F4EC9320C06C931EC01E
:10119000853010F0E1E013C0A82FB0E0ED01C45598
:1011A000DC4F88818F5F8883FD01EE56FC4F908174
:1011B000981710F481E08883A455BC4FEC9189E125
:1011C000289FC0011124182F19511E0F8091AB03C5
:1011D000882329F0812F90E00E94F20706C084E75F
:1011E0000E94441F812F0E94441FDF91CF911F91C5
:1011F00008958091AB03882319F00E94ED070895AC
:1012000080E06CEF0E949B08089580E060910304E9
:101210000E949B08089561E070E080E090E023E385
:1012200030E040E050E00E944F20643110F481E053
:1012300012C0962F9351933110F482E00BC0962F79
:101240009552983010F483E005C0962F9C5295304B
:1012500028F484E0692F0E949B080895605364304D
:1012600018F485E00E949B0808958091AA038823C2
:10127000E1F08091000490910104892BB1F48091F8
:10128000000490910104892B81F40E940B0968E508
:1012900072E080E090E028EE33E040E050E00E9411
:1012A0004F20709301046093000408951F93CF931F
:1012B000DF93EC01DC010D900020E9F71197A81BEA
:1012C000B90B8881843209F007C18A2F825083309C
:1012D00008F002C11981812F90E0C0970A9790F41D
:1012E0001092AA031092010410920004A33010F48B
:1012F00060E005C0CE0102960E94C621682F812FB2
:101300008053E7C01235C9F11335F0F4163409F4EF
:1013100093C0173480F4133409F459C0143438F4EA
:101320001B3209F4B6C01D3209F0D6C0B5C0143462
:1013300009F0D2C092C01D3409F4C3C01F3419F1A2
:101340001C3409F0C9C028C0163609F4ABC01736E2
:1013500050F4173509F4ACC0133609F44BC01335FB
:1013600009F0BAC05AC0103709F49FC0133709F406
:1013700087C01D3609F0B0C092C0109201041092CF
:10138000000481E021C01092AA031092010410927F
:1013900000040E942D08A4C080EB94E09093010407
:1013A000809300048091AA038093B5031092AA034E
:1013B00087E061E00E949B0880E391E19093010443
:1013C000809300048091B5038093AA0389C080EBC9
:1013D00094E090930104809300048091AA03809389
:1013E000B5031092AA0388E065E00E949B0880EE96
:1013F00095E1E4CF80EB94E09093010480930004A6
:101400008091AA038093B5031092AA0388E061E05B
:101410000E949B088CE89AE0D1CF80EB94E09093F7
:101420000104809300048091AA038093B503109275
:10143000AA0386E061E00EC080EB94E09093010483
:10144000809300048091AA038093B5031092AA03AD
:1014500086E063E00E949B08B5CF80EB94E0909318
:101460000104809300048091AA038093B503109235
:10147000AA0388E066E00E949B0880EB9AE99ECF71
:101480001092AA0310920104109200040E94F9081D
:1014900027C00E94760824C00E944A0821C00E94EA
:1014A0003C081EC00E941E081BC00E94100818C0E5
:1014B0001092AA03109201041092000488E062E0E6
:1014C00008C01092AA03109201041092000488E050
:1014D00063E00E949B0804C088E690E00E94FC1A2A
:1014E000DF91CF911F910895DF93CF93CDB7DEB7F2
:1014F0002A970FB6F894DEBF0FBECDBF8093AB0323
:10150000882381F08FE080933203DE011196EBE9AE
:10151000F3E08AE001900D928150E1F7CE0101964F
:101520000E94AD07ECEAF3E0119283E0E53BF80797
:10153000D9F70E943C0880910304882311F00E948F
:10154000050980E094E00E9450172A960FB6F8949F
:10155000DEBF0FBECDBFCF91DF910895FC01108299
:1015600075836483738362834183478346830895CD
:10157000FC0190818181981710F080E00895A4818A
:10158000B5816D938781815019F48181A81BB109C0
:101590008783B583A4839FB7F89480818F5F80830E
:1015A0009FBF81E00895FC0180818823E9F3A28137
:1015B000B3812D918681815019F48181A81BB109D5
:1015C000B383A28386839FB7F89480818150808300
:1015D0009FBF822F0895FC018081882319F42FEF8B
:1015E0003FEF13C0A281B3812D918681815019F400
:1015F0008181A81BB109B383A28386839FB7F89426
:101600008081815080839FBF30E0C9010895FC0133
:10161000808120E030E0882311F021E030E0C90132
:1016200008958093BC0082E390E09093050480933A
:1016300004040DC08091040490910504892B39F4B1
:101640008091B900887F8093B60381E008958091EE
:10165000BC0087FFEFCF8091B900887F8093B603ED
:1016600080E008958091B60308951092BC0008951B
:1016700084E98093BC0082E390E09093050480931A
:1016800004040DC08091040490910504892B39F461
:101690008091B900887F8093B60381E0089580919E
:1016A000BC0084FDEFCF8091B900887F8093B603A2
:1016B00080E008950F931F93182F062F84EA0E944D
:1016C000110B8823C1F48091B603883011F080316A
:1016D00091F4110F102B1093BB0084E80E94110BA2
:1016E000882349F48091B603013019F4803439F02D
:1016F00002C0883121F00E94380B81E001C080E0F7
:101700001F910F9108958093BB0084E80E94110BF4
:10171000882321F00E94380B81E008958091B60360
:10172000883211F480E008950E94380B81E008951A
:10173000CF93DF93EC01662311F484EC01C084E8BD
:101740000E94110B882321F00E94380B81E004C015
:101750008091BB00888380E0DF91CF910895FF9254
:101760000F931F93CF93DF93EB01042FF22E61159C
:10177000710511F0442319F40E94380B15C060E084
:101780000E945A0B882381F410E006C089910E94C0
:10179000830B882349F41F5F1017C0F3FF2011F05B
:1017A0000E94380B80E001C081E0DF91CF911F9152
:1017B0000F91FF9008958F929F92BF92CF92DF92E8
:1017C000EF92FF920F931F93DF93CF930F92CDB7BA
:1017D000DEB76B01142F6115710549F1442339F10E
:1017E00061E00E945A0B882311F5BB24E12EFF24EF
:1017F0000894E108F1084E010894811C911C0CC06A
:10180000C40160E00E94980B882389F40C0D1D1D13
:101810008981F8018083B3940B2D10E00E151F050C
:101820007CF3C40161E00E94980B882321F00E94A0
:10183000380B81E008C00C0D1D1D8981F8018083E3
:101840000E94380B80E00F90CF91DF911F910F9194
:10185000FF90EF90DF90CF90BF909F908F90089572
:101860001092B90098E49093B800882311F0449A3C
:10187000459A8FEF8093BB0084E08093BC0084E0A6
:1018800094E00E94501708958C3088F4882349F41E
:10189000E6E0F4E081E0819394E0E131F907D9F7E3
:1018A0000895E82FF0E0EB5FFB4F81E0808308951F
:1018B000EF92FF920F931F93DF93CF93CDB7DEB7D5
:1018C00028970FB6F894DEBF0FBECDBF7C0100D0C5
:1018D00000D000D0EDB7FEB731968E010F5F1F4FDD
:1018E000ADB7BEB712961C930E93119780E091E0AE
:1018F00093838283648315820E942822F70180816A
:101900008A8381818B838DB79EB706960FB6F89434
:101910009EBF0FBE8DBFC8010E94BC1E28960FB689
:10192000F894DEBF0FBECDBFCF91DF911F910F9115
:10193000FF90EF9008950F931F93DF93CF93CDB750
:10194000DEB728970FB6F894DEBF0FBECDBF00D02C
:1019500000D000D0EDB7FEB731968E010F5F1F4F5C
:10196000ADB7BEB712961C930E93119728E031E0E5
:1019700033832283848315820E9428228DB79EB7E9
:1019800006960FB6F8949EBF0FBE8DBFC8010E9489
:10199000BC1E28960FB6F894DEBF0FBECDBFCF9108
:1019A000DF911F910F9108950F931F93DF93CF93B2
:1019B000CDB7DEB728970FB6F894DEBF0FBECDBF08
:1019C00000D000D000D0EDB7FEB731968E010F5F8A
:1019D0001F4FADB7BEB712961C930E93119780E1BF
:1019E00091E093838283158214820E9428228DB70E
:1019F0009EB706960FB6F8949EBF0FBE8DBFC80166
:101A00000E94BC1E84EF91E020E931E0F90131979A
:101A1000F1F70197D9F728960FB6F894DEBF0FBEFD
:101A2000CDBFCF91DF911F910F9108950F931F9319
:101A3000DF93CF93CDB7DEB728970FB6F894DEBF0C
:101A40000FBECDBF00D000D000D0EDB7FEB73196AD
:101A50008E010F5F1F4FADB7BEB712961C930E934A
:101A6000119720E131E033832283848315820E9421
:101A700028228DB79EB706960FB6F8949EBF0FBE6C
:101A80008DBFC8010E94BC1E84EF91E020E931E0C7
:101A9000F9013197F1F70197D9F728960FB6F89425
:101AA000DEBF0FBECDBFCF91DF911F910F91089583
:101AB00089E191E00E94BC1E84EF91E020E931E0D1
:101AC000F9013197F1F70197D9F708958FE191E086
:101AD0000E94BC1E84EF91E020E931E0F9013197CA
:101AE000F1F70197D9F7089585E291E00E94BC1EB5
:101AF00084EF91E020E931E0F9013197F1F70197A6
:101B0000D9F70895FF920F931F93DF93CF93CDB72B
:101B1000DEB728970FB6F894DEBF0FBECDBFF82E04
:101B200000D000D000D0EDB7FEB731968E010F5F28
:101B30001F4FADB7BEB712961C930E9311978BE251
:101B400091E093838283F48215820E9428228DB7CC
:101B50009EB706960FB6F8949EBF0FBE8DBFC80104
:101B60000E94BC1E92E0F91619F484E391E002C0D1
:101B70008AE391E00E94BC1E84EF91E020E931E00D
:101B8000F9013197F1F70197D9F728960FB6F89434
:101B9000DEBF0FBECDBFCF91DF911F910F91FF90A0
:101BA000089580E491E00E94BC1E88EE93E020E955
:101BB00031E0F9013197F1F70197D9F7089588E4F9
:101BC00091E00E94BC1E88EE93E020E931E0F9012B
:101BD0003197F1F70197D9F708958EE491E00E94CB
:101BE000BC1E88EE93E020E931E0F9013197F1F76E
:101BF0000197D9F784E591E00E94BC1E88EC90E043
:101C000020E931E0F9013197F1F70197D9F708950B
:101C10008BE591E00E94BC1E80ED97E020E931E069
:101C2000F9013197F1F70197D9F7089582E691E02C
:101C30000E94BC1E88EE93E020E931E0F901319763
:101C4000F1F70197D9F788E691E00E94BC1E84EF76
:101C500091E020E931E0F9013197F1F70197D9F7E7
:101C600008958EE691E00E94BC1E089584E791E0FD
:101C70000E94BC1E88EE93E020E931E0F901319723
:101C8000F1F70197D9F708958AE791E00E94BC1E09
:101C900008950F931F93DF93CF93CDB7DEB72897A7
:101CA0000FB6F894DEBF0FBECDBF00D000D000D07D
:101CB000EDB7FEB731968E010F5F1F4FADB7BEB7C0
:101CC00012961C930E93119721E831E033832283FF
:101CD000848315820E9428228DB79EB706960FB680
:101CE000F8949EBF0FBE8DBFC8010E94BC1E2896EF
:101CF0000FB6F894DEBF0FBECDBFCF91DF911F911D
:101D00000F9108950F931F93DF93CF93CDB7DEB755
:101D100028970FB6F894DEBF0FBECDBF00D000D01D
:101D200000D0EDB7FEB731968E010F5F1F4FADB7F4
:101D3000BEB712961C930E9311972AE831E03383B5
:101D40002283848315820E9428228DB79EB706962F
:101D50000FB6F8949EBF0FBE8DBFC8010E94BC1E77
:101D600028960FB6F894DEBF0FBECDBFCF91DF919E
:101D70001F910F9108950F931F93DF93CF93CDB7CA
:101D8000DEB728970FB6F894DEBF0FBECDBF00D0E8
:101D900000D000D0EDB7FEB731968E010F5F1F4F18
:101DA000ADB7BEB712961C930E93119723E931E09D
:101DB00033832283848315820E9428228DB79EB7A5
:101DC00006960FB6F8949EBF0FBE8DBFC8010E9445
:101DD000BC1E28960FB6F894DEBF0FBECDBFCF91C4
:101DE000DF911F910F9108958CE991E00E94BC1E34
:101DF000089583EA91E00E94BC1E08958AEA91E06A
:101E00000E94BC1E089581EB91E00E94BC1E0895C3
:101E10008C3098F4882361F4E6E0F4E0119284E0D9
:101E2000E131F807D9F788EB91E00E94BC1E0895D4
:101E3000E82FF0E0EB5FFB4F1082089589E191E01D
:101E40000E94BC1E84EF91E020E931E0F901319756
:101E5000F1F70197D9F70E949818089581EB91E066
:101E60000E94BC1E88EE93E020E931E0F901319731
:101E7000F1F70197D9F78EE691E00E94BC1E88EC3D
:101E800090E020E931E0F9013197F1F70197D9F7B6
:101E900089E191E00E94BC1E0E94981808950E945A
:101EA000981881EB91E00E94BC1E88EE93E020E937
:101EB00031E0F9013197F1F70197D9F78EE691E01A
:101EC0000E94BC1E88EC90E020E931E0F9013197D6
:101ED000F1F70197D9F708950F931F938C018FEBBA
:101EE00091E00E94BC1EC8010E94BC1E8DE00E94B1
:101EF000801E84EC99E020E931E0F9013197F1F797
:101F00000197D9F71F910F9108950E94BC1E8DE093
:101F10000E94801E08950E94BC1E8DE00E94801EBB
:101F200008950E94BC1E8DE00E94801E0895FF92BD
:101F30000F931F93CF93DF938C3070F5882319F59F
:101F400004E114E0C0E0D0E0FF24F394FE01EA5F76
:101F5000FB4F10829E012F5F822F6FEF7FEF0E9459
:101F6000CA1BF801F1928F012196CB30D10571F790
:101F700081E290E0909312048093110483EC91E04D
:101F80000E94BC1E09C0E82FF0E0EB5FFB4F1082FF
:101F90006FEF7FEF0E94CA1BDF91CF911F910F91CE
:101FA000FF9008951F93182F0E94C318112361F406
:101FB00011E0812F68EE73E00E94CA1B1F5F1C3086
:101FC000C1F78AEC91E04DC01C3030F4812F68EEEF
:101FD00073E00E94CA1B47C01C3009F440C01D308A
:101FE000B1F01E30B9F487E068EE73E00E94CA1BBE
:101FF00088E068EE73E00E94CA1B89E068EE73E037
:102000000E94CA1B8AE068EE73E00E94CA1B88ED3A
:1020100091E027C01F3039F581E068EE73E00E943F
:10202000CA1B82E068EE73E00E94CA1B83E068EE80
:1020300073E00E94CA1B84E068EE73E00E94CA1B32
:1020400085E068EE73E00E94CA1B86E068EE73E0EC
:102050000E94CA1B8BE068EE73E00E94CA1B81EDF0
:1020600091E00E94BC1E1F9108950F931F93882337
:1020700039F581E090E021E0FC01EB5FFB4F10823D
:10208000FC01EE5EFB4F208301968C309105A1F799
:1020900081E290E090931204809311040E94C3188F
:1020A0008BE493E00E949D1889E890E062E00E9432
:1020B000231A8FED91E00E94BC1E0E94B91825C022
:1020C0008C30C0F4082F10E001501040F801EA5F96
:1020D000FB4F108260ED77E00E94CA1B81E290E026
:1020E00090931204809311040D5E1B4F81E0F80160
:1020F00080830BC08C3019F486EE91E004C08D30E3
:1021000021F48DEE91E00E94BC1E1F910F91089565
:10211000DF93CF93CDB7DEB7A3970FB6F894DEBFAA
:102120000FBECDBF282F813289F1823240F48F312A
:10213000E9F0803228F58E3109F047C008C08332BB
:1021400081F1833248F1843209F03FC030C00E94EF
:10215000C31885EC90E068E00E94231A83E393E0C3
:102160000E949D1884E00E94BB0E2CC00E94C318E0
:1021700085EB91E06CE00E94231A83E393E020C09A
:102180000E94C3188DE193E06AE016C00E94C31854
:1021900089E494E06CE010C00E94C31881EB95E0E4
:1021A00004C00E94C31887E397E06DE005C00E9459
:1021B000C3188DEB98E06AE20E94231A87EB93E044
:1021C0000E949D180E94B91820C000D000D000D0F5
:1021D000EDB7FEB73196CE010196ADB7BEB71296F8
:1021E0009C938E93119784EF91E093838283248351
:1021F00015820E9428228DB79EB706960FB6F894D6
:102200009EBF0FBE8DBF0E94B018A3960FB6F89464
:10221000DEBF0FBECDBFCF91DF9108951F93CF9347
:10222000DF93EC01CB010E94C621182FCE0167E19C
:1022300072E00E94E921009741F489EA9DE00E9442
:10224000FC1A812F0E9488104AC0CE016AE172E018
:102250000E94E921009741F489EA9DE00E94FC1A5E
:10226000812F0E94D20F3BC0CE016DE172E00E942F
:10227000E921009741F489EA9DE00E94FC1A812F30
:102280000E9435102CC0CE0160E272E00E94E9216C
:10229000009741F489EA9DE00E94FC1A812F0E9478
:1022A000440C1DC0CE0163E272E00E94E921009758
:1022B00041F489EA9DE00E94FC1A812F0E94970F49
:1022C0000EC0CE0166E272E00E94E921009739F467
:1022D00089EA9DE00E94FC1A812F0E94080FDF917D
:1022E000CF911F910895DF93CF9300D000D000D0FD
:1022F000CDB7DEB7FC016530A1F480818A3389F463
:102300008181898382818A831B8283818C838481FA
:102310008D831E82CE010196BE016C5F7F4F0E94AD
:102320000E1126960FB6F894DEBF0FBECDBFCF912B
:10233000DF91089521E00E94AF0B0895EF92FF9284
:102340000F931F93DF93CF9300D000D00F92CDB7A0
:10235000DEB78C017B01DA018C91873209F44BC026
:10236000883721F0823209F071C02BC000D000D034
:1023700000D02DB73EB72F5F3F4F1196EDB7FEB798
:10238000B283A18389E292E0F90193838283CE0133
:102390000296958384830E944C22482F8DB79EB766
:1023A00006960FB6F8949EBF0FBE8DBF442309F466
:1023B00085C02A813B812F3F310509F008F46FC0A9
:1023C0007AC021E011969C911197992309F475C068
:1023D0009983F7018081F801E80FF11D9083F701DF
:1023E00080818F5F8083882309F465C02F5F1196F9
:1023F0002F3F41F762C000D000D000D02DB73EB7CC
:102400002F5F3F4F1196EDB7FEB7B283A1838CE2E9
:1024100092E0F90193838283CE01019695838483B0
:102420000E944C22482F8DB79EB706960FB6F8949F
:102430009EBF0FBE8DBF442309F440C0F7018081C9
:10244000080F111D8981F80180832FC000D000D0B2
:1024500000D02DB73EB72F5F3F4FEDB7FEB7528389
:1024600041838FE292E0F90193838283CE01049647
:10247000958384830E944C22482F8DB79EB7069681
:102480000FB6F8949EBF0FBE8DBF4423B9F02C81C8
:102490003D81C90180589F4F8058914060F4F701F9
:1024A0008081080F111DF8012083F70180818F5F63
:1024B0008083882319F440E001C041E0842F0F900D
:1024C0000F900F900F900F90CF91DF911F910F9170
:1024D000FF90EF900895AF92BF92CF92DF92EF926C
:1024E000FF920F931F93DF93CF93CDB7DEB7C55005
:1024F000D1400FB6F894DEBF0FBECDBF8C01623065
:1025000008F472C0198280913502909136029B8343
:102510008A83D8018C91863209F066C0C8010E9476
:10252000BC1E8DE00E94801E92E0E92EF12CEC0E84
:10253000FD1EC8010196B7010E94E421009709F42D
:1025400053C000D000D000D0EDB7FEB73196ADB784
:10255000BEB712969C938E93119782E392E0938379
:102560008283CE010496958384830E944C222C8121
:102570003D81EDB7FEB736960FB6F894FEBF0FBE9D
:10258000EDBF2F3F310580F5182FA22E27FD2CC05F
:10259000882349F429C0C601B7010E949E11182F53
:1025A000882369F421C0C701BE2C092F86E0C82EFC
:1025B000D12CCC0EDD1E7E010894E11CF11C80E0C4
:1025C00090E06B2D702F0E94E421AC01009719F769
:1025D000112351F04981442339F08A2DBE016A5FED
:1025E0007F4F21E00E94AF0BCB5FDE4F0FB6F89418
:1025F000DEBF0FBECDBFCF91DF911F910F91FF9036
:10260000EF90DF90CF90BF90AF90089501960E9419
:10261000801F8DE00E94441F08950E94560908956E
:1026200087E392E00E94560908958AE392E00E94AF
:10263000560908950F931F93DF93CF93CDB7DEB75D
:1026400028970FB6F894DEBF0FBECDBF2DB73EB7AB
:10265000285030400FB6F8943EBF0FBE2DBFEDB7E7
:10266000FEB731968E010F5F1F4FADB7BEB7129602
:102670001C930E9311972DE332E0338322838483DE
:102680001582668317820E9428222DB73EB7285FE5
:102690003F4F0FB6F8943EBF0FBE2DBFC8010E943A
:1026A000560928960FB6F894DEBF0FBECDBFCF9166
:1026B000DF911F910F91089585E492E00E945609E1
:1026C000089588E492E00E94560908958BE492E010
:1026D0000E94560908958EE492E00E9456090895DA
:1026E00081E592E00E945609089585E592E00E94F6
:1026F0005609089589E592E00E94560908958CE5EF
:1027000092E00E945609089581E692E00E945609DF
:1027100008952091D1038D3071F4E22FF0E0E15E55
:10272000FB4F10821092D103CB016FE174E00E9445
:10273000F22181E00895E22FF0E0E15EFB4F80831B
:10274000203410F080E008952F5F2093D10380E0C3
:102750000895DF92EF92FF920F931F938091CF0322
:102760009091D0030E94E0268C0180918603909185
:1027700087030E94D826D82E80918C0390918D03D8
:102780000E94D826E82E80918E0390918F030E949C
:10279000D826FF24ED0CF11CE00EF11EE80EF11C12
:1027A000C7011F910F91FF90EF90DF900895EF9276
:1027B000FF920F931F93DF93CF93CDB7DEB7279789
:1027C0000FB6F894DEBF0FBECDBFFC01E62E8081B0
:1027D000833209F014C18181898382818A831B82BB
:1027E00083818C8384818D8385818E831F82CE013A
:1027F00004960E94C621F82E8E010F5F1F4FC8015C
:1028000064E672E00E94E921009701F585E0E81690
:1028100009F0F5C0FF2039F48091CF039091D003E7
:1028200060E070E009C081E0F81641F48091CF03C8
:102830009091D0036FEF77E00E94F426CE010196CD
:102840006F2D0E94580C0E94A913CEC0C80167E6E4
:1028500072E00E94E921009709F053C086E0E81673
:1028600009F0CDC08F2D6AE00E949420282F8C3073
:1028700070F48F2D0E949420E22FF0E0E25AFB4F7B
:102880009083913079F0992369F410820BC08C30D9
:1028900019F4C80166E004C08D3021F4C80167E076
:1028A0000E94580C60E070E020E030E041E050E031
:1028B000F901E15AFB4F8081882351F0CA01022EB1
:1028C00002C0880F991F0A94E2F7682B792B0BC07E
:1028D000CA01022E02C0880F991F0A94E2F7809560
:1028E0009095682379232F5F3F4F2B30310501F7F7
:1028F0008091CF039091D0030E94F4260E94A913E7
:1029000073C0C8016AE672E00E94E921009769F489
:102910008CE08F1538F080918A0390918B036F2D96
:102920000E94E6260E94A9135FC0C8016DE672E00E
:102930000E94E921009751F48091860390918703CA
:102940006F2D0E94E6260E94A9134EC0C80160E7C1
:1029500072E00E94E9210097F1F4FF2031F48091A8
:102960008C0390918D0360E011C081E0F81631F482
:1029700080918C0390918D0361E008C082E0F8168D
:1029800039F480918C0390918D0362E00E94E626D9
:102990000E94A91329C0C80163E272E00E94E921E4
:1029A000009759F480918803909189036F2D6B3FB4
:1029B00008F06AEF0E94E6261EC0C80163E772E0D5
:1029C0000E94E9210097D9F481E08F15C0F0809131
:1029D0008E0390918F03FF2011F460E001C061E04D
:1029E0000E94E6260E94A913BC0180919003909159
:1029F00091030E94F42689EA9DE00E94FC1A279622
:102A00000FB6F894DEBF0FBECDBFCF91DF911F91FF
:102A10000F91FF90EF900895CF93DF93EC018881A1
:102A2000DE010D900020E9F71197AC1BBD0BAA2326
:102A300029F489EA9DE00E94FC1A3DC0853269F1C3
:102A4000863238F4833299F18432F0F4813299F588
:102A50001FC08A3279F08B3218F4863261F522C0B9
:102A60008A3319F0803439F50AC0CE016A2F0E94EA
:102A7000731121C0CE016A2F0E94910F1CC0CE019C
:102A80006A2F0E948B0F17C0CE010E94560913C0F7
:102A9000CE016A2F0E9406130EC0CE016A2F0E943B
:102AA000850F09C0CE016A2F0E946B1204C0CE01AF
:102AB0006A2F0E94D713DF91CF9108958D3011F0C6
:102AC0008A3021F48AE00E94F11A8DE00E94F11A06
:102AD00008954F925F926F927F928F929F92AF92E2
:102AE000BF92CF92DF92EF92FF920F931F93DF93EB
:102AF000CF93CDB7DEB7CE55D0400FB6F894DEBF3A
:102B00000FBECDBF0E948D1B8EEA9DE00E94FC1A75
:102B100082EF9DE00E94FC1A60E875E280E090E0A0
:102B20000E941B1E84E09EE00E94D11E20E931E03D
:102B300007C088E893E1F9013197F1F70197D9F7D8
:102B4000F999F7CF0E94A9138C018091900390917D
:102B500091030E94E0266C018DB79EB708970FB6CF
:102B6000F8949EBF0FBE8DBFEDB7FEB731967E01C4
:102B70000894E11CF11CADB7BEB71296FC92EE9220
:102B8000119756E7A52E52E0B52EB382A282158387
:102B90000483D782C6820E942822EDB7FEB73896FA
:102BA0000FB6F894FEBF0FBEEDBFC7010E942B1BEE
:102BB000C016D10609F463C0C70164E972E00E943F
:102BC000F221C7010E942B1B8091CF039091D0036B
:102BD00060E070E00E94F426809186039091870364
:102BE0006FEF0E94E62680918C0390918D0360E048
:102BF0000E94E62680918E0390918F0360E00E94F0
:102C0000E626C7016BEC72E00E94F221C7010E9428
:102C10002B1B0E94A9138C018DB79EB708970FB686
:102C2000F8949EBF0FBE8DBFEDB7FEB73196ADB71E
:102C3000BEB71296FC92EE921197B382A2821583D0
:102C40000483D782C6820E942822EDB7FEB7389649
:102C50000FB6F894FEBF0FBEEDBFC7010E942B1B3D
:102C60008091900390919103B8010E94F426C701CE
:102C700062EE72E00E94F221C7010E942B1B80913C
:102C8000CF039091D0030E94E026AC0120E030E019
:102C900061E070E0CB01022E02C0880F991F0A94F8
:102CA000E2F784239523892B11F081E004C0F90118
:102CB000E558FC4F8081F901E15AFB4F80832F5F7B
:102CC0003F4F2B30310531F780918A0390918B0370
:102CD0000E94D82680931E048091880390918903D6
:102CE0000E94D826809302040E94571C0E94D0178D
:102CF0000E944C1A81E00E94300C81E194E00E9415
:102D0000501789E890E062E00E94231A0E94B918E7
:102D100060E875E280E090E00E94DF1E80E395E7C6
:102D200020E931E0F9013197F1F70197D9F7809166
:102D30008603909187030E94D826813071F08130FC
:102D400028F0823031F0833041F405C01092030442
:102D500007C08EEF03C08DEF01C08FEF8093030497
:102D600080918E0390918F030E94D8260E94740A4E
:102D700080910304882349F08FEF9FEF20E931E031
:102D8000F9013197F1F70197D9F780918C03909170
:102D90008D030E94D826813041F0813018F08230B6
:102DA00059F408C00E948C0707C00E9494070E9433
:102DB0002D0802C00E94940789EC9DE00E94FC1A35
:102DC0004FE1642E712C6C0E7D1E31E2432E512C8E
:102DD0000E94EC1A882371F00E94DD1A182F0E94BD
:102DE0005E15812FB3010E948913882319F0C30156
:102DF0000E940C150E9435090E940B1C4C0123E116
:102E0000C22E24E0D22E760100E010E0B02EB39462
:102E1000F801EA5FFB4FA080F1E0AF16F9F427EC70
:102E2000821627E09206B4F0D7018C918823B1F482
:102E30008B2D0E94F11B8F5F9F4F81F08B2D60EDDA
:102E400077E00E94CA1B5092120440921104F701CD
:102E5000A08204C08B2DB4010E94CA1B0F5F1F4FBC
:102E60000894E11CF11C0B30110581F680911104CE
:102E700090911204892B09F0ABCF11E0D6018C910F
:102E8000882339F0812F6FEF7FEF0E94CA1BF60174
:102E900010820894C11CD11C1F5F1C3079F798CF99
:102EA0009C01A4E7B4E0E0E0F0E08D919C911197E3
:102EB000892B41F4EE0FFF1FEC58FB4F3183208329
:102EC00081E0089531961296EA30F10571F780E0BD
:102ED00008959C01A4E7B4E0E0E0F0E08D919C91BE
:102EE00011978217930741F4EE0FFF1FEC58FB4F29
:102EF0001182108281E0089531961296EA30F10530
:102F000069F780E008959C0180916D0490916E04B2
:102F1000892B19F4E0E0F0E013C080916F049091E8
:102F20007004892B19F4E1E0F0E00AC0809171048B
:102F300090917204892B11F080E00895E2E0F0E0B6
:102F4000EE0FFF1FE359FB4F3183208381E008958B
:102F50009C0180916D0490916E048217930719F47F
:102F6000E0E0F0E015C080916F049091700482174A
:102F7000930719F4E1E0F0E00BC0809171049091A7
:102F800072048217930711F080E00895E2E0F0E008
:102F9000EE0FFF1FE359FB4F1182108281E008956D
:102FA0003B9A84B5826084BD8FEC87BD16BCEEE68B
:102FB000F0E080818260808385B5846085BD7894EF
:102FC00008951F920F920FB60F9211242F933F93E3
:102FD0004F935F936F937F938F939F93AF93BF9321
:102FE000EF93FF939091D203923030F48FEC87BD32
:102FF0009F5F9093D20386C080ED87BD1092D2036D
:1030000080918B0490918C04019690938C04809312
:103010008B0480918804909189040196909389048F
:1030200080938804A4E7B4E0ED91FC911197309768
:1030300049F080819181892B29F0808191810197CC
:1030400091838083129684E0A838B80769F780914D
:1030500073048F5F8093730480917304843611F43A
:10306000109273048091D3038F5F8093D3038436CF
:1030700061F580916B0490916C04019690936C04BF
:1030800080936B041092D30380918A048F5F8093A6
:103090008A0480918A048C33C1F410928A0480914E
:1030A0008D048F5F80938D0480918D048C3369F43F
:1030B00010928D0480918E048F5F80938E04809196
:1030C0008E04883111F410928E0480918A0480FF5E
:1030D00016C0439AE0916D04F0916E04309709F0A8
:1030E0000995E0916F04F0917004309709F009950B
:1030F000E0917104F0917204309719F403C0439881
:10310000E9CF0995FF91EF91BF91AF919F918F9179
:103110007F916F915F914F913F912F910F900FBED3
:103120000F901F9018959093A6048093A50408957E
:103130001092A6041092A5040895AC0120E030E09E
:10314000F901EC52FC4FDA01A20FB31F8D919C9153
:10315000918380832E5F3F4F2631310589F7089593
:10316000E4EDF3E01192119283E0EA3EF807D1F723
:1031700008951092EA0381E08093EB03089581E0C3
:103180008093EB0308951092EB031092BE0410920B
:10319000BD04E091A504F091A604309709F00995CB
:1031A0000895982F8091EE03981710F49093EA03F6
:1031B0000895AF92BF92CF92DF92EF92FF920F935A
:1031C0001F93CF93DF937C0170E0CB01880F991F91
:1031D0009B01E5E0220F331FEA95E1F7281B390B2D
:1031E000265E3F4FC701820F931F2E5F3F4F2E0D6C
:1031F0003F1D8B0154E0000F111F5A95E1F7061B8C
:10320000170BC1E0D0E0FC01A590B490F901C59086
:10321000D4902C2FCA15DB0518F4CC16DD06D0F09F
:10322000FE01E00FF11FEE0FFF1FEE0DFF1D859158
:103230009491FE01EE0FFF1FEB55FB4F91838083AE
:10324000808191818F5F9F4F29F4822F6FEF7FEFF5
:103250000E94CA1B2196CC30D105D9F6DF91CF91BF
:103260001F910F91FF90EF90DF90CF90BF90AF90A4
:103270000895EF92FF920F931F93CF93DF93809166
:10328000EB03882309F4D8C08091EC039091ED03FF
:10329000892B09F4D1C004ED13E0C0E0D0E0FF2495
:1032A000F3943EE1E32E8091EA038E9DC001112448
:1032B0004896E091EC03F091ED03E80FF91F85913A
:1032C00094912FEF8F3F920711F0AC0103C0F801EA
:1032D00040815181CE01880F991FDC01A955BB4F58
:1032E0002D913C911197FC01E157FB4F8081918119
:1032F000281B390BB1F14115510529F080819181CD
:103300008F5F9F4F69F4FE01EE0FFF1FDF01A9558C
:10331000BB4F8D919C91E157FB4F918380831CC0E3
:103320001216130644F4421753076CF480819181FE
:10333000840F951F0AC0241735072CF480819181D2
:10334000841B950B02C08D919C9191838083FE011B
:10335000EE0FFF1FE157FB4F608171818F2D0E949F
:10336000CA1B2196F3940E5F1F4F8CE0F81609F0EC
:103370009ACF8091BD049091BE04892B09F05CC066
:103380007091EA036091EE03272F30E0862F90E0E2
:1033900001974091EC035091ED0328173907D4F4BD
:1033A000CA01672F0E94D9188091EA032EE1829FFB
:1033B00090011124E091EC03F091ED03E20FF31F73
:1033C000259134913093BE042093BD048F5F809388
:1033D000EA0332C01EE1619FF00111247E97E40FE1
:1033E000F51F859194916150892B79F4CA010E944F
:1033F000D9181092EB031092EA03E091A504F09122
:10340000A6043097C9F0099517C0CA010E94D918BF
:103410008091EE03819FC00111244E97E091EC034F
:10342000F091ED03E80FF91F859194919093BE04FC
:103430008093BD041092EA03DF91CF911F910F9109
:10344000FF90EF900895CF93DF931092EB031092CB
:10345000EA039093ED038093EC036093EE03C0E0E6
:10346000D0E09E012F5F822F0E94F11BFE01EE0F24
:10347000FF1FDF01A157BB4F11969C938E938D9137
:103480009C91E955FB4F918380832196CB30D105E8
:1034900041F7DF91CF91089589E399E10E94831765
:1034A0008DEB94E00E9450170895E1ECF0E08081EC
:1034B000806880830895E1ECF0E080818F778083DD
:1034C00008951F920F920FB60F9211242F938F938E
:1034D0009F93EF93FF932091C600909107058091F1
:1034E00008059817D8F4E0910B05F0910C0521938D
:1034F00080910E05815021F480910805E81BF109A7
:1035000080930E05F0930C05E0930B059FB7F8949C
:10351000809107058F5F809307059FBFFF91EF9113
:103520009F918F912F910F900FBE0F901F90189524
:103530001F920F920FB60F9211242F938F939F9388
:10354000EF93FF938091FF048823F1F0E091010550
:10355000F0910205219180910505815021F480911F
:103560000005E81BF109F0930205E0930105809343
:1035700005059FB7F8948091FF0481508093FF0464
:103580009FBF2093C60005C08091C1008F7D8093AE
:10359000C100FF91EF919F918F912F910F900FBEDE
:1035A0000F901F90189587E095E00E94D30A089528
:1035B00087E095E00E94EB0A089587E095E00E947D
:1035C000EB0A08958FEF94E00E94070B20E0892B0F
:1035D00009F421E0822F089587E095E00E94070B0F
:1035E0000895682F8FEF94E00E94B80AE1ECF0E0B4
:1035F00090819062908308951F93CF93DF93EC01A5
:1036000007C00E94E21A8823E1F3812F0E94F11A79
:10361000FE01219614911123A1F7DF91CF911F9103
:1036200008950F931F93CF93DF93EC0101E010E017
:1036300004C00E94F11A08231F5FFE01E10FF11D73
:103640008081882311F01F3FA1F7802FDF91CF9158
:103650001F910F910895EF92FF921F93CF93DF93E5
:103660007C0110E008C00E94E21A8823E1F38881FF
:103670000E94F11A1F5FE701C10FD11D88818823C5
:1036800011F01F3F81F7DF91CF911F91FF90EF90D5
:1036900008951F931FB79C0140E050E084E0220F83
:1036A000331F441F551F8A95D1F760E074E284EF01
:1036B00090E00E94B320215030403093C500209309
:1036C000C400F8941092C00088E98093C10086E09D
:1036D0008093C2008091C6008091C00087FDFACF20
:1036E00080EC8093C0001FBF789487E095E06FEB7B
:1036F00074E040E40E94AE0A8FEF94E06FE075E062
:103700004FEF0E94AE0A1F91089580E895E20E9453
:10371000491B84E28093C200089580E895E20E94EC
:10372000491B08958BE08093EF0380E29EE4909321
:10373000850080938400EFE6F0E0808181608083E3
:103740007894E1E8F0E08081826080830895CF93EF
:10375000DF93A8E3B6E0CBE2D6E041E050E0ED91A4
:10376000FD912081CA01099002C0880F991F0A9417
:10377000E2F780958223808386E0AE34B80779F73C
:1037800080916F008E7F80936F0010928100DF9197
:10379000CF910895E82F81508B3010F577FF0AC044
:1037A000F0E0EE0FFF1FE45FF94F8FEF9FEF918383
:1037B0008083089589E0653C78071CF064EC79E02B
:1037C00006C081E0643F780714F464EF71E0F0E034
:1037D000EE0FFF1FE45FF94F660F771F7183608361
:1037E0000895E82F81508B3018F0E0E0F0E011C030
:1037F000F0E0EE0FFF1FE45FF94F808191812FEF22
:103800008F3F920719F4EFEFFFEF03C0FC01F6952D
:10381000E795CF010895809137068A3048F08FEF01
:103820009FEF90935406809353062FEF3FEF1CC0F9
:10383000809137068823A1F480912606882381F0A1
:10384000809151069091520662E070E00E94A020A3
:103850009B0170935406609353061092260604C091
:103860002091530630915406C901089580B78B7F8B
:1038700080BFE1E8F0E080818F778083EFE6F0E0C1
:1038800080818F7D8083209810922A0610922906CD
:1038900010922806109227061092500610923706B2
:1038A0008FEF9FEF90935406809353060895EF9205
:1038B000FF920F931F93CF93DF93EEE0F6E08FEF2D
:1038C0009FEF8193919326E0E632F207D1F72BE246
:1038D00030E0309339062093380630933B0620932E
:1038E0003A0630933D0620933C0630933F062093E2
:1038F0003E06309341062093400685E290E0909387
:103900004306809342069093450680934406909325
:103910004706809346069093490680934806909305
:103920004B0680934A0630934D0620934C069093A5
:103930004F0680934E0642E040932B0633E03093CF
:103940002C0624E020932D0695E090932E0686E029
:1039500080932F0681E080933006409331063093A8
:103960003206209333069093340687E08093350621
:103970008CE080933606C8E3D6E04BE256E0DE01E9
:10398000BA0101E010E0ED90FD90F7012081FB010C
:10399000C801019002C0880F991F0A94E2F7BF0185
:1039A00080958223F7018083F6E0AE34BF0759F794
:1039B00061E070E0E991F9912291DA01CB010D907B
:1039C00002C0880F991F0A94E2F7AD01282B2083CB
:1039D000B6E0CE34DB0771F780916F008E7F809365
:1039E0006F008BE08093EF031092800080E29EE4F2
:1039F00090938500809384000E94361C0E94921B45
:103A0000DF91CF911F910F91FF90EF900895E1E822
:103A1000F0E0808180648083B59A10925006EFE6D2
:103A2000F0E0808180628083089580916F008F7DB7
:103A300080936F00809150068823A1F01092370682
:103A400080912706909128062091290630912A0618
:103A5000821B930B909352068093510681E08093D2
:103A600026060895809137068B3028F4809137061A
:103A70008F5F8093370608951F920F920FB60F92B3
:103A800011242F933F934F935F936F937F938F9363
:103A90009F93AF93BF93EF93FF938091EF038B308E
:103AA00028F00E94151D1092EF031FC0E091EF0354
:103AB000F0E0EE0FFF1FE85CF94FA081B1812C917F
:103AC000E091EF03F0E0E55DF94F81E090E00080E8
:103AD00002C0880F991F0A94E2F7809582238C9385
:103AE0008091EF038F5F8093EF038091EF038B3022
:103AF00048F080E29EE490938500809384000E94C9
:103B0000071D55C0E091EF03F0E0EE0FFF1FE25FED
:103B1000F94F808191818F5F9F4F09F442C0E091FE
:103B2000EF03F0E0EE0FFF1FE85CF94FA081B181D9
:103B30002C91E091EF03F0E0E55DF94F81E090E03A
:103B4000008002C0880F991F0A94E2F7282B2C935B
:103B5000E091EF03F0E0E15AFB4F8081813061F4A6
:103B6000E091EF03F0E0EE0FFF1FE25FF94F80817D
:103B700091818057974117C0E091EF03F0E0E15A3F
:103B8000FB4F8081882399F4E091EF03F0E0EE0F82
:103B9000FF1FE25FF94F80819181909581959F4F42
:103BA00002C08CE09EEF9093850080938400FF918B
:103BB000EF91BF91AF919F918F917F916F915F91A5
:103BC0004F913F912F910F900FBE0F901F9018951E
:103BD0001F920F920FB60F9211248F939F93F89418
:103BE0008091810086FF0FC08091860090918700B0
:103BF00090932A0680932906809181008F7B809381
:103C00008100B59A10C080918600909187009093B2
:103C100028068093270681E08093500680916F00EC
:103C20008F7D80936F0078949F918F910F900FBE3E
:103C30000F901F901895EF92FF920F931F93CF93C1
:103C4000DF937B018C011092F1031092F00310922C
:103C5000F3031092F2031092F5031092F403109202
:103C6000F7031092F603389A409A20E030E0E90119
:103C7000CC0FDD1FC20FD31FBE01660F771F660F6B
:103C8000771FAB01425C514FFA0185919591A59147
:103C9000B4918E159F05A007B10729F5FB01EE5BD6
:103CA000F14F859194919093F1038093F003FB0180
:103CB000EC5BF14F859194919093F3038093F20321
:103CC000FB01EA5BF14F859194919093F50380930A
:103CD000F403FB01E85BF14F859194919093F70316
:103CE0008093F60306C02F5F3F4F2C30310509F05B
:103CF000BECFDF91CF911F910F91FF90EF9008956C
:103D0000F82F2091F6033091F7032115310509F4BE
:103D100032C0EFB7F894409888B12B5F3F4FC9018C
:103D200040E001974FEF8F3F9407D9F7255030407F
:103D300051E060E070E0A0E0852F8F2311F0409A01
:103D400001C0409888B1C9014A2F01974FEF8F3FBA
:103D50009407D9F7550F6F5F7F4F6830710561F792
:103D6000409A88B1EFBF7894C90120E001972FEF06
:103D70008F3F9207D9F708951F93CF93DF93EC01FC
:103D800010E003C00E94801E1F5FFE01E10FF11DC5
:103D90008081882311F01F3FA9F7DF91CF911F91F8
:103DA0000895CF93DF93EC0102C00E94801EFE01B4
:103DB000219684918823C9F7DF91CF910895EF92DE
:103DC000FF920F931F93CF93DF937B018C0110928F
:103DD000F9031092F8031092FB031092FA03109269
:103DE000FD031092FC031092FF031092FE03399A18
:103DF000419A20E030E0E901CC0FDD1FC20FD31F54
:103E0000BE01660F771F660F771FAB01425C514FF3
:103E1000FA0185919591A591B4918E159F05A00702
:103E2000B10729F5FB01EE5BF14F859194919093D9
:103E3000F9038093F803FB01EC5BF14F85919491BA
:103E40009093FB038093FA03FB01EA5BF14F8591AA
:103E500094919093FD038093FC03FB01E85BF14F89
:103E6000859194919093FF038093FE0306C02F5F8A
:103E70003F4F2C30310509F0BECFDF91CF911F911C
:103E80000F91FF90EF900895F82F2091FE0330914D
:103E9000FF032115310509F432C0EFB7F8944198BA
:103EA00088B12B5F3F4FC90140E001974FEF8F3F33
:103EB0009407D9F72550304051E060E070E0A0E071
:103EC000852F8F2311F0419A01C0419888B1C90113
:103ED0004A2F01974FEF8F3F9407D9F7550F6F5F28
:103EE0007F4F6830710561F7419A88B1EFBF7894D0
:103EF000C90120E001972FEF8F3F9207D9F708956E
:103F00001F93CF93DF93EC0110E003C00E94441F86
:103F10001F5FFE01E10FF11D8081882311F01F3F1B
:103F2000A9F7DF91CF911F910895CF93DF93EC0113
:103F300002C00E94441FFE01219684918823C9F784
:103F4000DF91CF9108952F923F924F925F926F929F
:103F50007F928F929F92AF92BF92CF92DF92EF9219
:103F6000FF920F931F93DF93CF93CDB7DEB73B0143
:103F70004C0119012A016D897E898F89988D6A19F2
:103F80007B098C099D09621A730A840A950AA401A7
:103F900093010E947520E218F30804091509A8018D
:103FA00097010E94D5202A0D3B1D4C1D5D1DB901B6
:103FB000CA01CF91DF911F910F91FF90EF90DF9099
:103FC000CF90BF90AF909F908F907F906F905F90B9
:103FD0004F903F902F9008950F931F93021B130B48
:103FE000861B970B461B570BBC01069FC001079F02
:103FF000900D169F900D1124BA010E94A020620F0F
:10400000731FCB011F910F910895CF93DF93EC01A4
:10401000009719F420E030E006C00E945521BE014F
:104020000E94A0209C01C901DF91CF910895CF93F8
:10403000DF93EC01861797073CF4CB018C1B9D0B9B
:104040000E940520C80FD91FCE01DF91CF9108959E
:10405000009711F00E945A210895EF92FF920F935A
:104060001F937B018C01611571058105910529F470
:1040700020E030E040E050E00BC00E94B821A801F1
:1040800097010E94D520AC01CB01DA019C01AD0162
:10409000B901CA011F910F91FF90EF900895EF921F
:1040A000FF920F931F937B018C01621773078407A4
:1040B000950764F4261B370B480B590BCA01B9014D
:1040C0000E942D20E60EF71E081F191FB701C80118
:1040D0001F910F91FF90EF90089561157105810573
:1040E000910511F00E94BD210895629FD001739F38
:1040F000F001829FE00DF11D649FE00DF11D929F84
:10410000F00D839FF00D749FF00D659FF00D9927C2
:10411000729FB00DE11DF91F639FB00DE11DF91FE6
:10412000BD01CF0111240895991B79E004C0991FA6
:10413000961708F0961B881F7A95C9F78095089501
:1041400097FB092E07260AD077FD04D049D006D068
:1041500000201AF4709561957F4F0895F6F79095B9
:1041600081959F4F0895A1E21A2EAA1BBB1BFD014A
:104170000DC0AA1FBB1FEE1FFF1FA217B307E40746
:10418000F50720F0A21BB30BE40BF50B661F771F9E
:10419000881F991F1A9469F760957095809590957E
:1041A0009B01AC01BD01CF01089597FB092E0526A7
:1041B0000ED057FD04D0D7DF0AD0001C38F450953C
:1041C0004095309521953F4F4F4F5F4F0895F6F73B
:1041D00090958095709561957F4F8F4F9F4F089573
:1041E000AA1BBB1B51E107C0AA1FBB1FA617B7071D
:1041F00010F0A61BB70B881F991F5A95A9F7809539
:104200009095BC01CD010895A0E0B0E0EAE0F1E2B4
:104210000C942328EC01A880B980CA80DB80A1140B
:10422000B104C104D10441F484E2A82E89EDB82E72
:104230008BE5C82E87E0D82EC601B5012DE133EFFE
:1042400041E050E00E94D52027EA31E440E050E010
:104250000E9475207B018C01C601B5012DE133EF71
:1042600041E050E00E94D520CA01B9012CEE34EFA4
:104270004FEF5FEF0E9475206E0D7F1D801F911F15
:1042800097FF04C0615070408040904868837983F4
:104290008A839B839B013F77C901CDB7DEB7EAE0F4
:1042A0000C943F280E94042108958CE093E00E9422
:1042B00004210895A0E0B0E080930C0390930D03D7
:1042C000A0930E03B0930F030895A0E0B0E0EBE6D7
:1042D000F1E20C942328EC01A880B980CA80DB802D
:1042E000A114B104C104D10441F484E2A82E89EDE3
:1042F000B82E8BE5C82E87E0D82EC601B5012DE17A
:1043000033EF41E050E00E94D52027EA31E440E05D
:1043100050E00E9475207B018C01C601B5012DE1A2
:1043200033EF41E050E00E94D520CA01B9012CEEE4
:1043300034EF4FEF5FEF0E9475206E0D7F1D801FE1
:10434000911F97FF04C0615070408040904868837F
:1043500079838A839B839B01AC015F77B901CA0192
:10436000CDB7DEB7EAE00C943F280E94652108959E
:1043700080E193E00E94652108956093100370939B
:10438000110380931203909313030895FC0188276F
:104390009927E89421912032E9F3293010F02E304A
:1043A000C8F32B3241F02D3239F4689404C00E94D6
:1043B0002022820F911D219120532A30C0F31EF438
:1043C000909581959F4F089548EA53E00E94F92106
:1043D0000895FB01DC018D91019080190110D9F342
:1043E000990B0895FB01DC0101900D920020E1F78B
:1043F0000895FA01A191B081009719F41097E1F0A6
:10440000CD01DC01CD010D90002011F4C00113C0DD
:10441000FB012191222319F02015D9F7F3CFFB01DD
:104420002191201519F41E92119606C02223C1F77E
:104430000D900020A1F7D001FA01A193B083089557
:104440007AE0979F902D879F802D910D11240895DC
:10445000AEE0B0E0EEE2F2E20C9429280D891E896C
:1044600086E08C831A8309838FEF9FE79E838D8379
:104470009E01275E3F4FCE0101966F89788DA9017D
:104480000E9466222F813885020F131FF8011082C7
:104490002E96E4E00C944528AEE0B0E0E2E5F2E2CE
:1044A0000C942B2885E08C838B899C899A83898343
:1044B0009E01295E3F4FCE0101966D897E89A9013B
:1044C0000E94C7252E96E2E00C944728ABE0B0E0AE
:1044D000ECE6F2E20C941B283C012B015A01FC0192
:1044E00017821682838181FD03C06FEF7FEFC6C103
:1044F0009AE0892E1E010894211C311CF3012381AE
:10450000F20123FD859123FF81912F01882309F476
:10451000B2C1853239F423FD859123FF81912F01AA
:10452000853229F490E0B3010E946427E7CF982FE9
:10453000FF24EE249924FFE1FF15D0F09B3269F0AF
:104540009C3228F4903259F0933291F40EC09D328F
:1045500049F0903369F441E024C052E0F52A84E048
:10456000F82A28C098E0F92A25C0E0E1FE2A22C0F6
:10457000F7FC29C0892F80538A3070F4F6FE05C0FD
:10458000989C902C1124980E15C0E89CE02C1124C6
:10459000E80EF0E2FF2A0EC09E3229F4F6FC6BC151
:1045A00040E4F42A07C09C3619F450E8F52A02C00A
:1045B000983649F4F20123FD959123FF91912F0143
:1045C000992309F0B8CF892F8554833018F0805291
:1045D000833038F444E050E0A40EB51E5FE3598305
:1045E0000FC0933631F0933779F0933509F056C008
:1045F00020C0F5018081898342E050E0A40EB51E01
:10460000610101E010E012C0F501C080D180F6FC2C
:1046100003C06FEF7FEF02C0692D70E042E050E011
:10462000A40EB51EC6010E9417278C015FE7F52274
:1046300014C0F501C080D180F6FC03C06FEF7FEF9E
:1046400002C0692D70E042E050E0A40EB51EC60124
:104650000E940C278C0150E8F52AF3FE07C01AC00F
:1046600080E290E0B3010E946427EA948E2D90E0EE
:1046700008171907A8F30EC0F601F7FC8591F7FE9D
:1046800081916F0190E0B3010E946427E110EA94E8
:10469000015010400115110579F7EAC0943611F068
:1046A000993669F5F7FE08C0F50120813181428114
:1046B000538184E090E00AC0F501808191819C01E2
:1046C000442737FD4095542F82E090E0A80EB91E94
:1046D0009FE6F92257FF09C05095409530952195E6
:1046E0003F4F4F4F5F4FE0E8FE2ACA01B901A101D9
:1046F0002AE030E00E94AA27D82ED21840C0953771
:1047000029F41F2D1F7E2AE030E01DC01F2D197FC8
:104710009F3661F0903720F4983509F0ACC00FC097
:10472000903739F0983709F0A6C004C028E030E08F
:104730000AC0106114FD146020E130E004C014FDD3
:10474000166020E132E017FF08C0F5016081718139
:104750008281938144E050E008C0F501808191811D
:10476000BC0180E090E042E050E0A40EB51EA10143
:104770000E94AA27D82ED2188FE7F82EF122F6FE33
:104780000BC05EEFF522D91438F4F4FE07C0F2FC3A
:1047900005C08FEEF82202C01D2D01C0192DF4FEB8
:1047A0000DC0FE01ED0DF11D8081803319F499EEED
:1047B000F92208C01F5FF2FE05C003C08F2D867866
:1047C00009F01F5F0F2DF3FC14C0F0FE0FC01E1583
:1047D00010F09D2C0BC09D2C9E0C911A1E2D06C016
:1047E00080E290E0B3010E9464271F5F1E15C0F3B2
:1047F00004C01E1510F4E11A01C0EE2404FF0FC01E
:1048000080E390E0B3010E94642702FF1DC001FD18
:1048100003C088E790E00EC088E590E00BC0802FD1
:10482000867891F001FF02C08BE201C080E2F7FCC4
:104830008DE290E0B3010E94642706C080E390E01F
:10484000B3010E9464279A94D914C0F3DA94F10159
:10485000ED0DF11D808190E0B3010E946427DD2001
:10486000A9F706C080E290E0B3010E946427EA94B1
:10487000EE20C1F743CEF30166817781CB012B9601
:10488000E2E10C943728FC0120FD08C023FD05C09F
:1048900022FF02C073836283518340830895EF92A5
:1048A000FF920F931F9344FF02C033E011C046FFF5
:1048B00002C034E00DC0DB01FC01AA0FBB1FEE1FDC
:1048C000FF1F1094D1F76A0F7B1F8E1F9F1F31E0CF
:1048D000660F771F881F991F3150D1F77B018C011C
:1048E000E20EF11C011D111DA8019701B701CA01BB
:1048F0001F910F91FF90EF9008950F931F93CF9307
:10490000DF938C01C8010E942227EC0197FD08C0AB
:104910000E94F926892BB1F7CE01B8010E94902799
:10492000CE01DF91CF911F910F910895A0E0B0E0EB
:10493000ECE9F4E20C942328EC01C62E5A01122F64
:104940000E942227AC018B3219F08D3251F410688D
:10495000CA9409F46DC0CE010E942227AC0197FDD4
:1049600067C06DEFD62ED1228D2D807301F54033B7
:10497000F1F4CA9409F447C0CE010E942227AC0189
:1049800097FD41C082E0D82A483711F0483559F4E4
:1049900080E4D82ACA94B9F1CE010E942227AC0142
:1049A00099232CF430C0D6FC02C080E1D82AEE2432
:1049B000FF248701242F2053283088F0D4FC09C01D
:1049C0002A3068F0D6FE05C02F7D822F81518630B7
:1049D00028F0CA01BE010E94902712C02750C801CA
:1049E000B7014D2D0E944F247B018C0182E0D82A13
:1049F000CA9461F0CE010E942227AC0197FFDACF62
:104A0000D1FC04C015C0EE24FF248701D7FE08C0E6
:104A100010950095F094E094E11CF11C011D111D0E
:104A2000C501B801A7012D2D0E94432481E001C0DA
:104A300080E0CDB7DEB7EAE00C943F28A0E2B0E01A
:104A4000E4E2F5E20C941F286C01A62E8A0179019C
:104A5000FE01319680E2DF011D928A95E9F770E050
:104A600030E060E040E050E04F01A1E0B0E0F6014E
:104A70008381F70183FD259183FF21917F0122230B
:104A800009F47EC02E3519F44115510569F1872FBF
:104A900090E08417950744F42D3551F12D3221F41F
:104AA000332329F431E021C0332309F4622F322F5C
:104AB000832F869586958695F401E80FF11D832F47
:104AC00087703D0102C0660C771C8A95E2F7208151
:104AD00026292083361711F430E007C0361710F46A
:104AE0003F5FE6CF3150E4CF71E04F5F5F4FBFCF04
:104AF000332319F08E8180628E83772359F0FE0173
:104B000031969E012F5D3F4F808180958193E21702
:104B1000F307D1F7BB24B3944E010894811C911C78
:104B2000C6010E942227AC0197FD22C0869586957A
:104B30008695F401E80FF11D808190E09A012770BD
:104B4000307002C0959587952A95E2F780FD05C0E3
:104B5000CA01B6010E9490270BC00115110519F07A
:104B6000D8014D938D01AA94BB24AA20C9F602C096
:104B7000BB2031F40115110529F0F801108202C0A3
:104B8000EE24FF24C701A096EEE00C943B28A0E0A1
:104B9000B0E0EDECF5E20C941F285C016B013A01EA
:104BA000FC01178216828824EAC0812F90E00E94BF
:104BB000F926892B21F0C5010E947D24E0C0153221
:104BC00049F4F601F3FC6591F3FE61916F016532E2
:104BD00069F415E2C5010E94222797FDDCC0181771
:104BE00009F4CDC0B5010E949027DAC06A3219F0ED
:104BF000162F00E006C0F3FC1591F3FE11916F0132
:104C000001E099240FC00260692D70E080E090E01F
:104C100040E20E944F24962EF601F3FC1591F3FE1C
:104C200011916F01212F20532A3068F301FD03C039
:104C300099249A9403C0992009F4B2C0183621F03F
:104C40001C3699F4F6010BC0F601F3FC6591F3FEF6
:104C50006191683619F06F01162F07C00860046073
:104C6000F3FC1591F3FE11916F01112309F498C023
:104C70008EEC9EE0612F70E00E940127892B09F4E1
:104C80008FC0802F00FF03C0EE24FF2407C0F30174
:104C9000E080F18022E030E0620E731E1E3651F497
:104CA000F5014681578160E070E0C701202F0E9426
:104CB000432465C0133691F481FD02C09924939476
:104CC000C5010E94222797FD66C0E114F10419F086
:104CD000F70181937F019A9499F74FC01B3559F4DE
:104CE000C501692DA70196010E941E256C01009740
:104CF00009F043C03DC0C5010E947D2497FD4BC013
:104D00001F3659F1103728F4143629F1193639F5C0
:104D100027C0133719F0153711F51DC0C5010E94C2
:104D20002227EC0197FD11C00E94F926892B29F05A
:104D3000CE01B5010E94902708C0E114F10419F0DA
:104D4000F701C1937F019A9449F7E114F104A9F0A6
:104D5000F701108212C0006203C0006101C000644C
:104D6000C501692DA701202F0E949624882329F4CC
:104D7000F5018381807379F413C000FF8394F501FA
:104D8000F380F601F3FC1591F3FE11916F011123ED
:104D900009F00BCF05C0882019F42FEF3FEF02C0B8
:104DA000282D30E0C901CDB7DEB7EEE00C943B28EA
:104DB000F999FECF92BD81BDF89A992780B50895E3
:104DC000A8E1B0E042E050E00C940A28262FF999BF
:104DD000FECF1FBA92BD81BD20BD0FB6F894FA9ADE
:104DE000F99A0FBE019608950E94E626272F0C948B
:104DF000E72691111DC1803219F089508550D0F7F6
:104E00000895FC010590061621F00020D9F7C00195
:104E100008953197CF010895FC01059061507040CD
:104E20000110D8F7809590958E0F9F1F0895FC0173
:104E30006150704001900110D8F7809590958E0FC9
:104E40009F1F0895CF93DF93EC014B8140FF1AC061
:104E500046FF0AC04F7B4B838E819F8101969F83C3
:104E60008E838A81282F2BC042FF13C0E881F981ED
:104E70008081282F332727FD30952115310529F40E
:104E800040624B832FEF3FEF1BC03196F983E883DD
:104E900011C0EA85FB85CE0109959C0197FF0AC0E8
:104EA0009B812F5F3F4F11F080E201C080E1892B91
:104EB0008B83E8CF8E819F8101969F838E8330E024
:104EC000C901DF91CF9108950F931F93CF93DF9383
:104ED0008C01EB018B8181FF1BC082FF0DC02E81F5
:104EE0003F818C819D812817390764F4E881F9811D
:104EF0000193F983E88306C0E885F985802F099539
:104F0000892B31F48E819F8101969F838E8302C00D
:104F10000FEF1FEFC801DF91CF911F910F910895FF
:104F20009C01FB01838180FF11C086FD0FC09FEFB4
:104F30002F3F390759F0228380648F7D83838681D8
:104F4000978101979783868330E002C02FEF3FEF70
:104F5000C9010895FA01AA27283051F1203181F1C1
:104F6000E8946F936E7F6E5F7F4F8F4F9F4FAF4F71
:104F7000B1E03ED0B4E03CD0670F781F891F9A1F84
:104F8000A11D680F791F8A1F911DA11D6A0F711D38
:104F9000811D911DA11D20D009F468943F912AE044
:104FA000269F11243019305D3193DEF6CF0108952C
:104FB000462F4770405D4193B3E00FD0C9F7F6CF5D
:104FC000462F4F70405D4A3318F0495D31FD405225
:104FD000419302D0A9F7EACFB4E0A69597958795BB
:104FE00077956795BA95C9F700976105710508959A
:104FF0009B01AC010A2E0694579547953795279546
:10500000BA95C9F7620F731F841F951FA01D0895DD
:10501000DC01CB01FC01F999FECF06C0F2BDE1BD78
:10502000F89A319600B40D9241505040B8F7089567
:105030009927882708952F923F924F925F926F92FF
:105040007F928F929F92AF92BF92CF92DF92EF9218
:10505000FF920F931F93CF93DF93CDB7DEB7CA1B99
:10506000DB0B0FB6F894DEBF0FBECDBF09942A88C4
:10507000398848885F846E847D848C849B84AA846C
:10508000B984C884DF80EE80FD800C811B81AA81F9
:10509000B981CE0FD11D0FB6F894DEBF0FBECDBFC4
:0850A000ED010895F894FFCF23
:1050A8002378782532640D003A53452532640D0083
:1050B8002A454F253032640D00255430300D002527
:1050C8005432320D00255435320D002A4D46253014
:1050D80032640D00255434320D00255434330D004C
:1050E8004033543130300D00403054360D004030DC
:1050F80054340D0040305731300D004030543932AF
:105108000D00403054320D00403057340D0040300F
:1051180054310D00403054350D002A524330310DC2
:10512800002A4830253032640D002A4631253032B5
:10513800640D002A4630253032640D002A5244306E
:10514800300D002A535430300D002A4F4E30300DA8
:10515800002A483030300D003A484430300D0040C5
:10516800334D003A535430300D003A4F5030300D23
:10517800003A4F5030370D003A4F5030380D003A52
:10518800434C30300D003A434C30370D003A434C15
:1051980030380D002853657175656E6365202530BC
:1051A8003264206E6F7420696D706C656D656E7405
:1051B800656429200D0A005345004F5000434C00F8
:1051C80052430053540048440025780025630025C5
:1051D80064002575002C0024730024520024253116
:1051E8006425326400244C002443002446002463D0
:1051F800002433360024333400244400243231336D
:1052080000245300534400535200534C005353009E
:10521800535100534D0043616C63204352433A207D
:1052280025582053746F7265644352433A202558B9
:10523800200D0A00454550524F4D20436F7272753C
:105248007074206F72206E6576657220777269744B
:1052580074656E2E202057726974696E67206465C4
:105268006661756C74732E200D0A0047656E657251
:105278006174696E67206E6577204352432E200D56
:105288000A004E65772044656661756C7473206109
:105298006E6420435243205772697474656E20749B
:1052A8006F20454550524F4D200D0A000100000067
:1052B800010000007EFF0606000000FEEDEF7EFF05
:1052C800060E000000FEEDEF7EFF0612000000FE55
:1052D800EEEF321900190019001900190019001908
:1052E80000190019001900190019000F000F000F0C
:1052F800000F000F000F000F000F000F000F000F2E
:10530800000F000900090009000900090009000947
:105318000009000900090009000900010000010155
:105328000000000100000200030004000500060060
:1053380007001312070403191919197EFF0607003D
:085348000000FEEDEF0500007E
:00000001FF
