:100000000C94BC130C94D9130C94D9130C94D913DD
:100010000C94D9130C94D9130C94D9130C94D913B0
:100020000C94D9130C94D9130C94142C0C94D9134C
:100030000C94D9130C94682B0C940D260C94D913A2
:100040000C94D9130C94D9130C948D280C94C428B7
:100050000C94D9130C94D9130C94D9130C94D91370
:100060000C94D9130C94D913E41EF11E0A1F1C1F03
:10007000301F421F621F821FA01FC01FE41FFD1FF1
:1000800012201F20342058206B2004210421042139
:100090000421042104210421042104210421042138
:1000A0000421042104210421042104210421042128
:1000B0000421042104210421042104210421042118
:1000C00004210421042104210421042104217E208F
:1000D0008B209620A120AC20B920C920D420E32079
:1000E000EF20496E76616C6964204D50335472691B
:1000F0006767657220536F756E6420436F6D6D6125
:100100006E64001400D007D007D007D007D007D006
:1001100007D007D007D007D007D007FFFF01000B9B
:10012000002C01E803E803E803E803E803E803E838
:1001300003E803E803E803E803FFFF01000B009670
:1001400000D007D007D007D007D007D007D007D0FE
:1001500007D007D007D007FFFF01000B000000FF0A
:10016000FFFFFFFFFFFFFFFFFFFFFFFFFFFFFFFF9F
:10017000FFFFFFFFFFFFFF01000B001400D007D0BF
:1001800007D007D007D007D007D007D007D007D0B7
:1001900007D007FFFF01000B00E803E803E803E8CE
:1001A00003E803E803E803E803E803E803E803E8F7
:1001B00003FFFF01000B009600D007D007D007D047
:1001C00007D007D007D007D007D007D007D007FF48
:1001D000FF01000B000000FFFFFFFFFFFFFFFFFF1D
:1001E000FFFFFFFFFFFFFFFFFFFFFFFFFFFFFF011D
:1001F000000B001400D007D007D007D007D007D0DD
:1002000007D007D007D007D007D007FFFF01000BAA
:1002100000C800D606D606D606D606D606D606D618
:1002200006D606D606D606D606FFFF01000B00004E
:1002300000FFFFFFFFFFFFFFFFFFFFFFFFFFFFFFCD
:10024000FFFFFFFFFFFFFFFFFF01000B001E00D0BD
:1002500007D007D007D007D007D007D007D007D0E6
:1002600007D007D007FFFF01000B001E00E803D0F6
:1002700007D007D007D007D007D007D007D007D0C6
:1002800007D007FFFF01000B001E00D007E803D0D6
:1002900007D007D007D007D007D007D007D007D0A6
:1002A00007FFFF01000B001E00D007D007E803D0B6
:1002B00007D007D007D007D007D007D007D007FF57
:1002C000FF01000B001E00D007D007D007E803D0C5
:1002D00007D007D007D007D007D007D007FFFF010E
:1002E000000B001E00D007D007D007D007E803D0CE
:1002F00007D007D007D007D007D007FFFF01000BBA
:10030000001E00D007D007D007D007D007E803D0E1
:1003100007D007D007D007D007FFFF01000B001E52
:1003200000D007D007D007D007D007D007D007D01C
:1003300007D007D007E803FFFF01000B001E00D025
:1003400007D007D007D007D007D007D007D007D0F5
:1003500007D007D007FFFF01000B001E00D007D019
:1003600007D007D007D007D007E803D007D007D0C1
:1003700007D007FFFF01000B001E00D007D007D0F9
:1003800007D007D007D007D007E803D007D007D0A1
:1003900007FFFF01000B001E00D007D007D007D0D9
:1003A00007D007D007D007D007E803D007D007FF52
:1003B000FF01000B001E00D007D007D007D007D0E8
:1003C00007D007D007D007D007E803D007FFFF0109
:1003D000000B003C00D007D007D007D007D007D0D3
:1003E00007D007D007D007D007D007FFFF01000BC9
:1003F000000000FFFFFFFFFFFFFFFFFFFFFFFFFF0A
:10040000FFFFFFFFFFFFFFFFFFFFFF01000B000FDC
:1004100000D007D007D007D007D007D007D007D02B
:1004200007D007D007D007FFFF01000B000F00E83F
:1004300003D007D007D007D007D007D007D007D008
:1004400007D007D007FFFF01000B000F00D007E81F
:1004500003D007D007D007D007D007D007D007D0E8
:1004600007D007FFFF01000B000F00D007D007E8FF
:1004700003D007D007D007D007D007D007D007D0C8
:1004800007FFFF01000B000F00D007D007D007E8DF
:1004900003D007D007D007D007D007D007D007FF79
:1004A000FF01000B000F00D007D007D007D007E8EE
:1004B00003D007D007D007D007D007D007FFFF0130
:1004C000000B000F00D007D007D007D007D007E8F7
:1004D00003D007D007D007D007D007FFFF01000BDC
:1004E000000F00D007D007D007D007D007D007D023
:1004F00007D007D007D007E803FFFF01000B000774
:1005000000D007D007D007D007D007D007D007D03A
:1005100007D007D007D007FFFF01000B000F00D066
:1005200007D007D007D007D007D007E803D007D0FF
:1005300007D007D007FFFF01000B000F00D007D046
:1005400007D007D007D007D007D007E803D007D0DF
:1005500007D007FFFF01000B000F00D007D007D026
:1005600007D007D007D007D007D007E803D007D0BF
:1005700007FFFF01000B000F00D007D007D007D006
:1005800007D007D007D007D007D007E803D007FF70
:10059000FF01000B000F00D007D007D007D007D015
:1005A00007D007D007D007D007D007D007FFFF003C
:1005B0000000002D00D007D007D007D007D007D00B
:1005C00007D007D007D007D007D007FFFF01000BE7
:1005D000000F00D007D007D007D007D007D007D032
:1005E00007D007D007E803D007FFFF01000B000F7B
:1005F00000D007D007D007D007D007D007D007D04A
:1006000007E803D007D007FFFF01000B000F00D061
:1006100007D007D007D007D007D007D007E803D00E
:1006200007D007D007FFFF01000B000F00D007D055
:1006300007D007D007D007D007E803D007D007D0EE
:1006400007D007FFFF01000B000700D007D007D03D
:1006500007D007D007D007D007D007D007D007D0E2
:1006600007FFFF01000B000F00D007D007D007D015
:1006700007D007D007D007D007D007D007E803FF7F
:10068000FF01000B000F00D007D007D007D007D024
:1006900007E803D007D007D007D007D007FFFF0136
:1006A000000B000F00D007D007D007D007E803D019
:1006B00007D007D007D007D007D007FFFF01000BF6
:1006C000000F00D007D007D007E803D007D007D02D
:1006D00007D007D007D007D007FFFF01000B000F9E
:1006E00000D007D007E803D007D007D007D007D045
:1006F00007D007D007D007FFFF01000B000F00D085
:1007000007E803D007D007D007D007D007D007D01D
:1007100007D007D007FFFF01000B000F00E803D050
:1007200007D007D007D007D007D007D007D007D011
:1007300007D007FFFF01000B000F00D007D007D044
:1007400007D007D007D007D007D007D007D007D0F1
:1007500007FFFF01000B000000FFFFFFFFFFFFFF8F
:10076000FFFFFFFFFFFFFFFFFFFFFFFFFFFFFFFF99
:10077000FF01000B001400D007D007D007D007D02E
:1007800007D007D007D007D007D007D007FFFF0159
:10079000000B001400E803D007D007D007D007D023
:1007A00007D007D007D007D007D007FFFF01000B05
:1007B000001400E803E803D007D007D007D007D023
:1007C00007D007D007D007D007FFFF01000B0014A8
:1007D00000E803E803E803D007D007D007D007D02C
:1007E00007D007D007D007FFFF01000B001400E877
:1007F00003E803E803E803D007D007D007D007D009
:1008000007D007D007FFFF01000B001400E803E842
:1008100003E803E803E803D007D007D007D007D0E8
:1008200007D007FFFF01000B001400E803E803E80E
:1008300003E803E803E803D007D007D007D007D0C8
:1008400007FFFF01000B001400E803E803E803E8DA
:1008500003E803E803D007D007D007D007E803FF79
:10086000FF01000B001400E803E803E803E803E8D5
:1008700003E803D007D007D007D007E803FFFF0144
:10088000000B001400E803E803E803E803E803E8CA
:1008900003E803D007D007D007E803FFFF01000BF0
:1008A000001400E803E803E803E803E803E803E8CA
:1008B00003E803D007D007E803FFFF01000B001493
:1008C00000E803E803E803E803E803E803E803E8D3
:1008D00003E803D007E803FFFF01000B001400E862
:1008E00003E803E803E803E803E803E803E803E8B0
:1008F00003E803E803FFFF01000B005000E803E8F2
:1009000003E803E803E803E803E803E803E803E88F
:1009100003E803FFFF01000B001400D007E803E821
:1009200003E803E803E803E803E803E803E803E86F
:1009300003FFFF01000B001400D007D007E803E815
:1009400003E803E803E803E803E803E803E803FF38
:10095000FF01000B001400D007D007D007E803E820
:1009600003E803E803E803E803E803E803FFFF0103
:10097000000B001400D007D007D007D007E803E829
:1009800003E803E803E803E803E803FFFF01000BC3
:10099000001400D007D007D007D007D007E803E83D
:1009A00003E803E803E803E803FFFF01000B00147A
:1009B00000D007D007D007D007D007D007E803E85A
:1009C00003E803E803E803FFFF01000B001400D075
:1009D00007D007D007D007D007D007E803E803E81F
:1009E00003E803D007FFFF01000B001400D007D07D
:1009F00007D007D007D007D007E803E803E803E8EB
:100A000003D007FFFF01000B001400D007D007D070
:100A100007D007D007D007D007E803E803E803D0E2
:100A200007FFFF01000B001400D007D007D007D04C
:100A300007D007D007D007D007E803E803D007FFA7
:100A4000FF01000B001400D007D007D007D007D05B
:100A500007D007D007D007D007E803D007FFFF0073
:100A60000000002800D007D007D007D007D007D05B
:100A700007D007D007D007D007D007FFFF01000B32
:100A8000000000FFFFFFFFFFFFFFFFFFFFFFFFFF73
:100A9000FFFFFFFFFFFFFFFFFFFFFF01000B001441
:100AA00000D007D007D007D007D007D007D007D095
:100AB00007D007D007D007FFFF01000B003200E886
:100AC00003D007E803D007E803D007E803D007E81E
:100AD00003D007E803FFFF01000B003200D007E856
:100AE00003D007E803D007E803D007E803D007E8FE
:100AF00003D007FFFF01000B003200E803D007E836
:100B000003D007E803D007E803D007E803D007E8DD
:100B100003FFFF01000B003200D007E803D007E815
:100B200003D007E803D007E803D007E803D007FFA6
:100B3000FF01000B003200E803D007E803D007E80C
:100B400003D007E803D007E803D007E803FFFF015D
:100B5000000B003200D007E803D007E803D007E815
:100B600003D007E803D007E803D007FFFF01000B1D
:100B7000003200E803D007E803D007E803D007E815
:100B800003D007E803D007E803FFFF01000B0032A2
:100B900000D007E803D007E803D007E803D007E850
:100BA00003D007E803D007FFFF01000B003200E885
:100BB00003D007E803D007E803D007E803D007E82D
:100BC00003D007E803FFFF01000B003200D007E865
:100BD00003D007E803D007E803D007E803D007E80D
:100BE00003D007FFFF01000B003200E803D007E845
:100BF00003D007E803D007E803D007E803D007E8ED
:100C000003FFFF01000B003200D007E803D007E824
:100C100003D007E803D007E803D007E803D007FFB5
:100C2000FF01000B003200E803D007E803D007E81B
:100C300003D007E803D007E803D007E803FFFF016C
:100C4000000B003200D007E803D007E803D007E824
:100C500003D007E803D007E803D007FFFF01000B2C
:100C6000003200E803D007E803D007E803D007E824
:100C700003D007E803D007E803FFFF01000B0032B1
:100C800000D007E803D007E803D007E803D007E85F
:100C900003D007E803D007FFFF01000B003200E894
:100CA00003D007E803D007E803D007E803D007E83C
:100CB00003D007E803FFFF01000B003200D007E874
:100CC00003D007E803D007E803D007E803D007E81C
:100CD00003D007FFFF01000B003200E803D007E854
:100CE00003D007E803D007E803D007E803D007E8FC
:100CF00003FFFF01000B003200D007E803D007E834
:100D000003D007E803D007E803D007E803D007FFC4
:100D1000FF01000B003200E803D007E803D007E82A
:100D200003D007E803D007E803D007E803FFFF017B
:100D3000000B003200D007E803D007E803D007E833
:100D400003D007E803D007E803D007FFFF01000B3B
:100D5000003200E803D007E803D007E803D007E833
:100D600003D007E803D007E803FFFF01000B0032C0
:100D700000D007E803D007E803D007E803D007E86E
:100D800003D007E803D007FFFF01000B003200E8A3
:100D900003D007E803D007E803D007E803D007E84B
:100DA00003D007E803FFFF01000B003200D007E883
:100DB00003D007E803D007E803D007E803D007E82B
:100DC00003D007FFFF01000B003200E803D007E863
:100DD00003D007E803D007E803D007E803D007E80B
:100DE00003FFFF01000B003200D007E803D007E843
:100DF00003D007E803D007E803D007E803D007FFD4
:100E0000FF01000B003200E803D007E803D007E839
:100E100003D007E803D007E803D007E803FFFF018A
:100E2000000B003200D007E803D007E803D007E842
:100E300003D007E803D007E803D007FFFF01000B4A
:100E4000006400D007D007D007D007D007D007D064
:100E500007D007D007D007D007FFFF01000B000025
:100E600000FFFFFFFFFFFFFFFFFFFFFFFFFFFFFF91
:100E7000FFFFFFFFFFFFFFFFFF01000B001400D08B
:100E800007D007D007D007D007D007D007D007D0AA
:100E900007D007D007FFFF01000B002D00D007D0BF
:100EA00007D007D007D007D007E803D007D007D076
:100EB00007D007FFFF01000B002D00D007D007D09F
:100EC00007D007D007D007E803E803D007D007D042
:100ED00007FFFF01000B002D00D007D007D007D07F
:100EE00007D007D007E803E803E803D007D007FFDF
:100EF000FF01000B002D00D007D007D007D007D08E
:100F000007D007E803E803E803E803D007FFFF0181
:100F1000000B002D00D007D007D007D007D007D096
:100F200007E803E803E803D007D007FFFF01000B41
:100F3000002D00D007D007D007D007D007D007E892
:100F400003E803D007D007D007FFFF01000B002DF7
:100F500000D007D007D007D007D007D007E803D0CC
:100F600007D007D007D007FFFF01000B002D00D0EE
:100F700007D007D007D007D007D007D007D007D0B9
:100F800007D007D007FFFF01000B002D00E803D0BA
:100F900007D007D007D007D007D007D007D007D099
:100FA00007D007FFFF01000B002D00E803E803D086
:100FB00007D007D007D007D007D007D007D007D079
:100FC00007FFFF01000B002D00E803E803E803D052
:100FD00007D007D007D007D007D007D007D007FF2A
:100FE000FF01000B002D00E803E803E803E803D04D
:100FF00007D007D007D007D007D007D007FFFF01E1
:10100000000B002D00D007E803E803E803D007D069
:1010100007D007D007D007D007D007FFFF01000B8C
:10102000002D00D007D007E803E803D007D007D091
:1010300007D007D007D007D007FFFF01000B002D16
:1010400000D007D007D007E803D007D007D007D0DB
:1010500007D007D007D007FFFF01000B002D00D0FD
:1010600007D007D007D007D007D007D007D007D0C8
:1010700007D007D007FFFF01000B002D00D007D0DD
:1010800007D007D007D007D007E803D007E803D080
:1010900007D007FFFF01000B002D00D007D007D0BD
:1010A00007D007D007D007D007D007D007D007D088
:1010B00007FFFF01000B002D00D007D007D007D09D
:1010C00007D007D007D007E803D007E803D007FF11
:1010D000FF01000B002D00D007D007D007D007D0AC
:1010E00007D007D007D007D007D007D007FFFF01F0
:1010F000000B002D00D007D007D007D007D007D0B5
:1011000007E803E803E803E803D007FFFF01000B4B
:10111000002D00D007D007D007D007D007D007D0C8
:1011200007E803D007E803D007FFFF01000B002DFD
:1011300000D007D007D007D007D007D007E803D0EA
:1011400007E803D007D007FFFF01000B002D00D0F8
:1011500007D007D007D007D007D007D007D007D0D7
:1011600007D007D007FFFF01000B002D00D007D0EC
:1011700007D007D007E803E803D007D007D007D08F
:1011800007E803FFFF01000B002D00D007D007D0B8
:1011900007D007D007D007D007D007D007D007D097
:1011A00007FFFF01000B002D00D007D007D007D0AC
:1011B00007D007E803D007D007D007D007D007FF34
:1011C000FF01000B002D00D007D007D007D007D0BB
:1011D00007D007D007D007D007D007D007FFFF01FF
:1011E000000B002D00E803E803E803E803E803E848
:1011F00003D007D007D007D007E803FFFF01000B9B
:10120000002D00D007E803E803E803E803E803D073
:1012100007D007D007D007E803FFFF01000B002D20
:1012200000D007D007D007E803E803E803D007D0D1
:1012300007D007D007E803FFFF01000B002D00D007
:1012400007D007D007D007D007D007D007D007D0E6
:1012500007D007D007FFFF01000B002D00D007E8E3
:1012600003D007E803D007D007D007D007D007D0B6
:1012700007D007FFFF01000B002D00D007D007D0DB
:1012800007D007D007D007D007D007D007D007D0A6
:1012900007FFFF01000B002D00E803D007E803D093
:1012A00007D007D007D007D007D007D007D007FF57
:1012B000FF01000B002D00D007D007D007D007D0CA
:1012C00007D007D007D007D007D007D007FFFF010E
:1012D000000B002D00D007D007D007D007D007D0D3
:1012E00007D007E803D007E803D007FFFF01000B92
:1012F000002D00D007D007D007D007D007D007E8CF
:1013000003D007E803D007D007FFFF01000B002D33
:1013100000D007D007D007D007D007D007D007E804
:1013200003D007E803D007FFFF01000B002D00D01A
:1013300007D007D007D007D007D007D007D007D0F5
:1013400007D007D007FFFF01000B002D00D007D00A
:1013500007D007D007D007D007E803E803E803E881
:1013600003D007FFFF01000B002D00D007D007D0EE
:1013700007D007D007D007D007E803D007E803D08D
:1013800007FFFF01000B002D00D007D007D007D0CA
:1013900007D007D007E803D007E803D007D007FF3E
:1013A000FF01000B002D00D007D007D007D007D0D9
:1013B00007D007D007E803D007E803D007FFFF01F5
:1013C000000B002D00D007D007D007D007D007D0E2
:1013D00007E803D007E803D007D007FFFF01000BA1
:1013E000002D00D007D007D007D007D007D007D0F6
:1013F00007E803D007E803D007FFFF01000B002D2B
:1014000000E803D007E803D007E803D007E803D0DB
:1014100007E803D007E803FFFF01000B002D00D011
:1014200007D007D007D007D007D007D007D007D004
:1014300007D007D007FFFF01000B002D00D007D019
:1014400007D007D007D007D007E803D007E803D0BC
:1014500007D007FFFF01000B002D00D007D007D0F9
:1014600007D007D007D007D007E803D007E803D09C
:1014700007FFFF01000B002D00D007D007D007D0D9
:1014800007D007D007E803D007E803D007D007FF4D
:10149000FF01000B002D00D007D007D007D007D0E8
:1014A00007D007D007E803D007E803D007FFFF0104
:1014B000000B002D00E803D007E803D007E803D0B5
:1014C00007E803D007E803D007E803FFFF01000B9C
:1014D000002D00D007E803D007E803D007E803D0C9
:1014E00007E803D007E803D007FFFF01000B002D3A
:1014F00000E803D007E803D007E803D007E803D0EB
:1015000007E803D007E803FFFF01000B002D00D020
:1015100007D007D007D007D007D007D007D007D013
:1015200007D007D007FFFF01000B002D00E803E8FC
:1015300003D007D007D007D007D007D007D007D0F7
:1015400007D007FFFF01000B002D00D007D007E8F0
:1015500003E803D007D007D007D007D007D007D0C3
:1015600007FFFF01000B002D00D007D007D007D0E8
:1015700007E803E803D007D007D007D007D007FF5C
:10158000FF01000B002D00D007D007D007D007D0F7
:1015900007D007D007D007D007D007E803FFFF0127
:1015A000000B002D00E803E803D007D007E803E8AC
:1015B00003D007D007E803E803D007FFFF01000BC3
:1015C000002D00D007D007E803E803D007D007E8D4
:1015D00003E803D007D007E803FFFF01000B002D4D
:1015E00000E803E803D007D007E803E803D007D0FA
:1015F00007E803E803D007FFFF01000B002D00D030
:1016000007D007D007D007D007D007D007D007D022
:1016100007D007D007FFFF01000B002D00E803D023
:1016200007D007D007D007D007D007D007D007D002
:1016300007D007FFFF01000B002D00D007D007D017
:1016400007D007D007D007D007D007D007D007D0E2
:1016500007FFFF01000B002D00D007E803D007D0E3
:1016600007D007D007D007D007D007D007D007FF93
:10167000FF01000B002D00D007D007D007D007D006
:1016800007D007D007D007D007D007D007FFFF014A
:10169000000B002D00E803E803E803D007D007D0D3
:1016A00007D007D007D007D007D007FFFF01000BF6
:1016B000002D00D007E803E803D007D007D007D0FB
:1016C00007D007D007D007D007FFFF01000B002D80
:1016D00000D007D007E803D007D007D007D007D045
:1016E00007D007D007D007FFFF01000B002D00D067
:1016F00007D007D007D007D007D007D007D007D032
:1017000007D007D007FFFF01000B002D00D007D046
:1017100007D007D007D007D007E803D007E803D0E9
:1017200007D007FFFF01000B002D00D007D007D026
:1017300007D007D007D007D007D007D007D007D0F1
:1017400007FFFF01000B002D00D007D007D007D006
:1017500007D007D007D007E803D007E803D007FF7A
:10176000FF01000B002D00D007D007D007D007D015
:1017700007D007D007D007D007D007D007FFFF0159
:10178000000B002D00D007D007D007D007D007D01E
:1017900007E803D007E803D007D007FFFF01000BDD
:1017A000002D00D007D007D007D007D007D007D032
:1017B00007E803D007E803D007FFFF01000B002D67
:1017C00000D007D007D007D007D007D007E803D054
:1017D00007E803D007D007FFFF01000B002D00D062
:1017E00007D007D007D007D007D007D007D007D041
:1017F00007D007D007FFFF01000B002D00E803D042
:1018000007E803D007E803D007E803D007E803D0D0
:1018100007D007FFFF01000B002D00D007D007D035
:1018200007D007D007D007D007D007D007D007D000
:1018300007FFFF01000B002D00D007E803D007E8E9
:1018400003D007E803D007E803D007E803D007FF79
:10185000FF01000B002D00D007D007D007D007D024
:1018600007D007D007D007D007D007D007FFFF0168
:10187000000B002D00E803E803E803E803E803E8B1
:1018800003E803E803E803E803E803FFFF01000BB4
:10189000002D00D007D007D007D007D007D007E829
:1018A00003E803E803E803D007FFFF01000B002D66
:1018B00000E803E803E803E803E803E803D007D0FF
:1018C00007D007D007E803FFFF01000B002D00D071
:1018D00007D007D007D007D007D007D007FFFFD029
:1018E00007D007D007FFFF01000B000000FFFFFF3C
:1018F000FFFFFFFFFFFFFFFFFFFFFFFFFFFFFFFFF8
:10190000FFFFFFFFFF01000B006400D007D007D0EE
:1019100007D007D007D007D007D007D007D007D00F
:1019200007FFFF01000B000000FFFFFFFFFFFFFFAD
:10193000FFFFFFFFFFFFFFFFFFFFFFFFFFFFFFFFB7
:10194000FF01000B000F00D007D007D007D007D051
:1019500007D007D007D007D007D007D007FFFF0177
:10196000000B000F00E803D007D007D007D007D046
:1019700007D007D007D007D007D007FFFF01000B23
:10198000000F00D007E803D007D007D007D007D05A
:1019900007D007D007D007D007FFFF01000B000FCB
:1019A00000D007D007E803D007D007D007D007D072
:1019B00007D007D007D007FFFF01000B000F00D0B2
:1019C00007D007D007E803D007D007D007D007D04B
:1019D00007D007D007FFFF01000B000F00D007D092
:1019E00007D007D007E803D007D007D007D007D02B
:1019F00007D007FFFF01000B000F00D007D007D072
:101A000007D007D007E803D007D007D007D007D00A
:101A100007FFFF01000B000F00D007D007D007D051
:101A200007D007D007D007D007D007D007E803FFBB
:101A3000FF01000B000700D007D007D007D007D068
:101A400007D007D007D007D007D007D007FFFF0186
:101A5000000B000F00D007D007D007D007D007D069
:101A600007E803D007D007D007D007FFFF01000B1E
:101A7000000F00D007D007D007D007D007D007D07D
:101A800007E803D007D007D007FFFF01000B000FC6
:101A900000D007D007D007D007D007D007D007D095
:101AA00007E803D007D007FFFF01000B000F00D0AD
:101AB00007D007D007D007D007D007D007D007D06E
:101AC00007E803D007FFFF01000B000F00D007D08D
:101AD00007D007D007D007D007D007D007D007D04E
:101AE00007D007FFFF000000002D00D007D007D06F
:101AF00007D007D007D007D007D007D007D007D02E
:101B000007FFFF01000B000F00D007D007D007D060
:101B100007D007D007D007D007D007E803D007FFCA
:101B2000FF01000B000F00D007D007D007D007D06F
:101B300007D007D007D007E803D007D007FFFF0181
:101B4000000B000F00D007D007D007D007D007D078
:101B500007D007E803D007D007D007FFFF01000B2D
:101B6000000F00D007D007D007D007D007D007E874
:101B700003D007D007D007D007FFFF01000B0007F5
:101B800000D007D007D007D007D007D007D007D0A4
:101B900007D007D007D007FFFF01000B000F00D0D0
:101BA00007D007D007D007D007D007D007D007D07D
:101BB00007D007E803FFFF01000B000F00D007D09C
:101BC00007D007D007D007E803D007D007D007D049
:101BD00007D007FFFF01000B000F00D007D007D090
:101BE00007D007E803D007D007D007D007D007D029
:101BF00007FFFF01000B000F00D007D007D007E858
:101C000003D007D007D007D007D007D007D007FFF1
:101C1000FF01000B000F00D007D007E803D007D06A
:101C200007D007D007D007D007D007D007FFFF01A4
:101C3000000B000F00D007E803D007D007D007D073
:101C400007D007D007D007D007D007FFFF01000B50
:101C5000000F00E803D007D007D007D007D007D087
:101C600007D007D007D007D007FFFF01000B000FF8
:101C700000D007D007D007D007D007D007D007D0B3
:101C800007D007D007D007FFFF01000B00A08CFF93
:101C9000FFFFFFFFFFFFFFFFFFFFFFFFFFFFFFFF54
:101CA000FFFFFFFFFFFFFF01000B003408FFFFFFF6
:101CB000FFFFFFFFFFFFFFFFFFFFFFFFFFFFFFFF34
:101CC000FFFFFFFFFF01000B000000FFFFFFFFFF12
:101CD000FFFFFFFFFFFFFFFFFFFFFFFFFFFFFFFF14
:101CE000FFFFFF01000B001400D007D007D007D082
:101CF00007D007D007D007D007D007D007D007FFFD
:101D0000FF01000B004B00E803E803D007D007D029
:101D100007D007D007D007D007D007D007FFFF01B3
:101D2000000B001400D007D007D007D007D007D091
:101D300007D007D007D007D007D007FFFF01000B5F
:101D4000001400E803E803D007D007D007D007D07D
:101D500007D007D007D007D007FFFF01000B001402
:101D600000D007D007D007D007D007D007D007D0C2
:101D700007D007D007D007FFFF01000B001400E8D1
:101D800003E803D007D007D007D007D007D007D08B
:101D900007D007D007FFFF01000B004B00D007D092
:101DA00007D007D007D007D007D007D007D007D07B
:101DB00007D007FFFF01000B000000FFFFFFFFFF40
:101DC000FFFFFFFFFFFFFFFFFFFFFFFFFFFFFFFF23
:101DD000FFFFFF01000B001400D007D007D007D091
:101DE00007D007D007D007D007D007D007D007FF0C
:101DF000FF01000B003200E803E803E803E803E812
:101E000003E803E803E803E803E803E803FFFF014E
:101E1000000B000E00D007D007D007D007D007D0A6
:101E200007D007D007D007D007D007FFFF01000B6E
:101E3000000E00E803E803E803E803E803E803E82A
:101E400003E803E803E803E803FFFF01000B000ECB
:101E500000D007D007D007D007D007D007D007D0D1
:101E600007D007D007D007FFFF01000B000E00E8E6
:101E700003E803E803E803E803E803E803E803E80A
:101E800003E803E803FFFF01000B000E00D007D0BA
:101E900007D007D007D007D007D007D007D007D08A
:101EA00007D007FFFF01000B000E00E803E803E87E
:101EB00003E803E803E803E803E803E803E803E8CA
:101EC00003FFFF01000B003200D007D007D007D07E
:101ED00007D007D007D007D007D007D007D007FF1B
:101EE000FF01000B000000FFFFFFFFFFFFFFFFFFF0
:101EF000FFFFFFFFFFFFFFFFFFFFFFFFFFFFFF01F0
:101F0000000B005302D007D007D007D007D007D06E
:101F100007D007D007D007D007D007FFFF01000B7D
:101F2000001E00E803E803E803E803E803E803E829
:101F300003E803E803E803E803FFFF01000B001ECA
:101F400000D007D007D007D007D007D007D007D0E0
:101F500007D007D007D007FFFF01000B001E00E8E5
:101F600003E803E803E803E803E803E803E803E819
:101F700003E803E803FFFF01000B001E00D007D0B9
:101F800007D007D007D007D007D007D007D007D099
:101F900007D007FFFF01000B001E00E803E803E87D
:101FA00003E803E803E803E803E803E803E803E8D9
:101FB00003FFFF01000B005F00D007D007D007D060
:101FC00007D007D007D007D007D007D007D007FF2A
:101FD000FF01000B001E00E803E803E803E803E844
:101FE00003E803E803E803E803E803E803FFFF016D
:101FF000000B005F00D007D007D007D007D007D074
:1020000007D007D007D007D007D007FFFF01000B8C
:10201000001E00E803E803E803E803E803E803E838
:1020200003E803E803E803E803FFFF01000B005F98
:1020300000D007D007D007D007D007D007D007D0EF
:1020400007D007D007D007FFFF01000B001E00E8F4
:1020500003E803E803E803E803E803E803E803E828
:1020600003E803E803FFFF01000B001E00D007D0C8
:1020700007D007D007D007D007D007D007D007D0A8
:1020800007D007FFFF01000B001E00E803E803E88C
:1020900003E803E803E803E803E803E803E803E8E8
:1020A00003FFFF01000B001E00D007D007D007D0B0
:1020B00007D007D007D007D007D007D007D007FF39
:1020C000FF01000B001E00E803E803E803E803E853
:1020D00003E803E803E803E803E803E803FFFF017C
:1020E000000B005F00D007D007D007D007D007D083
:1020F00007D007D007D007D007D007FFFF01000B9C
:10210000001E00E803E803E803E803E803E803E847
:1021100003E803E803E803E803FFFF01000B005FA7
:1021200000D007D007D007D007D007D007D007D0FE
:1021300007D007D007D007FFFF01000B001E00E803
:1021400003E803E803E803E803E803E803E803E837
:1021500003E803E803FFFF01000B005F00D007D096
:1021600007D007D007D007D007D007D007D007D0B7
:1021700007D007FFFF01000B001E00E803E803E89B
:1021800003E803E803E803E803E803E803E803E8F7
:1021900003FFFF01000B001E00D007D007D007D0BF
:1021A00007D007D007D007D007D007D007D007FF48
:1021B000FF01000B001E00E803E803E803E803E862
:1021C00003E803E803E803E803E803E803FFFF018B
:1021D000000B001E00D007D007D007D007D007D0D3
:1021E00007D007D007D007D007D007FFFF01000BAB
:1021F000001E00E803E803E803E803E803E803E857
:1022000003E803E803E803E803FFFF01000B005FB6
:1022100000D007D007D007D007D007D007D007D00D
:1022200007D007D007D007FFFF01000B001E00E812
:1022300003E803E803E803E803E803E803E803E846
:1022400003E803E803FFFF01000B005F00D007D0A5
:1022500007D007D007D007D007D007D007D007D0C6
:1022600007D007FFFF01000B001E00E803E803E8AA
:1022700003E803E803E803E803E803E803E803E806
:1022800003FFFF01000B005F00D007D007D007D08D
:1022900007D007D007D007D007D007D007D007FF57
:1022A000FF01000B001E00E803E803E803E803E871
:1022B00003E803E803E803E803E803E803FFFF019A
:1022C000000B001E00D007D007D007D007D007D0E2
:1022D00007D007D007D007D007D007FFFF01000BBA
:1022E000001E00E803E803E803E803E803E803E866
:1022F00003E803E803E803E803FFFF01000B001E07
:1023000000D007D007D007D007D007D007D007D01C
:1023100007D007D007D007FFFF01000B001E00E821
:1023200003E803E803E803E803E803E803E803E855
:1023300003E803E803FFFF01000B005F00D007D0B4
:1023400007D007D007D007D007D007D007D007D0D5
:1023500007D007FFFF01000B001E00E803E803E8B9
:1023600003E803E803E803E803E803E803E803E815
:1023700003FFFF01000B005F00D007D007D007D09C
:1023800007D007D007D007D007D007D007D007FF66
:10239000FF01000B001E00E803E803E803E803E880
:1023A00003E803E803E803E803E803E803FFFF01A9
:1023B000000B005F00D007D007D007D007D007D0B0
:1023C00007D007D007D007D007D007FFFF01000BC9
:1023D000001E00E803E803E803E803E803E803E875
:1023E00003E803E803E803E803FFFF01000B001E16
:1023F00000D007D007D007D007D007D007D007D02C
:1024000007D007D007D007FFFF01000B001E00E830
:1024100003E803E803E803E803E803E803E803E864
:1024200003E803E803FFFF01000B001E00D007D004
:1024300007D007D007D007D007D007D007D007D0E4
:1024400007D007FFFF01000B001E00E803E803E8C8
:1024500003E803E803E803E803E803E803E803E824
:1024600003FFFF01000B005F00D007D007D007D0AB
:1024700007D007D007D007D007D007D007D007FF75
:10248000FF01000B001E00E803E803E803E803E88F
:1024900003E803E803E803E803E803E803FFFF01B8
:1024A000000B005F00D007D007D007D007D007D0BF
:1024B00007D007D007D007D007D007FFFF01000BD8
:1024C000001E00E803E803E803E803E803E803E884
:1024D00003E803E803E803E803FFFF01000B005FE4
:1024E00000D007D007D007D007D007D007D007D03B
:1024F00007D007D007D007FFFF01000B001E00E840
:1025000003E803E803E803E803E803E803E803E873
:1025100003E803E803FFFF01000B001E00D007D013
:1025200007D007D007D007D007D007D007D007D0F3
:1025300007D007FFFF01000B001E00E803E803E8D7
:1025400003E803E803E803E803E803E803E803E833
:1025500003FFFF01000B001E00D007D007D007D0FB
:1025600007D007D007D007D007D007D007D007FF84
:10257000FF01000B001E00E803E803E803E803E89E
:1025800003E803E803E803E803E803E803FFFF01C7
:10259000000B005F00D007D007D007D007D007D0CE
:1025A00007D007D007D007D007D007FFFF01000BE7
:1025B000001E00E803E803E803E803E803E803E893
:1025C00003E803E803E803E803FFFF01000B005FF3
:1025D00000D007D007D007D007D007D007D007D04A
:1025E00007D007D007D007FFFF01000B001E00E84F
:1025F00003E803E803E803E803E803E803E803E883
:1026000003E803E803FFFF01000B005F00D007D0E1
:1026100007D007D007D007D007D007D007D007D002
:1026200007D007FFFF01000B000000FFFFFFFFFFC7
:10263000FFFFFFFFFFFFFFFFFFFFFFFFFFFFFFFFAA
:10264000FFFFFF01000B004F4B0A0D000A0D4D610B
:1026500072634475696E6F204D6173746572207684
:10266000332E36200A0D00456E7465722070616E3F
:10267000656C20636F6D6D616E642073746172743C
:10268000696E67207769746820273A27200A0D0051
:10269000496E697469616C697A696E672E2E2E0DB8
:1026A0000A000A0D73756172743120436F6D6D7588
:1026B0006E69636174696F6E204F4B200A0D000ACA
:1026C0000D73756172743220436F6D6D756E696341
:1026D0006174696F6E204F4B200A0D0000C201002B
:1026E0000100110011000C0000E100000A002500AB
:1026F000250021000096000019003900390036003D
:10270000127A00001F00460046004400807000005E
:1027100022004D004D004A00004B000036007500BD
:1027200075007200403800004A009C009C0099002F
:10273000802500007200EC00EC00E900C0120000EF
:10274000E900DA01DA01D70160090000D701B60318
:10275000B603B303B0040000B3036E076E076B0744
:102760002C010000DC0EC11DC11DBE1D6364696E1D
:102770006F70737578585B0011241FBECFEFD8E0DF
:10278000DEBFCDBF13E0A0E0B1E0E0E0FDE602C0B7
:1027900005900D92AE3AB107D9F716E0AEEAB3E074
:1027A00001C01D92AB35B107E1F70E9499230C944B
:1027B0007E360C940000109207041092060481E00B
:1027C0008093B00308951092B00310920704109202
:1027D0000604089580EB94E0909307048093060428
:1027E0008091B0038093BB031092B0030895809151
:1027F000BB038093B0030895CF93DF93EC0140E0D7
:1028000050E022E030E0FE01E20FF31F8081480F2C
:10281000511D2F5F3F4F28303105A9F7852F809537
:102820008F83842F8095888788810E94702D89816D
:102830000E94702D8A810E94702D8B810E94702DC4
:102840008C810E94702D8D810E94702D8E810E943E
:10285000702D8F810E94702D88850E94702D898532
:102860000E94702DDF91CF91089580932C0386E212
:1028700093E00E94FC13089580E393E00E94FC1310
:10288000089590933F03809340038AE393E00E946E
:10289000FC1308950E94702D08951F93182F8091A6
:1028A000B103882321F0812F0E94351406C086E7EA
:1028B0000E94702D812F0E94702D1F91089580918C
:1028C000B103882311F081E001C084E680934403C2
:1028D000809144030E944D1408958091B103882390
:1028E00021F08EE18093440302C010924403809152
:1028F00044030E944D1408958091B103882319F078
:102900001092440303C08EEF8093440380914403EC
:102910000E944D1408958091B103882311F08FE037
:1029200001C082E380934403809144030E944D14CC
:1029300008958091B10320914403882391F02223CC
:1029400021F0822F90E0039724F481E080934403E8
:1029500003C0225020934403809144030E94351405
:102960000895253630F484E690E0821B910905979E
:1029700024F484E68093440303C02B5F2093440334
:10298000809144030E944D1408958091B103909169
:102990004403882381F09E3110F49D3121F48EE1AF
:1029A0008093440303C09E5F90934403809144034B
:1029B0000E9435140895992311F0953018F410925F
:1029C000440303C0955090934403809144030E94B4
:1029D0004D1408951F93CF93DF93282F8A3008F06A
:1029E00053C0882311F4162F40C06A3108F04CC040
:1029F0006623E9F0282F30E0695189E190E0AC01CD
:102A0000249FC001259F900D349F900D1124162FF7
:102A1000180F675EF901E756FC4FE081D901AE540B
:102A2000BC4FE61710F4EC9320C06C931EC08530A9
:102A300010F0E1E013C0A82FB0E0ED01CE54DC4F60
:102A400088818F5F8883FD01E756FC4F908198173E
:102A500010F481E08883AE54BC4FEC9189E1289F4B
:102A6000C0011124182F19511E0F8091B103882322
:102A700029F0812F90E00E94411406C084E70E9453
:102A8000702D812F0E94702DDF91CF911F9108959D
:102A90008091B103882319F00E943C14089580E0CE
:102AA0006CEF0E94EA14089580E0609109040E948E
:102AB000EA14089561E070E080E090E023E330E004
:102AC00040E050E00E947B2E643110F481E012C09F
:102AD000962F9351933110F482E00BC0962F9552AC
:102AE000983010F483E005C0962F9C52953028F45E
:102AF00084E0692F0E94EA1408956053643018F44A
:102B000085E00E94EA1408958091B0038823E1F0E3
:102B10008091060490910704892BB1F480910604FA
:102B200090910704892B81F40E945A1568E572E0A0
:102B300080E090E028EE33E040E050E00E947B2E01
:102B4000709307046093060408951F93CF93DF9357
:102B5000EC01DC010D900020E9F71197A81BB90BDF
:102B60008881843209F007C18A2F8250833008F0AF
:102B700002C11981812F90E0C0970A9790F41092BA
:102B8000B0031092070410920604A33010F460E022
:102B900005C0CE0102960E94F22F682F812F80532C
:102BA000E7C01235C9F11335F0F4163409F493C0B7
:102BB000173480F4133409F459C0143438F41B3238
:102BC00009F4B6C01D3209F0D6C0B5C0143409F0FE
:102BD000D2C092C01D3409F4C3C01F3419F11C3493
:102BE00009F0C9C028C0163609F4ABC0173650F436
:102BF000173509F4ACC0133609F44BC0133509F08E
:102C0000BAC05AC0103709F49FC0133709F487C0FF
:102C10001D3609F0B0C092C010920704109206044D
:102C200081E021C01092B0031092070410920604B4
:102C30000E947C14A4C080EB94E0909307048093DE
:102C400006048091B0038093BB031092B00387E029
:102C500061E00E94EA1480E391E19093070480937D
:102C600006048091BB038093B00389C080EB94E09D
:102C700090930704809306048091B0038093BB0374
:102C80001092B00388E065E00E94EA1480EE95E1BE
:102C9000E4CF80EB94E09093070480930604809146
:102CA000B0038093BB031092B00388E061E00E9400
:102CB000EA148CE89AE0D1CF80EB94E0909307047B
:102CC000809306048091B0038093BB031092B003FD
:102CD00086E061E00EC080EB94E09093070480935F
:102CE00006048091B0038093BB031092B00386E08A
:102CF00063E00E94EA14B5CF80EB94E09093070460
:102D0000809306048091B0038093BB031092B003BC
:102D100088E066E00E94EA1480EB9AE99ECF109268
:102D2000B00310920704109206040E94481527C0B1
:102D30000E94C51424C00E94991421C00E948B14C3
:102D40001EC00E946D141BC00E945F1418C0109218
:102D5000B003109207041092060488E062E008C0F5
:102D60001092B003109207041092060488E063E00A
:102D70000E94EA1404C082EE90E00E942829DF91AC
:102D8000CF911F910895DF93CF93CDB7DEB72A97E8
:102D90000FB6F894DEBF0FBECDBF8093B10388237A
:102DA00081F08FE080934403DE011196E2EAF3E0C4
:102DB0008AE001900D928150E1F7CE0101960E94C8
:102DC000FC13E2EBF3E0119283E0EB3BF807D9F759
:102DD0000E948B1480910904882311F00E945415DD
:102DE00086E094E00E947C252A960FB6F894DEBF18
:102DF0000FBECDBFCF91DF910895FC011082758386
:102E00006483738362834183478346830895FC010F
:102E100090818181981710F080E00895A481B58198
:102E20006D938781815019F48181A81BB109878333
:102E3000B583A4839FB7F89480818F5F80839FBF01
:102E400081E00895FC0180818823E9F3A281B381A8
:102E50002D918681815019F48181A81BB109B3831A
:102E6000A28386839FB7F8948081815080839FBF1F
:102E7000822F0895FC018081882319F42FEF3FEF02
:102E800013C0A281B3812D918681815019F4818173
:102E9000A81BB109B383A28386839FB7F89480816E
:102EA000815080839FBF30E0C9010895FC0180817B
:102EB00020E030E0882311F021E030E0C9010895DE
:102EC0008093BC0082E390E090930B0480930A040B
:102ED0000DC080910A0490910B04892B39F48091E4
:102EE000B900887F8093BC0381E008958091BC0085
:102EF00087FFEFCF8091B900887F8093BC0380E08B
:102F000008958091BC0308951092BC00089584E94F
:102F10008093BC0082E390E090930B0480930A04BA
:102F20000DC080910A0490910B04892B39F4809193
:102F3000B900887F8093BC0381E008958091BC0034
:102F400084FDEFCF8091B900887F8093BC0380E03F
:102F500008950F931F93182F062F84EA0E9460177D
:102F60008823C1F48091BC03883011F0803191F442
:102F7000110F102B1093BB0084E80E946017882368
:102F800049F48091BC03013019F4803439F002C057
:102F9000883121F00E94871781E001C080E01F91F5
:102FA0000F9108958093BB0084E80E9460178823E6
:102FB00021F00E94871781E008958091BC03883238
:102FC00011F480E008950E94871781E00895CF935F
:102FD000DF93EC01662311F484EC01C084E80E94C5
:102FE0006017882321F00E94871781E004C0809138
:102FF000BB00888380E0DF91CF910895FF920F930B
:103000001F93CF93DF93EB01042FF22E611571050F
:1030100011F0442319F40E94871715C060E00E9444
:10302000A917882381F410E006C089910E94D21765
:10303000882349F41F5F1017C0F3FF2011F00E948E
:10304000871780E001C081E0DF91CF911F910F9140
:10305000FF9008958F929F92BF92CF92DF92EF924E
:10306000FF920F931F93DF93CF930F92CDB7DEB7ED
:103070006B01142F6115710549F1442339F161E0A9
:103080000E94A917882311F5BB24E12EFF24089480
:10309000E108F1084E010894811C911C0CC0C40188
:1030A00060E00E94E717882389F40C0D1D1D8981BB
:1030B000F8018083B3940B2D10E00E151F057CF3EF
:1030C000C40161E00E94E717882321F00E9487175E
:1030D00081E008C00C0D1D1D8981F80180830E94CC
:1030E000871780E00F90CF91DF911F910F91FF9094
:1030F000EF90DF90CF90BF909F908F9008951092A7
:10310000B90098E49093B800882311F0449A459A46
:103110008FEF8093BB0084E08093BC008AE094E052
:103120000E947C2508958C3088F4882349F4ECE0D3
:10313000F4E081E0819394E0E731F907D9F708954D
:10314000E82FF0E0E55FFB4F81E080830895EF9288
:10315000FF920F931F93DF93CF93CDB7DEB72897DE
:103160000FB6F894DEBF0FBECDBF7C0100D000D0FB
:1031700000D0EDB7FEB731968E010F5F1F4FADB790
:10318000BEB712961C930E93119780E091E0938343
:103190008283648315820E945430F70180818A8380
:1031A00081818B838DB79EB706960FB6F8949EBF2C
:1031B0000FBE8DBFC8010E94E82C28960FB6F89468
:1031C000DEBF0FBECDBFCF91DF911F910F91FF905A
:1031D000EF9008950F931F93DF93CF93CDB7DEB792
:1031E00028970FB6F894DEBF0FBECDBF00D000D039
:1031F00000D0EDB7FEB731968E010F5F1F4FADB710
:10320000BEB712961C930E93119728E031E03383DA
:103210002283848315820E9454308DB79EB7069610
:103220000FB6F8949EBF0FBE8DBFC8010E94E82C58
:1032300028960FB6F894DEBF0FBECDBFCF91DF91B9
:103240001F910F9108950F931F93DF93CF93CDB7E5
:10325000DEB728970FB6F894DEBF0FBECDBF00D003
:1032600000D000D0EDB7FEB731968E010F5F1F4F33
:10327000ADB7BEB712961C930E93119780E191E003
:1032800093838283158214820E9454308DB79EB737
:1032900006960FB6F8949EBF0FBE8DBFC8010E9460
:1032A000E82C84EF91E020E931E0F9013197F1F762
:1032B0000197D9F728960FB6F894DEBF0FBECDBFA1
:1032C000CF91DF911F910F9108950F931F93DF937B
:1032D000CF93CDB7DEB728970FB6F894DEBF0FBEF9
:1032E000CDBF00D000D000D0EDB7FEB731968E0133
:1032F0000F5F1F4FADB7BEB712961C930E93119779
:1033000020E131E033832283848315820E9454308C
:103310008DB79EB706960FB6F8949EBF0FBE8DBFB1
:10332000C8010E94E82C84EF91E020E931E0F90126
:103330003197F1F70197D9F728960FB6F894DEBFC9
:103340000FBECDBFCF91DF911F910F91089589E1FD
:1033500091E00E94E82C84EF91E020E931E0F9014E
:103360003197F1F70197D9F708958FE191E00E9425
:10337000E82C84EF91E020E931E0F9013197F1F791
:103380000197D9F7089585E291E00E94E82C84EF37
:1033900091E020E931E0F9013197F1F70197D9F790
:1033A0000895FF920F931F93DF93CF93CDB7DEB7AE
:1033B00028970FB6F894DEBF0FBECDBFF82E00D011
:1033C00000D000D0EDB7FEB731968E010F5F1F4FD2
:1033D000ADB7BEB712961C930E9311978BE291E096
:1033E00093838283F48215820E9454308DB79EB7F6
:1033F00006960FB6F8949EBF0FBE8DBFC8010E94FF
:10340000E82C92E0F91619F484E391E002C08AE313
:1034100091E00E94E82C84EF91E020E931E0F9018D
:103420003197F1F70197D9F728960FB6F894DEBFD8
:103430000FBECDBFCF91DF911F910F91FF900895E7
:1034400080E491E00E94E82C88EE93E020E931E0EE
:10345000F9013197F1F70197D9F7089588E491E0E0
:103460000E94E82C88EE93E020E931E0F9013197E1
:10347000F1F70197D9F708958EE491E00E94E82CC6
:1034800088EE93E020E931E0F9013197F1F70197F7
:10349000D9F784E591E00E94E82C88EC90E020E9DF
:1034A00031E0F9013197F1F70197D9F708958BE5EC
:1034B00091E00E94E82C80ED97E020E931E0F901ED
:1034C0003197F1F70197D9F7089582E691E00E94CC
:1034D000E82C88EE93E020E931E0F9013197F1F72B
:1034E0000197D9F788E691E00E94E82C84EF91E0FB
:1034F00020E931E0F9013197F1F70197D9F7089503
:103500008EE691E00E94E82C089584E791E00E9405
:10351000E82C88EE93E020E931E0F9013197F1F7EA
:103520000197D9F708958AE791E00E94E82C089561
:103530000F931F93DF93CF93CDB7DEB728970FB6C6
:10354000F894DEBF0FBECDBF00D000D000D0EDB7E5
:10355000FEB731968E010F5F1F4FADB7BEB7129603
:103560001C930E93119721E831E0338322838483E7
:1035700015820E9454308DB79EB706960FB6F89408
:103580009EBF0FBE8DBFC8010E94E82C28960FB6C3
:10359000F894DEBF0FBECDBFCF91DF911F910F9189
:1035A00008950F931F93DF93CF93CDB7DEB728977E
:1035B0000FB6F894DEBF0FBECDBF00D000D000D054
:1035C000EDB7FEB731968E010F5F1F4FADB7BEB797
:1035D00012961C930E9311972AE831E033832283CD
:1035E000848315820E9454308DB79EB706960FB61D
:1035F000F8949EBF0FBE8DBFC8010E94E82C28968C
:103600000FB6F894DEBF0FBECDBFCF91DF911F91F3
:103610000F9108950F931F93DF93CF93CDB7DEB72C
:1036200028970FB6F894DEBF0FBECDBF00D000D0F4
:1036300000D0EDB7FEB731968E010F5F1F4FADB7CB
:10364000BEB712961C930E93119723E931E0338392
:103650002283848315820E9454308DB79EB70696CC
:103660000FB6F8949EBF0FBE8DBFC8010E94E82C14
:1036700028960FB6F894DEBF0FBECDBFCF91DF9175
:103680001F910F9108958CE991E00E94E82C089514
:1036900083EA91E00E94E82C08958AEA91E00E9472
:1036A000E82C089581EB91E00E94E82C08958C307D
:1036B00098F4882361F4ECE0F4E0119284E0E731BF
:1036C000F807D9F788EB91E00E94E82C0895E82FDD
:1036D000F0E0E55FFB4F1082089589E191E00E94E0
:1036E000E82C84EF91E020E931E0F9013197F1F71E
:1036F0000197D9F70E94C426089581EB91E00E94BA
:10370000E82C88EE93E020E931E0F9013197F1F7F8
:103710000197D9F78EE691E00E94E82C88EC90E0C2
:1037200020E931E0F9013197F1F70197D9F789E103
:1037300091E00E94E82C0E94C42608950E94C426AD
:1037400081EB91E00E94E82C88EE93E020E931E0E3
:10375000F9013197F1F70197D9F78EE691E00E94D0
:10376000E82C88EC90E020E931E0F9013197F1F79D
:103770000197D9F708950F931F938C018FEB91E078
:103780000E94E82CC8010E94E82C8DE00E94AC2C1D
:1037900084EC99E020E931E0F9013197F1F70197E4
:1037A000D9F71F910F9108950E94E82C8DE00E9497
:1037B000AC2C08950E94E82C8DE00E94AC2C08955A
:1037C0000E94E82C8DE00E94AC2C0895FF920F938C
:1037D0001F93CF93DF938C3070F5882319F50AE19E
:1037E00014E0C0E0D0E0FF24F394FE01E45FFB4F5F
:1037F00010829E012F5F822F6FEF7FEF0E94F629CC
:10380000F801F1928F012196CB30D10571F781E259
:1038100090E0909318048093170483EC91E00E9449
:10382000E82C09C0E82FF0E0E55FFB4F10826FEF56
:103830007FEF0E94F629DF91CF911F910F91FF90AA
:1038400008951F93182F0E94EF26112361F411E0B1
:10385000812F68EE73E00E94F6291F5F1C30C1F7CC
:103860008AEC91E04DC01C3030F4812F68EE73E09B
:103870000E94F62947C01C3009F440C01D30B1F049
:103880001E30B9F487E068EE73E00E94F62988E004
:1038900068EE73E00E94F62989E068EE73E00E940A
:1038A000F6298AE068EE73E00E94F62988ED91E03F
:1038B00027C01F3039F581E068EE73E00E94F629D9
:1038C00082E068EE73E00E94F62983E068EE73E020
:1038D0000E94F62984E068EE73E00E94F62985E0F4
:1038E00068EE73E00E94F62986E068EE73E00E94BD
:1038F000F6298BE068EE73E00E94F62981ED91E0F5
:103900000E94E82C1F9108950F931F93882339F587
:1039100081E090E021E0FC01E55FFB4F1082FC01BB
:10392000E85EFB4F208301968C309105A1F781E280
:1039300090E090931804809317040E94EF268DE581
:1039400093E00E94C92689E099E162E00E944F2835
:103950008FED91E00E94E82C0E94E52625C08C3076
:10396000C0F4082F10E001501040F801E45FFB4F55
:10397000108260ED77E00E94F62981E290E090935A
:10398000180480931704075E1B4F81E0F8018083C1
:103990000BC08C3019F486EE91E004C08D3021F418
:1039A0008DEE91E00E94E82C1F910F91089521E087
:1039B0000E94FE170895EF92FF920F931F93DF93DB
:1039C000CF9300D000D00F92CDB7DEB78C017B0132
:1039D000DA018C91873209F44BC0883721F08232AA
:1039E00009F071C02BC000D000D000D02DB73EB779
:1039F0002F5F3F4F1196EDB7FEB7B283A18384EFDF
:103A000091E0F90193838283CE01029695838483AA
:103A10000E947830482F8DB79EB706960FB6F8945F
:103A20009EBF0FBE8DBF442309F485C02A813B8110
:103A30002F3F310509F008F46FC07AC021E01196DC
:103A40009C911197992309F475C09983F70180819E
:103A5000F801E80FF11D9083F70180818F5F80836B
:103A6000882309F465C02F5F11962F3F41F762C08C
:103A700000D000D000D02DB73EB72F5F3F4F11963A
:103A8000EDB7FEB7B283A18387EF91E0F90193838D
:103A90008283CE010196958384830E947830482FDB
:103AA0008DB79EB706960FB6F8949EBF0FBE8DBF1A
:103AB000442309F440C0F7018081080F111D89815A
:103AC000F80180832FC000D000D000D02DB73EB7C2
:103AD0002F5F3F4FEDB7FEB7528341838AEF91E0EE
:103AE000F90193838283CE010496958384830E9497
:103AF0007830482F8DB79EB706960FB6F8949EBFC4
:103B00000FBE8DBF4423B9F02C813D81C90180587F
:103B10009F4F8058914060F4F7018081080F111D7C
:103B2000F8012083F70180818F5F8083882319F457
:103B300040E001C041E0842F0F900F900F900F9054
:103B40000F90CF91DF911F910F91FF90EF9008950B
:103B5000AF92BF92CF92DF92EF92FF920F931F939B
:103B6000DF93CF93CDB7DEB7C550D1400FB6F894F1
:103B7000DEBF0FBECDBF8C01623008F472C0198267
:103B800080910002909101029B838A83D8018C91DD
:103B9000863209F066C0C8010E94E82C8DE00E94C0
:103BA000AC2C92E0E92EF12CEC0EFD1EC801019622
:103BB000B7010E941030009709F453C000D000D024
:103BC00000D0EDB7FEB73196ADB7BEB712969C9355
:103BD0008E9311978DEF91E093838283CE010496AB
:103BE000958384830E9478302C813D81EDB7FEB7A8
:103BF00036960FB6F894FEBF0FBEEDBF2F3F3105CE
:103C000080F5182FA22E27FD2CC0882349F429C047
:103C1000C601B7010E94DB1C182F882369F421C05C
:103C2000C701BE2C092F86E0C82ED12CCC0EDD1E7C
:103C30007E010894E11CF11C80E090E06B2D702F58
:103C40000E941030AC01009719F7112351F04981FF
:103C5000442339F08A2DBE016A5F7F4F21E00E9424
:103C6000FE17CB5FDE4F0FB6F894DEBF0FBECDBFA1
:103C7000CF91DF911F910F91FF90EF90DF90CF9048
:103C8000BF90AF90089501960E94AC2D8DE00E94E8
:103C9000702D08950E94A515089582E092E00E947B
:103CA000A515089585E092E00E94A51508950F934B
:103CB0001F93DF93CF93CDB7DEB728970FB6F89455
:103CC000DEBF0FBECDBF2DB73EB7285030400FB678
:103CD000F8943EBF0FBE2DBFEDB7FEB731968E01F3
:103CE0000F5F1F4FADB7BEB712961C930E9311977F
:103CF00028E032E03383228384831582668317822F
:103D00000E9454302DB73EB7285F3F4F0FB6F8944E
:103D10003EBF0FBE2DBFC8010E94A51528960FB645
:103D2000F894DEBF0FBECDBFCF91DF911F910F91F1
:103D3000089580E192E00E94A515089583E192E044
:103D40000E94A515089586E192E00E94A5150895A8
:103D500089E192E00E94A51508958CE192E00E940D
:103D6000A515089580E292E00E94A515089584E2C9
:103D700092E00E94A515089587E292E00E94A515A1
:103D800008958CE292E00E94A515089581E392E0E7
:103D90000E94A5150895DF93CF93CDB7DEB7A39703
:103DA0000FB6F894DEBF0FBECDBF282FE82FF0E08E
:103DB000ED33F10508F028C2EC5CFF4FEE0FFF1F5A
:103DC0000590F491E02D09940E94EF268DE593E093
:103DD0000E94C92689E099E162E00E944F2880E0B4
:103DE000EFC10E94EF2683E091E064E00E944F283B
:103DF0008DE593E00E94C92681E392E00E94A5151B
:103E00000E94851A84E00E94D11984E00E940A1B56
:103E100081E0D6C10E94EF268DE492E06FE00E941F
:103E20004F280E94DC2684E00E94981A8CE292E0DF
:103E30000E94A51582E0C4C10E94EF268FE094E0A5
:103E40006DE10E944F280E94DC260E94651A84E0E2
:103E50000E940A1B80E292E00E94A51583E0B0C197
:103E60000E94EF2685E797E06BE10E944F280E94B1
:103E7000DC2685E00E94981A8CE192E00E94A5154C
:103E800084E09EC10E94EF268DE79BE10E94BF2641
:103E90008DE69BE10E94BF268FE99AE061E20E94D5
:103EA0004F288DE593E00E94C9260E94571A81E1B0
:103EB0000E94981A89E192E00E94A5150E94C319F8
:103EC00085E07EC10E94EF268DE69BE10E94BF2621
:103ED0008BE791E064E00E944F2885E793E00E9421
:103EE000C92684E00E9465190E943C1A86E192E08E
:103EF0000E94A5158AE00E94D1198AE00E940A1B3F
:103F000086E05EC10E94EF268DE79BE10E94BF26FE
:103F10008DE69BE10E94BF268DE79EE06AE50E9448
:103F20004F280E94DC2683E192E00E94A5150E94A2
:103F3000571A8EE20E940A1B0E94C31987E040C1F3
:103F40000E94EF268DE593E00E94C92689E099E161
:103F500062E00E944F2888E00E94EA180E94E5264D
:103F60008AE791E00E94E82C80E192E00E94A5158A
:103F700082E20E94D11A0E942E1A0E94B51964C1D1
:103F80000E94EF268DE79BE10E94BF268DE69BE114
:103F90000E94BF260E94DC2685E499E16FE10E9421
:103FA0004F2884E392E00E94BB1B0E94571A0E9494
:103FB000201A84E292E00E94A51583E60E940A1B63
:103FC0000E94C31989E0FCC00E94EF268DE593E0B2
:103FD0000E94C92689E099E162E00E944F288AE0A8
:103FE0000E94EA180E94E5260E949E1B83EA91E047
:103FF0000E94E82C82E092E053C00E94EF268DE5FB
:1040000093E00E94C92689E099E162E00E944F286E
:104010008BE00E94EA180E94E5260E949E1B8CE914
:1040200091E03AC087E00E94931888E00E949318BC
:1040300089E00E9493188AE00E94931805C10E94AB
:10404000EF268DE593E00E94C92689E099E162E0C0
:104050000E944F288DE00E94EA180E94E5260E94E7
:104060009E1B83EA91E018C00E94EF268DE593E045
:104070000E94C92689E099E162E00E944F288EE003
:104080000E94EA180E94E5260E949E1B8CE991E09E
:104090000E94E82C8AEA91E00E94E82C85E092E0F8
:1040A0000E94A5150E94DC2680E00E94E61BCCC081
:1040B0000E94EF268DE69BE10E94BF2681E392E0FD
:1040C0000E94A5150E94851A83E00E940A1B84E0C5
:1040D0000E94D119B9C00E94EF2685E493E00E94A6
:1040E000C92687ED9DE16AE00E944F2880E10E9489
:1040F000EA180E94E5260E94851AA6C00E94EF26B3
:1041000083E091E064E00E944F288DE593E00E94F7
:10411000C92683E355C00E94EF268DE492E06FE04C
:104120000E944F280E94DC2684E34AC00E94EF26AA
:104130008FE094E06DE10E944F280E94DC2685E329
:104140003FC00E94EF2685E797E06BE10E944F2871
:104150000E94DC2686E334C00E94EF268FE99AE0B5
:1041600061E20E944F288DE593E00E94C92687E313
:1041700027C00E94EF268BE791E064E00E944F2861
:1041800085E793E00E94C92684E00E94651988E3D0
:1041900017C00E94EF268DE79EE06AE50E944F2837
:1041A0000E94DC2689E30CC00E94EF2687EE9CE18A
:1041B00068E00E944F288DE593E00E94C9268AE3BB
:1041C0000E94EA181EC00E94EF2683EF91E063E090
:1041D0000E944F288DE593E00E94C92612C00E94DC
:1041E000EF2683E09FE16EE30E944F288DEB93E082
:1041F0000E94C9268CE30E94EA1887E292E00E949E
:10420000A5150E94E52620C000D000D000D0EDB753
:10421000FEB73196CE010196ADB7BEB712969C930C
:104220008E93119781E492E0938382832483158295
:104230000E9454308DB79EB706960FB6F8949EBF75
:104240000FBE8DBF0E94DC26A3960FB6F894DEBF8A
:104250000FBECDBFCF91DF9108951F93CF93DF9312
:10426000EC01CB010E94F22F182FCE0164E672E020
:104270000E941530009741F487E496E20E942829B5
:10428000812F0E94CB1E4AC0CE0167E672E00E94D9
:104290001530009741F487E496E20E942829812F87
:1042A0000E94211C3BC0CE016AE672E00E941530DC
:1042B000009741F487E496E20E942829812F0E940A
:1042C000841C2CC0CE016DE672E00E941530009770
:1042D00041F487E496E20E942829812F0E949318D6
:1042E0001DC0CE0160E772E00E941530009741F4D6
:1042F00087E496E20E942829812F0E94E61B0EC0C7
:10430000CE0163E772E00E941530009739F487E42C
:1043100096E20E942829812F0E94571BDF91CF919E
:104320001F910895DF93CF9300D000D000D0CDB778
:10433000DEB7FC016530A1F480818A3389F4818184
:10434000898382818A831B8283818C8384818D838C
:104350001E82CE010196BE016C5F7F4F0E942D210F
:1043600026960FB6F894DEBF0FBECDBFCF91DF917A
:1043700008952091D7038D3071F4E22FF0E0EB5DCA
:10438000FB4F10821092D703CB0165E274E00E94CC
:104390001E3081E00895E22FF0E0EB5DFB4F80835B
:1043A000203410F080E008952F5F2093D70380E041
:1043B0000895DF92EF92FF920F931F938091D503A0
:1043C0009091D6030E940C358C0180918D039091C1
:1043D0008E030E940435D82E80919303909194030C
:1043E0000E940435E82E80919503909196030E94D7
:1043F0000435FF24ED0CF11CE00EF11EE80EF11C5B
:10440000C7011F910F91FF90EF90DF900895EF92F9
:10441000FF920F931F93DF93CF93CDB7DEB727970C
:104420000FB6F894DEBF0FBECDBFFC01E62E808133
:10443000833209F014C18181898382818A831B823E
:1044400083818C8384818D8385818E831F82CE01BD
:1044500004960E94F22FF82E8E010F5F1F4FC801A5
:1044600066E772E00E941530009701F585E0E816D6
:1044700009F0F5C0FF2039F48091D5039091D6035F
:1044800060E070E009C081E0F81641F48091D50346
:104490009091D6036FEF77E00E942035CE01019610
:1044A0006F2D0E94A7180E94D921CEC0C80169E7CC
:1044B00072E00E941530009709F053C086E0E816BC
:1044C00009F0CDC08F2D6AE00E94C02E282F8C30BD
:1044D00070F48F2D0E94C02EE22FF0E0EC59FB4FBC
:1044E0009083913079F0992369F410820BC08C305D
:1044F00019F4C80166E004C08D3021F4C80167E0FA
:104500000E94A71860E070E020E030E041E050E059
:10451000F901EB59FB4F8081882351F0CA01022E2B
:1045200002C0880F991F0A94E2F7682B792B0BC001
:10453000CA01022E02C0880F991F0A94E2F78095E3
:104540009095682379232F5F3F4F2B30310501F77A
:104550008091D5039091D6030E9420350E94D921E5
:1045600073C0C8016CE772E00E941530009769F4CF
:104570008CE08F1538F080919103909192036F2D0C
:104580000E9412350E94D9215FC0C8016FE772E016
:104590000E941530009751F480918D0390918E0305
:1045A0006F2D0E9412350E94D9214EC0C80162E8C9
:1045B00072E00E9415300097F1F4FF2031F48091F1
:1045C00093039091940360E011C081E0F81631F4F8
:1045D000809193039091940361E008C082E0F81603
:1045E00039F4809193039091940362E00E94123514
:1045F0000E94D92129C0C80160E772E00E941530ED
:10460000009759F480918F03909190036F2D6B3F29
:1046100008F06AEF0E9412351EC0C80165E872E01A
:104620000E9415300097D9F481E08F15C0F0809179
:10463000950390919603FF2011F460E001C061E0C2
:104640000E9412350E94D921BC018091970390915C
:1046500098030E94203587E496E20E942829279635
:104660000FB6F894DEBF0FBECDBFCF91DF911F9183
:104670000F91FF90EF900895CF93DF93EC01888125
:10468000DE010D900020E9F71197AC1BBD0BAA23AA
:1046900029F487E496E20E9428293DC0853269F119
:1046A000863238F4833299F18432F0F4813299F50C
:1046B0001FC08A3279F08B3218F4863261F522C03D
:1046C0008A3319F0803439F50AC0CE016A2F0E946E
:1046D000922121C0CE016A2F0E94E01B1CC0CE0196
:1046E0006A2F0E94DA1B17C0CE010E94A51513C0C5
:1046F000CE016A2F0E94431E0EC0CE016A2F0E9477
:10470000D41B09C0CE016A2F0E94A81D04C0CE018F
:104710006A2F0E940722DF91CF9108958D3011F00A
:104720008A3021F48AE00E941D298DE00E941D2913
:1047300008954F925F926F927F928F929F92AF9265
:10474000BF92CF92DF92EF92FF920F931F93DF936E
:10475000CF93CDB7DEB7CE55D0400FB6F894DEBFBD
:104760000FBECDBF0E94B9298CE496E20E94282991
:1047700080E996E20E94282960E875E280E090E0F6
:104780000E94472C82EA96E20E94FD2C20E931E04B
:1047900007C088E893E1F9013197F1F70197D9F75C
:1047A000F999F7CF0E94D9218C01809197039091BC
:1047B00098030E940C356C018DB79EB708970FB611
:1047C000F8949EBF0FBE8DBFEDB7FEB731967E0148
:1047D0000894E11CF11CADB7BEB71296FC92EE92A4
:1047E000119758E8A52E52E0B52EB382A282158308
:1047F0000483D782C6820E945430EDB7FEB7389644
:104800000FB6F894FEBF0FBEEDBFC7010E94572937
:10481000C016D10609F463C0C70166EA72E00E94BF
:104820001E30C7010E9457298091D5039091D6036D
:1048300060E070E00E94203580918D0390918E039E
:104840006FEF0E941235809193039091940360E082
:104850000E941235809195039091960360E00E942A
:104860001235C7016DED72E00E941E30C7010E9433
:1048700057290E94D9218C018DB79EB708970FB692
:10488000F8949EBF0FBE8DBFEDB7FEB73196ADB7A2
:10489000BEB71296FC92EE921197B382A282158354
:1048A0000483D782C6820E945430EDB7FEB7389693
:1048B0000FB6F894FEBF0FBEEDBFC7010E94572987
:1048C0008091970390919803B8010E942035C70109
:1048D00064EF72E00E941E30C7010E945729809148
:1048E000D5039091D6030E940C35AC0120E030E056
:1048F00061E070E0A1E0F901EB59FB4F1082CB01C0
:10490000022E02C0880F991F0A94E2F78423952390
:10491000892B09F0A0832F5F3F4F2B30310559F7CA
:1049200080919103909192030E9404358093240416
:1049300080918F03909190030E9404358093080426
:104940000E94832A0E94FC250E94782881E00E9410
:104950007F1887E194E00E947C2589E099E162E07C
:104960000E944F280E94E52660E875E280E090E012
:104970000E940B2D80E395E720E931E0F9013197A2
:10498000F1F70197D9F780918D0390918E030E94E2
:104990000435813071F0813028F0823031F083307D
:1049A00041F405C01092090407C08EEF03C08DEFDB
:1049B00001C08FEF80930904809195039091960335
:1049C0000E9404350E94C31680910904882349F08F
:1049D0008FEF9FEF20E931E0F9013197F1F701976F
:1049E000D9F780919303909194030E94043581300C
:1049F00041F0813018F0823059F408C00E94DB1376
:104A000007C00E94E3130E947C1402C00E94E313BB
:104A100087E696E20E9428294FE1642E712C6C0EE5
:104A20007D1E31E2432E512C0E941829882371F0FB
:104A30000E940929182F0E948E23812FB3010E9402
:104A4000B921882319F0C3010E943C230E948415D8
:104A50000E94372A4C0129E1C22E24E0D22E760191
:104A600000E010E0B02EB394F801E45FFB4FA080AB
:104A7000F1E0AF16F9F427EC821627E09206B4F0C5
:104A8000D7018C918823B1F48B2D0E941D2A8F5F52
:104A90009F4F81F08B2D60ED77E00E94F6295092B8
:104AA000180440921704F701A08204C08B2DB401B2
:104AB0000E94F6290F5F1F4F0894E11CF11C0B3078
:104AC000110581F68091170490911804892B09F043
:104AD000ABCF11E0D6018C91882339F0812F6FEF95
:104AE0007FEF0E94F629F60110820894C11CD11CA8
:104AF0001F5F1C3079F798CF9C01AAE7B4E0E0E093
:104B0000F0E08D919C911197892B41F4EE0FFF1FDE
:104B1000E658FB4F3183208381E008953196129649
:104B2000EA30F10571F780E008959C01AAE7B4E04E
:104B3000E0E0F0E08D919C9111978217930741F48A
:104B4000EE0FFF1FE658FB4F1182108281E008959F
:104B500031961296EA30F10569F780E008959C01DC
:104B60008091730490917404892B19F4E0E0F0E0D3
:104B700013C08091750490917604892B19F4E1E0BB
:104B8000F0E00AC08091770490917804892B11F0AD
:104B900080E00895E2E0F0E0EE0FFF1FED58FB4FDC
:104BA0003183208381E008959C018091730490916A
:104BB00074048217930719F4E0E0F0E015C08091C7
:104BC0007504909176048217930719F4E1E0F0E000
:104BD0000BC080917704909178048217930711F0AD
:104BE00080E00895E2E0F0E0EE0FFF1FED58FB4F8C
:104BF0001182108281E008953B9A84B5826084BD61
:104C00008FEC87BD16BCEEE6F0E080818260808389
:104C100085B5846085BD789408951F920F920FB674
:104C20000F9211242F933F934F935F936F937F9332
:104C30008F939F93AF93BF93EF93FF939091D8037C
:104C4000923030F48FEC87BD9F5F9093D80386C07D
:104C500080ED87BD1092D8038091910490919204C9
:104C60000196909392048093910480918E04909188
:104C70008F04019690938F0480938E04AAE7B4E08A
:104C8000ED91FC911197309749F080819181892BAA
:104C900029F080819181019791838083129684E02D
:104CA000AE38B80769F7809179048F5F80937904F3
:104CB00080917904843611F4109279048091D9039B
:104CC0008F5F8093D903843661F580917104909150
:104CD0007204019690937204809371041092D90328
:104CE000809190048F5F80939004809190048C3326
:104CF000C1F410929004809193048F5F8093930489
:104D0000809193048C3369F41092930480919404FD
:104D10008F5F8093940480919404883111F41092F1
:104D200094048091900480FF16C0439AE09173042C
:104D3000F0917404309709F00995E0917504F091B1
:104D40007604309709F00995E0917704F0917804A2
:104D5000309719F403C04398E9CF0995FF91EF917B
:104D6000BF91AF919F918F917F916F915F914F9183
:104D70003F912F910F900FBE0F901F901895909319
:104D8000AC048093AB0408951092AC041092AB0471
:104D90000895AC0120E030E0F901E652FC4FDA0161
:104DA000A20FB31F8D919C91918380832E5F3F4F03
:104DB0002631310589F70895EAEDF3E01192119259
:104DC00083E0E03FF807D1F708951092F00381E007
:104DD0008093F103089581E08093F1030895109288
:104DE000F1031092C4041092C304E091AB04F0915B
:104DF000AC04309709F009950895982F8091F40339
:104E0000981710F49093F0030895AF92BF92CF9249
:104E1000DF92EF92FF920F931F93CF93DF937C016A
:104E200070E0CB01880F991F9B01E5E0220F331F33
:104E3000EA95E1F7281B390B265E3F4FC701820F29
:104E4000931F2E5F3F4F2E0D3F1D8B0154E0000F2F
:104E5000111F5A95E1F7061B170BC1E0D0E0FC01CA
:104E6000A590B490F901C590D4902C2FCA15DB05FC
:104E700018F4CC16DD06D0F0FE01E00FF11FEE0FA6
:104E8000FF1FEE0DFF1D85919491FE01EE0FFF1F98
:104E9000E555FB4F91838083808191818F5F9F4F88
:104EA00029F4822F6FEF7FEF0E94F6292196CC30F4
:104EB000D105D9F6DF91CF911F910F91FF90EF901F
:104EC000DF90CF90BF90AF900895EF92FF920F9335
:104ED0001F93CF93DF938091F103882309F4D8C007
:104EE0008091F2039091F303892B09F4D1C00AED6C
:104EF00013E0C0E0D0E0FF24F3943EE1E32E809184
:104F0000F0038E9DC00111244896E091F203F091C8
:104F1000F303E80FF91F859194912FEF8F3F9207CC
:104F200011F0AC0103C0F80140815181CE01880F1E
:104F3000991FDC01A355BB4F2D913C911197FC01AA
:104F4000EB56FB4F80819181281B390BB1F1411544
:104F5000510529F0808191818F5F9F4F69F4FE0197
:104F6000EE0FFF1FDF01A355BB4F8D919C91EB56B8
:104F7000FB4F918380831CC01216130644F4421722
:104F800053076CF480819181840F951F0AC0241708
:104F900035072CF480819181841B950B02C08D9183
:104FA0009C9191838083FE01EE0FFF1FEB56FB4F18
:104FB000608171818F2D0E94F6292196F3940E5FF6
:104FC0001F4F8CE0F81609F09ACF8091C30490919E
:104FD000C404892B09F05CC07091F0036091F40364
:104FE000272F30E0862F90E001974091F2035091F7
:104FF000F30328173907D4F4CA01672F0E94052745
:105000008091F0032EE1829F90011124E091F20340
:10501000F091F303E20FF31F259134913093C40410
:105020002093C3048F5F8093F00332C01EE1619F21
:10503000F00111247E97E40FF51F85919491615042
:10504000892B79F4CA010E9405271092F10310926E
:10505000F003E091AB04F091AC043097C9F00995EE
:1050600017C0CA010E9405278091F403819FC001E7
:1050700011244E97E091F203F091F303E80FF91F2A
:10508000859194919093C4048093C3041092F0038B
:10509000DF91CF911F910F91FF90EF900895CF93E3
:1050A000DF931092F1031092F0039093F303809337
:1050B000F2036093F403C0E0D0E09E012F5F822FE3
:1050C0000E941D2AFE01EE0FFF1FDF01AB56BB4FF2
:1050D00011969C938E938D919C91E355FB4F9183F8
:1050E00080832196CB30D10541F7DF91CF91089590
:1050F00085E697E20E94AF2583EC94E00E947C2530
:105100000895E1ECF0E08081806880830895E1EC0F
:10511000F0E080818F77808308951F920F920FB601
:105120000F9211242F938F939F93EF93FF932091CE
:10513000C60090910D0580910E059817D8F4E09166
:105140001105F0911205219380911405815021F4ED
:1051500080910E05E81BF10980931405F093120568
:10516000E09311059FB7F89480910D058F5F8093B0
:105170000D059FBFFF91EF919F918F912F910F9000
:105180000FBE0F901F9018951F920F920FB60F929F
:1051900011242F938F939F93EF93FF938091050595
:1051A0008823F1F0E0910705F091080521918091A5
:1051B0000B05815021F480910605E81BF109F0935D
:1051C0000805E093070580930B059FB7F89480913D
:1051D00005058150809305059FBF2093C60005C03B
:1051E0008091C1008F7D8093C100FF91EF919F91CD
:1051F0008F912F910F900FBE0F901F9018958DE0FB
:1052000095E00E94221708958DE095E00E943A17DC
:1052100008958DE095E00E943A17089585E095E0A5
:105220000E94561720E0892B09F421E0822F08956F
:105230008DE095E00E9456170895682F85E095E06F
:105240000E940717E1ECF0E090819062908308954E
:105250001F93CF93DF93EC0107C00E940E29882390
:10526000E1F3812F0E941D29FE0121961491112343
:10527000A1F7DF91CF911F9108950F931F93CF93C3
:10528000DF93EC0101E010E004C00E941D29082317
:105290001F5FFE01E10FF11D8081882311F01F3F88
:1052A000A1F7802FDF91CF911F910F910895EF9279
:1052B000FF921F93CF93DF937C0110E008C00E9400
:1052C0000E298823E1F388810E941D291F5FE701D1
:1052D000C10FD11D8881882311F01F3F81F7DF9115
:1052E000CF911F91FF90EF9008951F931FB79C01DE
:1052F00040E050E084E0220F331F441F551F8A9581
:10530000D1F760E074E284EF90E00E94DF2E21503C
:1053100030403093C5002093C400F8941092C00030
:1053200088E98093C10086E08093C2008091C60026
:105330008091C00087FDFACF80EC8093C0001FBF32
:1053400078948DE095E065EC74E040E40E94FD16F1
:1053500085E095E065E175E04FEF0E94FD161F9135
:10536000089580E895E20E94752984E28093C20046
:10537000089580E895E20E94752908958BE0809356
:10538000F50380E29EE49093850080938400EFE62D
:10539000F0E08081816080837894E1E8F0E08081B2
:1053A000826080830895CF93DF93AEE3B6E0C1E3DC
:1053B000D6E041E050E0ED91FD912081CA010990D5
:1053C00002C0880F991F0A94E2F780958223808398
:1053D00086E0A435B80779F780916F008E7F8093BF
:1053E0006F0010928100DF91CF910895E82F8150D6
:1053F0008B3010F577FF0AC0F0E0EE0FFF1FEE5E76
:10540000F94F8FEF9FEF91838083089589E0653C8A
:1054100078071CF064EC79E006C081E0643F78070F
:1054200014F464EF71E0F0E0EE0FFF1FEE5EF94F51
:10543000660F771F718360830895E82F81508B304A
:1054400018F0E0E0F0E011C0F0E0EE0FFF1FEE5EBC
:10545000F94F808191812FEF8F3F920719F4EFEF81
:10546000FFEF03C0FC01F695E795CF010895809109
:105470003D068A3048F08FEF9FEF90935A06809355
:1054800059062FEF3FEF1CC080913D068823A1F401
:1054900080912C06882381F08091570690915806C0
:1054A00062E070E00E94CC2E9B0170935A066093DC
:1054B000590610922C0604C02091590630915A06C4
:1054C000C901089580B78B7F80BFE1E8F0E080815B
:1054D0008F778083EFE6F0E080818F7D8083209856
:1054E0001092300610922F0610922E0610922D0662
:1054F0001092560610923D068FEF9FEF90935A063A
:10550000809359060895EF92FF920F931F93CF93C4
:10551000DF93E4E1F6E08FEF9FEF8193919326E034
:10552000EC32F207D1F72BE230E030933F062093C4
:105530003E06309341062093400630934306209365
:105540004206309345062093440630934706209345
:10555000460685E290E09093490680934806909332
:105560004B0680934A0690934D0680934C06909389
:105570004F0680934E0690935106809350063093C9
:10558000530620935206909355068093540642E0AA
:105590004093310633E03093320624E02093330603
:1055A00095E09093340686E08093350681E0809301
:1055B0003606409337063093380620933906909389
:1055C0003A0687E080933B068CE080933C06CEE36E
:1055D000D6E041E356E0DE01BA0101E010E0ED90D3
:1055E000FD90F7012081FB01C801019002C0880FE6
:1055F000991F0A94E2F7BF0180958223F701808307
:10560000F6E0A435BF0759F761E070E0E991F99140
:105610002291DA01CB010D9002C0880F991F0A94E4
:10562000E2F7AD01282B2083B6E0C435DB0771F724
:1056300080916F008E7F80936F008BE08093F503E5
:105640001092800080E29EE4909385008093840015
:105650000E94622A0E94BE29DF91CF911F910F9173
:10566000FF90EF900895E1E8F0E08081806480830E
:10567000B59A10925606EFE6F0E080818062808352
:10568000089580916F008F7D80936F008091560602
:105690008823A1F010923D0680912D0690912E0650
:1056A00020912F0630913006821B930B9093580661
:1056B0008093570681E080932C06089580913D06E3
:1056C0008B3028F480913D068F5F80933D060895CE
:1056D0001F920F920FB60F9211242F933F934F9367
:1056E0005F936F937F938F939F93AF93BF93EF934A
:1056F000FF938091F5038B3028F00E94412B10928C
:10570000F5031FC0E091F503F0E0EE0FFF1FE25C30
:10571000F94FA081B1812C91E091F503F0E0EF5CAD
:10572000F94F81E090E0008002C0880F991F0A9431
:10573000E2F7809582238C938091F5038F5F8093AD
:10574000F5038091F5038B3048F080E29EE490935E
:105750008500809384000E94332B55C0E091F503AF
:10576000F0E0EE0FFF1FEC5EF94F808191818F5FBB
:105770009F4F09F442C0E091F503F0E0EE0FFF1FE8
:10578000E25CF94FA081B1812C91E091F503F0E04A
:10579000EF5CF94F81E090E0008002C0880F991F14
:1057A0000A94E2F7282B2C93E091F503F0E0EB59F3
:1057B000FB4F8081813061F4E091F503F0E0EE0F62
:1057C000FF1FEC5EF94F808191818057974117C090
:1057D000E091F503F0E0EB59FB4F8081882399F4C9
:1057E000E091F503F0E0EE0FFF1FEC5EF94F8081D2
:1057F0009181909581959F4F02C08CE09EEF909390
:10580000850080938400FF91EF91BF91AF919F91AC
:105810008F917F916F915F914F913F912F910F9059
:105820000FBE0F901F9018951F920F920FB60F92F8
:1058300011248F939F93F8948091810086FF0FC06D
:1058400080918600909187009093300680932F0678
:10585000809181008F7B80938100B59A10C08091E8
:1058600086009091870090932E0680932D0681E00C
:105870008093560680916F008F7D80936F0078949F
:105880009F918F910F900FBE0F901F901895EF92E0
:10589000FF920F931F93CF93DF937B018C011092A4
:1058A000F7031092F6031092F9031092F803109286
:1058B000FB031092FA031092FD031092FC03389A36
:1058C000409A20E030E0E901CC0FDD1FC20FD31F6A
:1058D000BE01660F771F660F771FAB014452594D0B
:1058E000FA0185919591A591B4918E159F05A00718
:1058F000B10729F5FB01E052F94D85919491909300
:10590000F7038093F603FB01EE51F94D85919491D5
:105910009093F9038093F803FB01EC51F94D8591C5
:1059200094919093FB038093FA03FB01EA51F94DA4
:10593000859194919093FD038093FC0306C02F5FA3
:105940003F4F2C30310509F0BECFDF91CF911F9131
:105950000F91FF90EF900895F82F2091FC03309164
:10596000FD032115310509F432C0EFB7F8944098D2
:1059700088B12B5F3F4FC90140E001974FEF8F3F48
:105980009407D9F72550304051E060E070E0A0E086
:10599000852F8F2311F0409A01C0409888B1C9012A
:1059A0004A2F01974FEF8F3F9407D9F7550F6F5F3D
:1059B0007F4F6830710561F7409A88B1EFBF7894E6
:1059C000C90120E001972FEF8F3F9207D9F7089583
:1059D0001F93CF93DF93EC0110E003C00E94AC2C27
:1059E0001F5FFE01E10FF11D8081882311F01F3F31
:1059F000A9F7DF91CF911F910895CF93DF93EC0129
:105A000002C00E94AC2CFE01219684918823C9F724
:105A1000DF91CF910895EF92FF920F931F93CF9351
:105A2000DF937B018C011092FF031092FE03109212
:105A300001041092000410920304109202041092C8
:105A4000050410920404399A419A20E030E0E901FB
:105A5000CC0FDD1FC20FD31FBE01660F771F660F6D
:105A6000771FAB014452594DFA0185919591A5914B
:105A7000B4918E159F05A007B10729F5FB01E052EF
:105A8000F94D859194919093FF038093FE03FB0160
:105A9000EE51F94D85919491909301048093000407
:105AA000FB01EC51F94D85919491909303048093FF
:105AB0000204FB01EA51F94D8591949190930504FC
:105AC0008093040406C02F5F3F4F2C30310509F04E
:105AD000BECFDF91CF911F910F91FF90EF9008956E
