:100000000C94F00E0C940D0F0C940D0F0C940D0F1E
:100010000C940D0F0C940D0F0C940D0F0C940D0FF0
:100020000C940D0F0C940D0F0C949A290C940D0F39
:100030000C940D0F0C94EA280C9486230C940D0F4D
:100040000C940D0F0C940D0F0C940E260C94452659
:100050000C940D0F0C940D0F0C940D0F0C940D0FB0
:100060000C940D0F0C940D0F7216871674178717CA
:100070009A179E16C217B316C616DB16E516FF169C
:10008000191721173B1755175F171B181B181B183B
:100090001B181B181B181B181B181B181B181B18C8
:1000A0001B181B181B181B181B181B181B181B18B8
:1000B0001B181B181B181B181B181B181B181B18A8
:1000C0001B181B181B181B181B181B181B1887162E
:1000D000741787179A17AD17C217D717E717F917AD
:1000E0000518D521AB21D521AE21D521B121D521AE
:1000F000B421D521BD21D521C021D521C921D521AA
:10010000CC21D5211400FFFFFFFFFFFFFFFFFFFF02
:10011000FFFFD007D007FFFF060007002C01FFFFFD
:10012000FFFFFFFFFFFFFFFFFFFFE803E803FFFF05
:10013000060007009600FFFFFFFFFFFFFFFFFFFF26
:10014000FFFFD007D007FFFF060007000000FFFFFA
:10015000FFFFFFFFFFFFFFFFFFFFFFFFFFFFFFFFAF
:10016000060007001400FFFFFFFFFFFFFFFFFFFF78
:10017000FFFFD007D007FFFF06000700E803FFFFDF
:10018000FFFFFFFFFFFFFFFFFFFFE803E803FFFFA5
:10019000060007009600FFFFFFFFFFFFFFFFFFFFC6
:1001A000FFFFD007D007FFFF060007000000FFFF9A
:1001B000FFFFFFFFFFFFFFFFFFFFFFFFFFFFFFFF4F
:1001C000060007001400FFFFFFFFFFFFFFFFFFFF18
:1001D000FFFFD007D007FFFF060007001400FFFF56
:1001E000FFFFFFFFFFFFFFFFFFFFE803E803FFFF45
:1001F000060007000000FFFFFFFFFFFFFFFFFFFFFC
:10020000FFFFFFFFFFFFFFFF06000700F000FFFFFB
:10021000FFFFFFFFFFFFFFFFFFFFD007D007FFFF3C
:10022000060007001E00FFFFFFFFFFFFFFFFFFFFAD
:10023000FFFFE803D007FFFF060007007800FFFF7D
:10024000FFFFFFFFFFFFFFFFFFFFD007D007FFFF0C
:10025000060007001E00FFFFFFFFFFFFFFFFFFFF7D
:10026000FFFFD007E803FFFF060007001E00FFFFA7
:10027000FFFFFFFFFFFFFFFFFFFFD007D007FFFFDC
:10028000060007000000FFFFFFFFFFFFFFFFFFFF6B
:10029000FFFFFFFFFFFFFFFF060007007100FFFFEA
:1002A000FFFFFFFFFFFFFFFFFFFFD007D007FFFFAC
:1002B000060007000F00FFFFFFFFFFFFFFFFFFFF2C
:1002C000FFFFE803D007FFFF060007004400FFFF21
:1002D000FFFFFFFFFFFFFFFFFFFFD007D007FFFF7C
:1002E000060007000F00FFFFFFFFFFFFFFFFFFFFFC
:1002F000FFFFD007E803FFFF060007000F00FFFF26
:10030000FFFFFFFFFFFFFFFFFFFFD007D007FFFF4B
:10031000060007000F00FFFFFFFFFFFFFFFFFFFFCB
:10032000FFFFD007E803FFFF060007003E00FFFFC6
:10033000FFFFFFFFFFFFFFFFFFFFD007D007FFFF1B
:10034000060007000F00FFFFFFFFFFFFFFFFFFFF9B
:10035000FFFFE803D007FFFF060007000F00FFFFC5
:10036000FFFFFFFFFFFFFFFFFFFFD007D007FFFFEB
:10037000060007000000FFFFFFFFFFFFFFFFFFFF7A
:10038000FFFFFFFFFFFFFFFF06000700A000FFFFCA
:10039000FFFFFFFFFFFFFFFFFFFFD007D007FFFFBB
:1003A000060007006400FFFFFFFFFFFFFFFFFFFFE6
:1003B000FFFFE803D007FFFF06000700DC00FFFF98
:1003C000FFFFFFFFFFFFFFFFFFFFE803E803FFFF63
:1003D000060007006400FFFFFFFFFFFFFFFFFFFFB6
:1003E000FFFFD007E803FFFF060007002800FFFF1C
:1003F000FFFFFFFFFFFFFFFFFFFFD007D007FFFF5B
:10040000060007000000FFFFFFFFFFFFFFFFFFFFE9
:10041000FFFFFFFFFFFFFFFF060007001400FFFFC5
:10042000FFFFFFFFFFFFFFFFFFFFD007D007FFFF2A
:10043000060007003200FFFFFFFFFFFFFFFFFFFF87
:10044000FFFFD007E803FFFF060007003200FFFFB1
:10045000FFFFFFFFFFFFFFFFFFFFE803D007FFFFE6
:10046000060007003200FFFFFFFFFFFFFFFFFFFF57
:10047000FFFFD007E803FFFF060007003200FFFF81
:10048000FFFFFFFFFFFFFFFFFFFFE803D007FFFFB6
:10049000060007003200FFFFFFFFFFFFFFFFFFFF27
:1004A000FFFFD007E803FFFF060007003200FFFF51
:1004B000FFFFFFFFFFFFFFFFFFFFE803D007FFFF86
:1004C000060007003200FFFFFFFFFFFFFFFFFFFFF7
:1004D000FFFFD007E803FFFF060007003200FFFF21
:1004E000FFFFFFFFFFFFFFFFFFFFE803D007FFFF56
:1004F000060007003200FFFFFFFFFFFFFFFFFFFFC7
:10050000FFFFD007E803FFFF060007003200FFFFF0
:10051000FFFFFFFFFFFFFFFFFFFFE803D007FFFF25
:10052000060007003200FFFFFFFFFFFFFFFFFFFF96
:10053000FFFFD007E803FFFF060007003200FFFFC0
:10054000FFFFFFFFFFFFFFFFFFFFE803D007FFFFF5
:10055000060007003200FFFFFFFFFFFFFFFFFFFF66
:10056000FFFFD007E803FFFF060007003200FFFF90
:10057000FFFFFFFFFFFFFFFFFFFFE803D007FFFFC5
:10058000060007003200FFFFFFFFFFFFFFFFFFFF36
:10059000FFFFD007E803FFFF060007003200FFFF60
:1005A000FFFFFFFFFFFFFFFFFFFFE803D007FFFF95
:1005B000060007003200FFFFFFFFFFFFFFFFFFFF06
:1005C000FFFFD007E803FFFF060007003200FFFF30
:1005D000FFFFFFFFFFFFFFFFFFFFE803D007FFFF65
:1005E000060007003200FFFFFFFFFFFFFFFFFFFFD6
:1005F000FFFFD007E803FFFF060007003200FFFF00
:10060000FFFFFFFFFFFFFFFFFFFFE803D007FFFF34
:10061000060007003200FFFFFFFFFFFFFFFFFFFFA5
:10062000FFFFD007E803FFFF060007003200FFFFCF
:10063000FFFFFFFFFFFFFFFFFFFFE803D007FFFF04
:10064000060007003200FFFFFFFFFFFFFFFFFFFF75
:10065000FFFFD007E803FFFF060007003200FFFF9F
:10066000FFFFFFFFFFFFFFFFFFFFE803D007FFFFD4
:10067000060007003200FFFFFFFFFFFFFFFFFFFF45
:10068000FFFFD007E803FFFF060007003200FFFF6F
:10069000FFFFFFFFFFFFFFFFFFFFE803D007FFFFA4
:1006A000060007003200FFFFFFFFFFFFFFFFFFFF15
:1006B000FFFFD007E803FFFF060007003200FFFF3F
:1006C000FFFFFFFFFFFFFFFFFFFFE803D007FFFF74
:1006D000060007003200FFFFFFFFFFFFFFFFFFFFE5
:1006E000FFFFD007E803FFFF060007003200FFFF0F
:1006F000FFFFFFFFFFFFFFFFFFFFE803D007FFFF44
:10070000060007006400FFFFFFFFFFFFFFFFFFFF82
:10071000FFFFD007D007FFFF060007000000FFFF24
:10072000FFFFFFFFFFFFFFFFFFFFFFFFFFFFFFFFD9
:10073000060007001400FFFFFFFFFFFFFFFFFFFFA2
:10074000FFFFD007D007FFFF060007002D00FFFFC7
:10075000FFFFFFFFFFFFFFFFFFFFFFFFFFFFFFFFA9
:10076000060007002D00FFFFFFFFFFFFFFFFFFFF59
:10077000FFFFFFFFFFFFFFFF060007002D00FFFF49
:10078000FFFFFFFFFFFFFFFFFFFFFFFFFFFFFFFF79
:10079000060007002D00FFFFFFFFFFFFFFFFFFFF29
:1007A000FFFFFFFFFFFFFFFF060007002D00FFFF19
:1007B000FFFFFFFFFFFFFFFFFFFFFFFFFFFFFFFF49
:1007C000060007002D00FFFFFFFFFFFFFFFFFFFFF9
:1007D000FFFFFFFFFFFFFFFF060007002D00FFFFE9
:1007E000FFFFFFFFFFFFFFFFFFFFFFFFFFFFFFFF19
:1007F000060007002D00FFFFFFFFFFFFFFFFFFFFC9
:10080000FFFFFFFFFFFFFFFF060007002D00FFFFB8
:10081000FFFFFFFFFFFFFFFFFFFFFFFFFFFFFFFFE8
:10082000060007002D00FFFFFFFFFFFFFFFFFFFF98
:10083000FFFFFFFFFFFFFFFF060007002D00FFFF88
:10084000FFFFFFFFFFFFFFFFFFFFFFFFFFFFFFFFB8
:10085000060007002D00FFFFFFFFFFFFFFFFFFFF68
:10086000FFFFFFFFFFFFFFFF060007002D00FFFF58
:10087000FFFFFFFFFFFFFFFFFFFFFFFFFFFFFFFF88
:10088000060007002D00FFFFFFFFFFFFFFFFFFFF38
:10089000FFFFFFFFFFFFFFFF060007002D00FFFF28
:1008A000FFFFFFFFFFFFFFFFFFFFFFFFFFFFFFFF58
:1008B000060007002D00FFFFFFFFFFFFFFFFFFFF08
:1008C000FFFFFFFFFFFFFFFF060007002D00FFFFF8
:1008D000FFFFFFFFFFFFFFFFFFFFFFFFFFFFFFFF28
:1008E000060007002D00FFFFFFFFFFFFFFFFFFFFD8
:1008F000FFFFFFFFFFFFFFFF060007002D00FFFFC8
:10090000FFFFFFFFFFFFFFFFFFFFFFFFFFFFFFFFF7
:10091000060007002D00FFFFFFFFFFFFFFFFFFFFA7
:10092000FFFFFFFFFFFFFFFF060007002D00FFFF97
:10093000FFFFFFFFFFFFFFFFFFFFFFFFFFFFFFFFC7
:10094000060007002D00FFFFFFFFFFFFFFFFFFFF77
:10095000FFFFFFFFFFFFFFFF060007002D00FFFF67
:10096000FFFFFFFFFFFFFFFFFFFFFFFFFFFFFFFF97
:10097000060007002D00FFFFFFFFFFFFFFFFFFFF47
:10098000FFFFFFFFFFFFFFFF060007002D00FFFF37
:10099000FFFFFFFFFFFFFFFFFFFFE803FFFFFFFF7A
:1009A000060007002D00FFFFFFFFFFFFFFFFFFFF17
:1009B000FFFFD007E803FFFF060007002D00FFFF41
:1009C000FFFFFFFFFFFFFFFFFFFFD007D007FFFF85
:1009D000060007002D00FFFFFFFFFFFFFFFFFFFFE7
:1009E000FFFFD007D007FFFF060007002D00FFFF25
:1009F000FFFFFFFFFFFFFFFFFFFFE803D007FFFF41
:100A0000060007002D00FFFFFFFFFFFFFFFFFFFFB6
:100A1000FFFFE803D007FFFF060007002D00FFFFE0
:100A2000FFFFFFFFFFFFFFFFFFFFE803E803FFFFFC
:100A3000060007002D00FFFFFFFFFFFFFFFFFFFF86
:100A4000FFFFD007D007FFFF060007002D00FFFFC4
:100A5000FFFFFFFFFFFFFFFFFFFFFFFFFFFFFFFFA6
:100A6000060007002D00FFFFFFFFFFFFFFFFFFFF56
:100A7000FFFFFFFFFFFFFFFF060007002D00FFFF46
:100A8000FFFFFFFFFFFFFFFFFFFFFFFFFFFFFFFF76
:100A9000060007002D00FFFFFFFFFFFFFFFFFFFF26
:100AA000FFFFFFFFFFFFFFFF060007002D00FFFF16
:100AB000FFFFFFFFFFFFFFFFFFFFFFFFFFFFFFFF46
:100AC000060007002D00FFFFFFFFFFFFFFFFFFFFF6
:100AD000FFFFFFFFFFFFFFFF060007002D00FFFFE6
:100AE000FFFFFFFFFFFFFFFFFFFFFFFFFFFFFFFF16
:100AF000060007002D00FFFFFFFFFFFFFFFFFFFFC6
:100B0000FFFFFFFFFFFFFFFF060007002D00FFFFB5
:100B1000FFFFFFFFFFFFFFFFFFFFFFFFFFFFFFFFE5
:100B2000060007002D00FFFFFFFFFFFFFFFFFFFF95
:100B3000FFFFFFFFFFFFFFFF060007002D00FFFF85
:100B4000FFFFFFFFFFFFFFFFFFFFFFFFFFFFFFFFB5
:100B5000060007002D00FFFFFFFFFFFFFFFFFFFF65
:100B6000FFFFFFFFFFFFFFFF060007002D00FFFF55
:100B7000FFFFFFFFFFFFFFFFFFFFFFFFFFFFFFFF85
:100B8000060007002D00FFFFFFFFFFFFFFFFFFFF35
:100B9000FFFFFFFFFFFFFFFF060007002D00FFFF25
:100BA000FFFFFFFFFFFFFFFFFFFFFFFFE803FFFF68
:100BB000060007002D00FFFFFFFFFFFFFFFFFFFF05
:100BC000FFFFFFFFD007FFFF060007002D00FFFF1C
:100BD000FFFFFFFFFFFFFFFFFFFFFFFFFFFFFFFF25
:100BE000060007002D00FFFFFFFFFFFFFFFFFFFFD5
:100BF000FFFFFFFFFFFFFFFF060007002D00FFFFC5
:100C0000FFFFFFFFFFFFFFFFFFFFFFFFFFFFFFFFF4
:100C1000060007002D00FFFFFFFFFFFFFFFFFFFFA4
:100C2000FFFFFFFFFFFFFFFF060007002D00FFFF94
:100C3000FFFFFFFFFFFFFFFFFFFFFFFFE803FFFFD7
:100C4000060007002D00FFFFFFFFFFFFFFFFFFFF74
:100C5000FFFFE803D007FFFF060007002D00FFFF9E
:100C6000FFFFFFFFFFFFFFFFFFFFD007FFFFFFFFBB
:100C7000060007002D00FFFFFFFFFFFFFFFFFFFF44
:100C8000FFFFFFFFFFFFFFFF060007002D00FFFF34
:100C9000FFFFFFFFFFFFFFFFFFFFFFFFFFFFFFFF64
:100CA000060007002D00FFFFFFFFFFFFFFFFFFFF14
:100CB000FFFFFFFFFFFFFFFF060007002D00FFFF04
:100CC000FFFFFFFFFFFFFFFFFFFFFFFFFFFFFFFF34
:100CD000060007002D00FFFFFFFFFFFFFFFFFFFFE4
:100CE000FFFFE803FFFFFFFF060007002D00FFFFE7
:100CF000FFFFFFFFFFFFFFFFFFFFD007FFFFFFFF2B
:100D0000060007002D00FFFFFFFFFFFFFFFFFFFFB3
:100D1000FFFFE803FFFFFFFF060007002D00FFFFB6
:100D2000FFFFFFFFFFFFFFFFFFFFD007FFFFFFFFFA
:100D3000060007002D00FFFFFFFFFFFFFFFFFFFF83
:100D4000FFFFFFFFFFFFFFFF060007002D00FFFF73
:100D5000FFFFFFFFFFFFFFFFFFFFFFFFFFFFFFFFA3
:100D6000060007002D00FFFFFFFFFFFFFFFFFFFF53
:100D7000FFFFFFFFFFFFFFFF060007002D00FFFF43
:100D8000FFFFFFFFFFFFFFFFFFFFFFFFFFFFFFFF73
:100D9000060007002D00FFFFFFFFFFFFFFFFFFFF23
:100DA000FFFFFFFFFFFFFFFF060007002D00FFFF13
:100DB000FFFFFFFFFFFFFFFFFFFFFFFFFFFFFFFF43
:100DC000060007002D00FFFFFFFFFFFFFFFFFFFFF3
:100DD000FFFFFFFFFFFFFFFF060007002D00FFFFE3
:100DE000FFFFFFFFFFFFFFFFFFFFFFFFFFFFFFFF13
:100DF000060007002D00FFFFFFFFFFFFFFFFFFFFC3
:100E0000FFFFFFFFFFFFFFFF060007002D00FFFFB2
:100E1000FFFFFFFFFFFFFFFFFFFFFFFFFFFFFFFFE2
:100E2000060007002D00FFFFFFFFFFFFFFFFFFFF92
:100E3000FFFFFFFFFFFFFFFF060007002D00FFFF82
:100E4000FFFFFFFFFFFFFFFFFFFFFFFFFFFFFFFFB2
:100E5000060007002D00FFFFFFFFFFFFFFFFFFFF62
:100E6000FFFFFFFFFFFFFFFF060007002D00FFFF52
:100E7000FFFFFFFFFFFFFFFFFFFFFFFFFFFFFFFF82
:100E8000060007002D00FFFFFFFFFFFFFFFFFFFF32
:100E9000FFFFFFFFFFFFFFFF060007002D00FFFF22
:100EA000FFFFFFFFFFFFFFFFFFFFFFFFFFFFFFFF52
:100EB000060007002D00FFFFFFFFFFFFFFFFFFFF02
:100EC000FFFFFFFFFFFFFFFF060007002D00FFFFF2
:100ED000FFFFFFFFFFFFFFFFFFFFE803FFFFFFFF35
:100EE000060007002D00FFFFFFFFFFFFFFFFFFFFD2
:100EF000FFFFD007FFFFFFFF060007002D00FFFFE9
:100F0000FFFFFFFFFFFFFFFFFFFFFFFFFFFFFFFFF1
:100F1000060007002D00FFFFFFFFFFFFFFFFFFFFA1
:100F2000FFFFFFFFFFFFFFFF060007002D00FFFF91
:100F3000FFFFFFFFFFFFFFFFFFFFE803E803FFFFE7
:100F4000060007002D00FFFFFFFFFFFFFFFFFFFF71
:100F5000FFFFD007D007FFFF060007002D00FFFFAF
:100F6000FFFFFFFFFFFFFFFFFFFFE803E803FFFFB7
:100F7000060007002D00FFFFFFFFFFFFFFFFFFFF41
:100F8000FFFFD007D007FFFF060007000000FFFFAC
:100F9000FFFFFFFFFFFFFFFFFFFFFFFFFFFFFFFF61
:100FA000060007006400FFFFFFFFFFFFFFFFFFFFDA
:100FB000FFFFD007D007FFFF060007000000FFFF7C
:100FC000FFFFFFFFFFFFFFFFFFFFFFFFFFFFFFFF31
:100FD000060007007100FFFFFFFFFFFFFFFFFFFF9D
:100FE000FFFFD007D007FFFF060007000F00FFFF3D
:100FF000FFFFFFFFFFFFFFFFFFFFE803D007FFFF3B
:10100000060007004400FFFFFFFFFFFFFFFFFFFF99
:10101000FFFFD007D007FFFF060007000F00FFFF0C
:10102000FFFFFFFFFFFFFFFFFFFFD007E803FFFF0A
:10103000060007000F00FFFFFFFFFFFFFFFFFFFF9E
:10104000FFFFD007D007FFFF060007000F00FFFFDC
:10105000FFFFFFFFFFFFFFFFFFFFD007E803FFFFDA
:10106000060007003E00FFFFFFFFFFFFFFFFFFFF3F
:10107000FFFFD007D007FFFF060007000F00FFFFAC
:10108000FFFFFFFFFFFFFFFFFFFFE803D007FFFFAA
:10109000060007000F00FFFFFFFFFFFFFFFFFFFF3E
:1010A000FFFFD007D007FFFF060007000000FFFF8B
:1010B000FFFFFFFFFFFFFFFFFFFFFFFFFFFFFFFF40
:1010C000060007001400FFFFFFFFFFFFFFFFFFFF09
:1010D000FFFFD007D007FFFF060007000000FFFF5B
:1010E000FFFFFFFFFFFFFFFFFFFFFFFFFFFFFFFF10
:1010F000060007001400FFFFFFFFFFFFFFFFFFFFD9
:10110000FFFFD007D007FFFF060007003200FFFFF8
:10111000FFFFFFFFFFFFFFFFFFFFE803E803FFFF05
:10112000060007000E00FFFFFFFFFFFFFFFFFFFFAE
:10113000FFFFD007D007FFFF060007000E00FFFFEC
:10114000FFFFFFFFFFFFFFFFFFFFE803E803FFFFD5
:10115000060007000E00FFFFFFFFFFFFFFFFFFFF7E
:10116000FFFFD007D007FFFF060007000E00FFFFBC
:10117000FFFFFFFFFFFFFFFFFFFFE803E803FFFFA5
:10118000060007000E00FFFFFFFFFFFFFFFFFFFF4E
:10119000FFFFD007D007FFFF060007000E00FFFF8C
:1011A000FFFFFFFFFFFFFFFFFFFFE803E803FFFF75
:1011B000060007003200FFFFFFFFFFFFFFFFFFFFFA
:1011C000FFFFD007D007FFFF060007000000FFFF6A
:1011D000FFFFFFFFFFFFFFFFFFFFFFFFFFFFFFFF1F
:1011E000060007005302FFFFFFFFFFFFFFFFFFFFA7
:1011F000FFFFD007D007FFFF01000B001E00FFFF1D
:10120000FFFFFFFFFFFFFFFFFFFFE803E803FFFF14
:1012100001000B001E00FFFFFFFFFFFFFFFFFFFFAE
:10122000FFFFD007D007FFFF01000B001E00FFFFEC
:10123000FFFFFFFFFFFFFFFFFFFFE803E803FFFFE4
:1012400001000B001E00FFFFFFFFFFFFFFFFFFFF7E
:10125000FFFFD007D007FFFF01000B001E00FFFFBC
:10126000FFFFFFFFFFFFFFFFFFFFE803E803FFFFB4
:1012700001000B005F00FFFFFFFFFFFFFFFFFFFF0D
:10128000FFFFD007D007FFFF01000B001E00FFFF8C
:10129000FFFFFFFFFFFFFFFFFFFFE803E803FFFF84
:1012A00001000B005F00FFFFFFFFFFFFFFFFFFFFDD
:1012B000FFFFD007D007FFFF01000B001E00FFFF5C
:1012C000FFFFFFFFFFFFFFFFFFFFE803E803FFFF54
:1012D00001000B005F00FFFFFFFFFFFFFFFFFFFFAD
:1012E000FFFFD007D007FFFF01000B001E00FFFF2C
:1012F000FFFFFFFFFFFFFFFFFFFFE803E803FFFF24
:1013000001000B001E00FFFFFFFFFFFFFFFFFFFFBD
:10131000FFFFD007D007FFFF01000B001E00FFFFFB
:10132000FFFFFFFFFFFFFFFFFFFFE803E803FFFFF3
:1013300001000B001E00FFFFFFFFFFFFFFFFFFFF8D
:10134000FFFFD007D007FFFF01000B001E00FFFFCB
:10135000FFFFFFFFFFFFFFFFFFFFE803E803FFFFC3
:1013600001000B005F00FFFFFFFFFFFFFFFFFFFF1C
:10137000FFFFD007D007FFFF01000B001E00FFFF9B
:10138000FFFFFFFFFFFFFFFFFFFFE803E803FFFF93
:1013900001000B005F00FFFFFFFFFFFFFFFFFFFFEC
:1013A000FFFFD007D007FFFF01000B001E00FFFF6B
:1013B000FFFFFFFFFFFFFFFFFFFFE803E803FFFF63
:1013C00001000B005F00FFFFFFFFFFFFFFFFFFFFBC
:1013D000FFFFD007D007FFFF01000B001E00FFFF3B
:1013E000FFFFFFFFFFFFFFFFFFFFE803E803FFFF33
:1013F00001000B001E00FFFFFFFFFFFFFFFFFFFFCD
:10140000FFFFD007D007FFFF01000B001E00FFFF0A
:10141000FFFFFFFFFFFFFFFFFFFFE803E803FFFF02
:1014200001000B001E00FFFFFFFFFFFFFFFFFFFF9C
:10143000FFFFD007D007FFFF01000B001E00FFFFDA
:10144000FFFFFFFFFFFFFFFFFFFFE803E803FFFFD2
:1014500001000B005F00FFFFFFFFFFFFFFFFFFFF2B
:10146000FFFFD007D007FFFF01000B001E00FFFFAA
:10147000FFFFFFFFFFFFFFFFFFFFE803E803FFFFA2
:1014800001000B005F00FFFFFFFFFFFFFFFFFFFFFB
:10149000FFFFD007D007FFFF01000B001E00FFFF7A
:1014A000FFFFFFFFFFFFFFFFFFFFE803E803FFFF72
:1014B00001000B005F00FFFFFFFFFFFFFFFFFFFFCB
:1014C000FFFFD007D007FFFF01000B001E00FFFF4A
:1014D000FFFFFFFFFFFFFFFFFFFFE803E803FFFF42
:1014E00001000B001E00FFFFFFFFFFFFFFFFFFFFDC
:1014F000FFFFD007D007FFFF01000B001E00FFFF1A
:10150000FFFFFFFFFFFFFFFFFFFFE803E803FFFF11
:1015100001000B001E00FFFFFFFFFFFFFFFFFFFFAB
:10152000FFFFD007D007FFFF01000B001E00FFFFE9
:10153000FFFFFFFFFFFFFFFFFFFFE803E803FFFFE1
:1015400001000B005F00FFFFFFFFFFFFFFFFFFFF3A
:10155000FFFFD007D007FFFF01000B001E00FFFFB9
:10156000FFFFFFFFFFFFFFFFFFFFE803E803FFFFB1
:1015700001000B005F00FFFFFFFFFFFFFFFFFFFF0A
:10158000FFFFD007D007FFFF01000B001E00FFFF89
:10159000FFFFFFFFFFFFFFFFFFFFE803E803FFFF81
:1015A00001000B005F00FFFFFFFFFFFFFFFFFFFFDA
:1015B000FFFFD007D007FFFF01000B001E00FFFF59
:1015C000FFFFFFFFFFFFFFFFFFFFE803E803FFFF51
:1015D00001000B001E00FFFFFFFFFFFFFFFFFFFFEB
:1015E000FFFFD007D007FFFF01000B001E00FFFF29
:1015F000FFFFFFFFFFFFFFFFFFFFE803E803FFFF21
:1016000001000B001E00FFFFFFFFFFFFFFFFFFFFBA
:10161000FFFFD007D007FFFF01000B001E00FFFFF8
:10162000FFFFFFFFFFFFFFFFFFFFE803E803FFFFF0
:1016300001000B005F00FFFFFFFFFFFFFFFFFFFF49
:10164000FFFFD007D007FFFF01000B001E00FFFFC8
:10165000FFFFFFFFFFFFFFFFFFFFE803E803FFFFC0
:1016600001000B005F00FFFFFFFFFFFFFFFFFFFF19
:10167000FFFFD007D007FFFF01000B001E00FFFF98
:10168000FFFFFFFFFFFFFFFFFFFFE803E803FFFF90
:1016900001000B005F00FFFFFFFFFFFFFFFFFFFFE9
:1016A000FFFFD007D007FFFF01000B001E00FFFF68
:1016B000FFFFFFFFFFFFFFFFFFFFE803E803FFFF60
:1016C00001000B001E00FFFFFFFFFFFFFFFFFFFFFA
:1016D000FFFFD007D007FFFF01000B001E00FFFF38
:1016E000FFFFFFFFFFFFFFFFFFFFE803E803FFFF30
:1016F00001000B001E00FFFFFFFFFFFFFFFFFFFFCA
:10170000FFFFD007D007FFFF01000B001E00FFFF07
:10171000FFFFFFFFFFFFFFFFFFFFE803E803FFFFFF
:1017200001000B005F00FFFFFFFFFFFFFFFFFFFF58
:10173000FFFFD007D007FFFF01000B001E00FFFFD7
:10174000FFFFFFFFFFFFFFFFFFFFE803E803FFFFCF
:1017500001000B005F00FFFFFFFFFFFFFFFFFFFF28
:10176000FFFFD007D007FFFF01000B001E00FFFFA7
:10177000FFFFFFFFFFFFFFFFFFFFE803E803FFFF9F
:1017800001000B005F00FFFFFFFFFFFFFFFFFFFFF8
:10179000FFFFD007D007FFFF01000B000000FFFF95
:1017A000FFFFFFFFFFFFFFFFFFFFFFFFFFFFFFFF49
:1017B00001000B004F4B0A0D000A0D4D617263448E
:1017C00075696E6F20485020436F6E74726F6C2085
:1017D00076332E36200A0D00456E7465722048500F
:1017E000206F7220446973706C617920636F6D6D36
:1017F000616E64207374617274696E6720776974B6
:101800006820272A27206F72202740270A0D000A08
:101810000D73756172743120436F6D6D756E696300
:101820006174696F6E204F4B200A0D000A0D7375AD
:101830006172743220436F6D6D756E696361746996
:101840006F6E204F4B200A0D002A2A556E72656379
:101850006F676E697A656420436F6D6D616E642099
:101860005374617274204368617261637465720DB0
:101870000A00536574757020636F6D6D616E640D41
:101880000A0050616E656C20636F6D6D616E64203F
:101890002D2069676E6F7265640D0A002A2A496EF1
:1018A00076616C69642050616E656C20436F6D6D6C
:1018B000616E640D0A00446973706C617920636F16
:1018C0006D6D616E64202D20666F72776172646544
:1018D0006420746F20646973706C61790D0A005321
:1018E0006F756E6420636F6D6D616E64202D20696D
:1018F000676E6F7265640D0A00416C743120636F0E
:101900006D6D616E642C206F757470757420746FCA
:10191000206C69676874730D0A00416C743220632F
:101920006F6D6D616E642C206F75747075742074AA
:101930006F20736C617665206F75740D0A002A2A1A
:10194000496E76616C69642050616E656C20436FEE
:101950006D6D616E640D0A002A2A496E76616C69AC
:10196000642049324320436F6D6D616E640D0A003F
:10197000284850312073746F7029200D0A002848C0
:1019800050322073746F7029200D0A00284850339C
:101990002073746F7029200D0A0028416C6C204858
:1019A0005073202073746F7029200D0A002848504E
:1019B0003120686F6C6429200D0A002848503220BD
:1019C000686F6C6429200D0A002848503320686F26
:1019D0006C6429200D0A0028416C6C20485073204B
:1019E00020686F6C6429200D0A002848503120724D
:1019F000616E646F6D29200D0A00284850322072F4
:101A0000616E646F6D29200D0A00284850332072E2
:101A1000616E646F6D29200D0A0028416C6C2048AE
:101A20005073202072616E646F6D29200D0A0028AA
:101A3000485031206F6E29200D0A0028485032206E
:101A40006F6E29200D0A0028485033206F6E292020
:101A50000D0A0028416C6C2048507320206F6E29BD
:101A6000200D0A0028485031206F666629200D0A93
:101A70000028485032206F666629200D0A00284849
:101A80005033206F666629200D0A0028416C6C20B7
:101A900048507320206F666629200D0A00284850A0
:101AA0003120524329200D0A002848503220524349
:101AB00029200D0A002848503320524329200D0ABE
:101AC0000028416C6C2048507320524329200D0A95
:101AD0000028485031205465737429200D0A0028CD
:101AE000485032205465737429200D0A002848504C
:101AF00033205465737429200D0A0028416C6C2032
:101B0000485073205465737429200D0A00284558E5
:101B10005431204F6E29200D0A00284850312046AC
:101B20006C69636B657229200D0A002848503220C9
:101B3000466C69636B657229200D0A002848503392
:101B400020466C69636B657229200D0A0028416C80
:101B50006C20485020466C69636B657229200D0A21
:101B6000002848503120466C61736829200D0A0016
:101B70002848503220466C61736829200D0A0028DD
:101B800048503320466C61736829200D0A002841B3
:101B90006C6C20485020466C61736829200D0A0047
:101BA00028436C6F736520616C6C2070616E656C8E
:101BB0007329200D0A002853637265616D29200D79
:101BC0000A00285761766529200D0A0028466173AE
:101BD00074205761766529200D0A00284F70656EC4
:101BE00020436C6F7365205761766529200D0A00CC
:101BF0002843616E74696E61204D61726368696E1D
:101C00006720416E747329200D0A002853686F7293
:101C100074204369726375697429200D0A00284392
:101C2000616E74696E612044616E636529200D0ADE
:101C300000284C656961204D6573736167652920D3
:101C40000D0A0028446973636F2044616E6365293F
:101C5000200D0A002853657420746F205175696542
:101C60007429200D0A002853657420746F20576969
:101C70006465204177616B6529200D0A0028416C5D
:101C80006C207069652070616E656C7320746F20C4
:101C9000524329200D0A002853657420746F204197
:101CA00077616B6529200D0A002853657420746FD5
:101CB000204578636974656429200D0A0028536300
:101CC0007265616D204E6F2050616E656C732920C6
:101CD0000D0A0028527974686D69632050616E6541
:101CE0006C7329200D0A00284D61726368696E6764
:101CF00020416E74732050616E656C7329200D0A4B
:101D0000002850616E656C20576967676C652077A5
:101D10006974682053637265616D29200D0A00287B
:101D200057617665204279652042796529200D0A40
:101D300000284B6E696768742052696465722920B7
:101D40000D0A0000C201000100110011000C00008A
:101D5000E100000A0025002500210000960000197E
:101D600000390039003600127A00001F0046004694
:101D70000044008070000022004D004D004A000029
:101D80004B00003600750075007200403800004AB4
:101D9000009C009C009900802500007200EC00EC83
:101DA00000E900C0120000E900DA01DA01D70160A1
:101DB000090000D701B603B603B303B0040000B3B3
:101DC000036E076E076B072C010000DC0EC11DC1FE
:101DD0001DBE1D6364696E6F70737578585B00007B
:101DE00011241FBECFEFD8E0DEBFCDBF13E0A0E0CF
:101DF000B1E0ECE0F8E602C005900D92AC39B10715
:101E0000D9F716E0ACE9B3E001C01D92A535B107E2
:101E1000E1F70E94181F0C9404340C9400000E94F7
:101E20009E2608952F923F924F925F926F927F92DB
:101E30008F929F92AF92BF92CF92DF92EF92FF92DA
:101E40000F931F93DF93CF93CDB7DEB7A0970FB655
:101E5000F894DEBF0FBECDBF6B017C01611571052B
:101E60008105910521F480E30E949E264BC08824C1
:101E700099245401442E5524662477241E01089485
:101E8000211C311C8101080D191DC701B601A301D8
:101E900092010E94652CF80160830894811C911CBA
:101EA000A11CB11CC701B601A30192010E94652CBF
:101EB000C901DA016C017D01C114D104E104F1040E
:101EC00009F77101E80CF91C3E010894611C711CB2
:101ED000D501C4010197A109B1096C01C818D9083D
:101EE0000EC0F601EE0DFF1D80818A3010F4805D7A
:101EF00001C0895C0E949E260894E108F1086E14D6
:101F00007F0479F7A0960FB6F894DEBF0FBECDBF61
:101F1000CF91DF911F910F91FF90EF90DF90CF90C5
:101F2000BF90AF909F908F907F906F905F904F90F9
:101F30003F902F9008954AE00E94120F089590E07C
:101F4000A0E0B0E0BC01CD014AE00E94120F08956C
:101F50008DE00E949E268AE00E949E2608950E949F
:101F60009B0F0E94A80F089590E0A0E0B0E0BC0194
:101F7000CD014AE00E94120F0E94A80F089541155A
:101F8000510521F4862F0E949E2608950E94120F6B
:101F900008950E94BF0F0E94A80F0895EF92FF922C
:101FA0000F931F937B018C0197FF0BC08DE20E9462
:101FB0009E2610950095F094E094E11CF11C011D03
:101FC000111DC801B7014AE00E94120F1F910F9125
:101FD000FF90EF9008950E94CE0F0E94A80F0895E1
:101FE000AA2797FDA095BA2FBC01CD010E94CE0F64
:101FF0000895AA2797FDA095BA2FBC01CD010E9494
:10200000CE0F0E94A80F0895CF93DF93EC0102C07A
:102010000E949E26FE01219684918823C9F7DF91B4
:10202000CF9108950E9404100E94A80F0895CF93A5
:10203000DF93EC0103C021960E949E2688818823AD
:10204000D1F7DF91CF9108950E9417100E94A80F39
:1020500008950E949E2608950E949E260E94A80F21
:102060000895FC01108275836483738362834183C6
:10207000478346830895FC0190818181981710F071
:1020800080E00895A481B5816D938781815019F412
:102090008181A81BB1098783B583A4839FB7F89476
:1020A00080818F5F80839FBF81E00895FC018081E4
:1020B0008823E9F3A281B3812D918681815019F49F
:1020C0008181A81BB109B383A28386839FB7F8944B
:1020D0008081815080839FBF822F0895FC01808181
:1020E000882319F42FEF3FEF13C0A281B3812D9104
:1020F0008681815019F48181A81BB109B383A28321
:1021000086839FB7F8948081815080839FBF30E0A1
:10211000C9010895FC01808120E030E0882311F09E
:1021200021E030E0C90108958093BC0082E390E093
:102130009093F0038093EF030DC08091EF03909193
:10214000F003892B39F48091B900887F80939E0336
:1021500081E008958091BC0087FFEFCF8091B900A6
:10216000887F80939E0380E0089580919E03089568
:102170001092BC00089584E98093BC0082E390E053
:102180009093F0038093EF030DC08091EF03909143
:10219000F003892B39F48091B900887F80939E03E6
:1021A00081E008958091BC0084FDEFCF8091B9005B
:1021B000887F80939E0380E008950F931F93182FCC
:1021C000062F84EA0E9494108823C1F480919E0314
:1021D000883011F0803191F4110F102B1093BB0057
:1021E00084E80E949410882349F480919E03013072
:1021F00019F4803439F002C0883121F00E94BB10FC
:1022000081E001C080E01F910F9108958093BB0091
:1022100084E80E949410882321F00E94BB1081E082
:10222000089580919E03883211F480E008950E9401
:10223000BB1081E00895CF93DF93EC01662311F486
:1022400084EC01C084E80E949410882321F00E944D
:10225000BB1081E004C08091BB00888380E0DF91E7
:10226000CF910895FF920F931F93CF93DF93EB01CC
:10227000042FF22E6115710511F0442319F40E9408
:10228000BB1015C060E00E94DD10882381F410E0CF
:1022900006C089910E940611882349F41F5F101718
:1022A000C0F3FF2011F00E94BB1080E001C081E06C
:1022B000DF91CF911F910F91FF9008958F929F9280
:1022C000BF92CF92DF92EF92FF920F931F93DF9313
:1022D000CF930F92CDB7DEB76B01142F6115710547
:1022E00049F1442339F161E00E94DD10882311F5A2
:1022F000BB24E12EFF240894E108F1084E01089464
:10230000811C911C0CC0C40160E00E941B11882339
:1023100089F40C0D1D1D8981F8018083B3940B2D68
:1023200010E00E151F057CF3C40161E00E941B1133
:10233000882321F00E94BB1081E008C00C0D1D1DF8
:102340008981F80180830E94BB1080E00F90CF91BB
:10235000DF911F910F91FF90EF90DF90CF90BF9092
:102360009F908F9008951092B90098E49093B800D0
:10237000882311F0449A459A8FEF8093BB0084E044
:102380008093BC008FEE93E00E94F52208950E9496
:10239000472B08950E94322B089580E091E00E941F
:1023A000322B88EC90E020E931E0F9013197F1F728
:1023B0000197D9F708950E94F62A0895A0E0B0E0A9
:1023C000BC01CD010E94912A08950E94832A08959C
:1023D0000E946E2A08950E94322A0895A0E0B0E07B
:1023E000BC01CD010E94CD2908950F931F9388232E
:1023F000C9F481E080930D0480930E0481E290E0A3
:1024000090930204809301040E9473248DE593E06D
:102410000E94422484EA9FE062E00E94D0250E944C
:10242000692419C08930B8F4082F10E00150104019
:10243000F801E950FC4F108260ED77E00E947727A9
:1024400081E290E09093020480930104095F1B4FA6
:1024500081E0F80180831F910F9108951F93182F39
:102460000E947324112339F487E068EE73E00E9420
:10247000772788E003C0193028F4812F68EE73E0D5
:102480000E9477271F9108951F93182F809196031C
:10249000882321F08EE89BE10E94A926112319F0E0
:1024A0001336A1F407C01092BA031092BB03109226
:1024B000BC0307C081E08093BA038093BB03809381
:1024C000BC0310925204109251040FC082E080931A
:1024D000BA038093BB038093BC0384E6189FC001BA
:1024E000112490935204809351048091510490914F
:1024F00052049093100480930F0480910F049091E4
:1025000010049093F4038093F3031F9108951F9395
:10251000182F80919603882321F08FE79BE10E947A
:10252000A926112319F0133661F403C01092BA03DF
:1025300003C081E08093BA031092520410925104B8
:102540000BC082E08093BA0384E6189FC001112477
:1025500090935204809351041F9108951F93182F54
:1025600080919603882321F080E79BE10E94A926B1
:10257000112319F0133661F403C01092BB0303C09A
:1025800081E08093BB031092100410920F040BC0E3
:1025900082E08093BB0384E6189FC00111249093CE
:1025A000100480930F041F9108951F93182F80919A
:1025B0009603882321F081E69BE10E94A92611233E
:1025C00019F0133661F403C01092BC0303C081E01C
:1025D0008093BC031092F4031092F3030BC082E0CB
:1025E0008093BC0384E6189FC00111249093F403E8
:1025F0008093F3031F9108951F93182F80919603E2
:10260000882321F08DE49BE10E94A926112359F42F
:102610001092BA031092BB031092BC0310925204A2
:10262000109251040FC083E08093BA038093BB03E0
:102630008093BC0384E6189FC00111249093520438
:10264000809351048091510490915204909310040E
:1026500080930F0480910F04909110049093F403E1
:102660008093F3031F9108951F93182F8091960371
:10267000882321F08CE39BE10E94A926112339F4E1
:102680001092BA0310925204109251040BC083E0CE
:102690008093BA0384E6189FC001112490935204DA
:1026A000809351041F9108951F93182F80919603D2
:1026B000882321F08BE29BE10E94A926112339F4A3
:1026C0001092BB031092100410920F040BC083E011
:1026D0008093BB0384E6189FC001112490931004DB
:1026E00080930F041F9108951F93182F80919603D4
:1026F000882321F08AE19BE10E94A926112339F465
:102700001092BC031092F4031092F3030BC083E009
:102710008093BC0384E6189FC00111249093F403B6
:102720008093F3031F9108951F93182F80919603B0
:10273000882321F08DE09BE10E94A926112319F046
:10274000133661F403C01092BD0303C081E080938F
:10275000BD031092F2031092F1030BC082E080934C
:10276000BD0384E6189FC00111249093F203809367
:10277000F1031F910895823071F08330C1F0909180
:102780009603813001F5992321F081ED9AE10E94B1
:10279000A92683E023C080919603882321F08FED42
:1027A0009AE10E94A92683E08093BF030895809157
:1027B0009603882321F08DEE9AE10E94A92683E0FA
:1027C0008093C0030895992321F08BEF9AE10E9432
:1027D000A92683E08093C0038093BF038093BE0348
:1027E00008958230A1F0833001F1813079F582E0E3
:1027F0008093BE0381E06CED75E00E9477278091A5
:102800009603882309F440C08DE99AE11CC08093A7
:10281000BF0383E06CED75E00E94772780919603FB
:10282000882391F189EA9AE10EC082E08093C00387
:1028300085E06CED75E00E947727809196038823F0
:1028400019F185EB9AE10E94A926089582E0809310
:10285000C0038093BF038093BE0381E06CED75E0FD
:102860000E94772783E06CED75E00E94772785E072
:102870006CED75E00E94772780919603882321F004
:1028800081EC9AE10E94A9260895823089F0833074
:10289000E1F090919603813019F5992321F084E6B7
:1028A0009AE10E94A9261092BC0385E091E040C005
:1028B00080919603882321F081E79AE10E94A9265E
:1028C0001092BB0389E091E033C080919603882386
:1028D00021F08EE79AE10E94A9261092BA0326C041
:1028E000992321F08BE89AE10E94A9261092BC035B
:1028F0001092BB031092BA0385E091E00E94322B44
:1029000088EE93E020E931E0F9013197F1F7019782
:10291000D9F789E091E00E94322B88EE93E020E91C
:1029200031E0F9013197F1F70197D9F78DE091E0A6
:102930000E94322B0895823091F08330F1F0909113
:102940009603813031F5992321F08FE29AE10E94BC
:10295000A92681E08093BC0381E191E043C080918E
:102960009603882321F08BE39AE10E94A92681E057
:102970008093BB0386E191E035C080919603882364
:1029800021F087E49AE10E94A92681E08093BA03AE
:1029900027C0992321F083E59AE10E94A92681E0CE
:1029A0008093BC038093BB038093BA0381E191E0E1
:1029B0000E94322B88EE93E020E931E0F901319753
:1029C000F1F70197D9F786E191E00E94322B88EE6A
:1029D00093E020E931E0F9013197F1F70197D9F758
:1029E0008BE191E00E94322B0895823071F08330A8
:1029F000C1F090919603813001F5992321F08AEE80
:102A000099E10E94A92681E023C080919603882342
:102A100021F08AEF99E10E94A92681E08093BF030B
:102A2000089580919603882321F08AE09AE10E941C
:102A3000A92681E08093C0030895992321F08AE1BB
:102A40009AE10E94A92681E08093C0038093BF038E
:102A50008093BE0308958230A9F0833021F19091D4
:102A60009603813089F5992321F08DEA99E10E943E
:102A7000A9261092BE0381E06FEF7FEF0E947727B7
:102A800082E052C080919603882321F08BEB99E17C
:102A90000E94A9261092BF0383E06FEF7FEF0E9490
:102AA000772784E041C080919603882321F089EC48
:102AB00099E10E94A9261092C00385E06FEF7FEF95
:102AC0000E94772786E030C0992321F087ED99E1B5
:102AD0000E94A9261092BE031092BF031092C00359
:102AE00081E06FEF7FEF0E94772782E06FEF7FEF4B
:102AF0000E94772783E06FEF7FEF0E94772784E0C3
:102B00006FEF7FEF0E94772785E06FEF7FEF0E94E6
:102B1000772786E06FEF7FEF0E94772787E06FEFE0
:102B20007FEF0E94772788E06FEF7FEF0E94772783
:102B300008950F931F93CF93DF938230A1F08330DA
:102B400011F18130A1F580E799E10E94A926109248
:102B5000BE0381E00E94451481E06FEF7FEF0E9489
:102B6000772782E01FC08EE799E10E94A926109284
:102B7000BF0382E00E94451483E06FEF7FEF0E9465
:102B8000772784E00FC08CE899E10E94A926109273
:102B9000C00383E00E94451485E06FEF7FEF0E9441
:102BA000772786E06FEF7FEF0E9477272EC08AE9B4
:102BB00099E10E94A9261092BE031092BF031092C1
:102BC000C00380E00E944514C8E0D4E011E001E0B9
:102BD000812F6FEF7FEF0E94772709931F5F1730D8
:102BE000B9F787E06FEF7FEF0E94772700930D041E
:102BF00088E06FEF7FEF0E94772700930E0481E259
:102C000090E09093020480930104DF91CF911F9193
:102C10000F910895CF93DF93EC0180919603882361
:102C200021F089EF98E10E94A926CE0101960E9429
:102C30006E2A8DE00E94322ADF91CF910895CF93C2
:102C4000DF93EC0180919603882321F089EF98E1CE
:102C50000E94A926CE0101960E94322B8DE00E948F
:102C6000F62ADF91CF91089580919603882321F071
:102C70008FED98E10E94A92608951F93CF93DF93CB
:102C8000EC01162F80919603882321F086EB98E1C2
:102C90000E94A926133038F0CE0101960E94322BF3
:102CA0008DE00E94F62ADF91CF911F9108950F9336
:102CB0001F93DF93CF93CDB7DEB7A3970FB6F894EA
:102CC000DEBF0FBECDBF282FE82FF0E0ED33F105BA
:102CD00008F0B1C1EC5CFF4FEE0FFF1F0590F491BF
:102CE000E02D09940E9473248DE593E00E94422414
:102CF00084EA9FE062E00E94D0250E9469248091CE
:102D00009603882309F4BFC180EA9BE114C00E94A6
:102D1000732484E091E064E00E94D0258DE593E087
:102D20000E9442240E94692480919603882309F41A
:102D3000AAC186EB9BE10E94A926A5C10E9473242B
:102D40008CE194E061E20E94D0258DE593E00E9441
:102D500042240E94692480919603882309F493C138
:102D600080EF9BE1E8CF0E94732484E397E06AE55B
:102D70000E94D0250E9460240E94692480919603BD
:102D8000882309F480C18EE19CE1D5CF0E94732491
:102D90008DE593E00E94422484EA9FE062E00E9475
:102DA000D0250E94692480919603882309F46BC181
:102DB00081E39CE1C0CF0E9473240E94602484EDD3
:102DC0009FE06AE00E94D02533C10E9473248DE504
:102DD00093E00E94422484EA9FE062E00E94D025B2
:102DE0000E9469240E94602480E00E9499158091CD
:102DF0009603882309F447C184E59CE19CCF0E9497
:102E000073248DE593E00E94422484EA9FE062E00F
:102E10000E94D0250E9469240E94602480E00E94C4
:102E2000991580919603882309F42DC186E69CE1CB
:102E300082CF80919603882309F425C18DE79CE118
:102E40007ACF0E9473248DE593E00E94422484EAA5
:102E50009FE062E00E94D0250E9469240E946024C5
:102E600080E00E94991580919603882309F40BC194
:102E700087E99CE160CF0E9473248DE593E00E9476
:102E8000422484EA9FE062E00E94D0250E946924E7
:102E90000E94602480E00E94991580919603882307
:102EA00009F4F1C089EA9CE146CF0E947324809125
:102EB0009603882309F4E7C08DEB9CE13CCF0E9488
:102EC000732484EF90E16AE00E94D02585E493E0CA
:102ED0000E9442240E94692480919603882309F469
:102EE000D2C081E09DE127CF0E9473248CE092E064
:102EF00066E00E94D0250E9460240E94692480918F
:102F00009603882309F4BFC082EC9BE114CF0E9492
:102F100073248CE992E06AE00E94D0250E9460242C
:102F20000E94692480919603882309F4ACC08CEC3C
:102F30009BE101CF0E9473248CE893E066E00E943D
:102F4000D0250E9460240E946924809196038823E2
:102F500009F499C08BED9BE1EECE0E9473248CE1C5
:102F600094E061E20E94D0258DE593E00E94422426
:102F70000E94692480919603882309F484C087EE17
:102F80009CE1D9CE0E94732484E691E064E00E9423
:102F9000D02585E793E00E9442240E946924809115
:102FA0009603882309F46FC08BE09CE1C4CE0E9495
:102FB000732484E397E06AE50E94D0250E94602490
:102FC000809196038823A1F183ED9CE12FC00E949C
:102FD000732484EC90E162E00E94D0258DE593E0BB
:102FE0000E94422480919603882311F18FE19DE194
:102FF0001DC00E94732484EC91E063E00E94D02500
:103000008DE593E00E94422413C00E94732484EE55
:1030100091E16EE30E94D0258FE993E00E94422463
:1030200080919603882321F081E39DE10E94A926E7
:103030000E94692428C000D000D000D0EDB7FEB7B0
:1030400031968E010F5F1F4FADB7BEB712961C931E
:103050000E93119780E291E09383828324831582FB
:103060000E94DA2D8DB79EB706960FB6F8949EBFD4
:103070000FBE8DBF0E94602480919503882319F0B4
:10308000C8010E94D826A3960FB6F894DEBF0FBEE3
:10309000CDBFCF91DF911F910F910895DF93CF9313
:1030A0000F92CDB7DEB780919903882369F0109213
:1030B00099032C9A81E089838AE1BE016F5F7F4F7B
:1030C00041E021E00E9432110F90CF91DF910895ED
:1030D000DF93CF930F92CDB7DEB78091980388230B
:1030E00069F0109298032B9A81E089838BE1BE01ED
:1030F0006F5F7F4F41E021E00E9432110F90CF912E
:10310000DF910895DF93CF930F92CDB7DEB7809113
:103110009703882369F0109297032A9A81E08983A4
:1031200089E1BE016F5F7F4F41E021E00E943211D3
:103130000F90CF91DF910895DF93CF930F92CDB78A
:10314000DEB780919903813071F081E0809399031B
:103150002C9882E089838AE1BE016F5F7F4F41E056
:1031600021E00E9432110F90CF91DF910895DF93FB
:10317000CF930F92CDB7DEB780919803813071F075
:1031800081E0809398032B9882E089838BE1BE01D4
:103190006F5F7F4F41E021E00E9432110F90CF918D
:1031A000DF910895DF93CF930F92CDB7DEB7809173
:1031B0009703813071F081E0809397032A9882E031
:1031C000898389E1BE016F5F7F4F41E021E00E946A
:1031D00032110F90CF91DF910895DF93CF930F922B
:1031E000CDB7DEB780919903813071F081E0809393
:1031F00099032C9883E089838AE1BE016F5F7F4F3A
:1032000041E021E00E9432110F90CF91DF910895AB
:10321000DF93CF930F92CDB7DEB7809198038130C3
:1032200071F081E0809398032B9883E089838BE190
:10323000BE016F5F7F4F41E021E00E9432110F908D
:10324000CF91DF910895DF93CF930F92CDB7DEB783
:1032500080919703813071F081E0809397032A98E1
:1032600083E0898389E1BE016F5F7F4F41E021E008
:103270000E9432110F90CF91DF9108956F927F924B
:103280008F929F92AF92BF92CF92DF92EF92FF9276
:103290000F931F93DF93CF93CDB7DEB7C154D040C8
:1032A0000FB6F894DEBF0FBECDBFA82E762E672EC8
:1032B000B42E83E491E00E94D82600D000D000D044
:1032C000EDB7FEB731968E010F5F1F4FADB7BEB79A
:1032D00012961C930E93119788E591E09383828355
:1032E000A48215820E94DA2D8DB79EB706960FB67E
:1032F000F8949EBF0FBE8DBFC8010E94D82600D093
:1033000000D000D0EDB7FEB73196ADB7BEB712967C
:103310001C930E9311978CE691E093838283B48281
:1033200015820E94DA2D8DB79EB706960FB6F894D7
:103330009EBF0FBE8DBFC8010E94D82682E891E0D3
:103340000E94D826272D362DC9016C01FF24E02EBE
:10335000012F8FE8882E81E0982E28C0ADB7BEB728
:1033600018970FB6F894BEBF0FBEADBFEDB7FEB74E
:1033700031961196EC92119712960C939382828259
:10338000F4821582D6018D916D01868317820E9489
:10339000DA2D8DB79EB708960FB6F8949EBF0FBE74
:1033A0008DBF8E2D902F0E94D826F394FB14B0F27F
:1033B0008FE991E00E94D8268A2D672D762D4B2D1E
:1033C00021E00E943211CF5BDF4F0FB6F894DEBFD1
:1033D0000FBECDBFCF91DF911F910F91FF90EF9066
:1033E000DF90CF90BF90AF909F908F907F906F9025
:1033F00008951F93CF93DF93EC01CB010E94782DAA
:10340000182FCE0162EA71E00E949B2D009741F4D3
:1034100084EB97E10E94A926812F0E94571616C1BE
:10342000CE0165EA71E00E949B2D009741F484EB88
:1034300097E10E94A926812F0E942E1207C1CE017A
:1034400068EA71E00E949B2D009741F484EB97E1BC
:103450000E94A926812F0E94F511F8C0CE016BEAC7
:1034600071E00E949B2D009741F484EB97E10E944C
:10347000A926812F0E942B15E9C0CE016EEA71E0CA
:103480000E949B2D009741F484EB97E10E94A926AE
:10349000812F0E949915DAC0CE0161EB71E00E9484
:1034A0009B2D009741F484EB97E10E94A926812F80
:1034B0000E94F514CBC0CE0164EB71E00E949B2DFD
:1034C000009741F484EB97E10E94A926812F0E9486
:1034D0009B14BCC0CE0167EB71E00E949B2D00974E
:1034E00041F484EB97E10E94A926812F0E944514A4
:1034F000ADC0CE016AEB71E00E949B2D009741F4B4
:1035000084EB97E10E94A926812F0E94F1139EC0AF
:10351000CE016DEB71E00E949B2D009741F484EB8E
:1035200097E10E94A926812F0E94BB138FC0CE0174
:1035300060EC71E00E949B2D009741F484EB97E1D1
:103540000E94A926812F0E94941380C0CE0163ECB3
:1035500071E00E949B2D009741F484EB97E10E945B
:10356000A926812F0E94741371C0CE0166EC71E010
:103570000E949B2D009741F484EB97E10E94A926BD
:10358000812F0E94541362C0CE0169EC71E00E9449
:103590009B2D009741F484EB97E10E94A926812F8F
:1035A0000E94341353C0CE016CEC71E00E949B2D3D
:1035B000009741F484EB97E10E94A926812F0E9495
:1035C000FC1244C0CE016FEC71E00E949B2D00976D
:1035D00041F484EB97E10E94A926812F0E94D51225
:1035E00035C0CE0162ED71E00E949B2D009741F441
:1035F00084EB97E10E94A926812F0E94AE1226C07B
:10360000CE0165ED71E00E949B2D009741F484EBA3
:1036100097E10E94A926812F0E94871217C0CE0130
:1036200068ED71E00E949B2D009741F484EB97E1D7
:103630000E94A926812F0E94441208C08091950300
:10364000882321F08EE399E10E94A926DF91CF9192
:103650001F910895DF93CF9300D000D000D0CDB755
:10366000DEB7FC01653019F480818A3249F080911F
:1036700095038823B1F08EE399E10E94A92611C039
:103680008181898382818A831B8283818C83848167
:103690008D831E82CE010196BE016C5F7F4F0E941A
:1036A000F91926960FB6F894DEBF0FBECDBFCF91A5
:1036B000DF910895DF93CF9300D000D000D0CDB735
:1036C000DEB7FC0180818A3349F08091950388231D
:1036D000B1F08CE998E10E94A92611C0818189830B
:1036E00082818A831B8283818C8384818D831E8265
:1036F000CE010196BE016C5F7F4F0E94F91926969C
:103700000FB6F894DEBF0FBECDBFCF91DF91089505
:10371000EF92FF920F931F93DF93CF9300D000D0CF
:103720000F92CDB7DEB78C017B01DA018C91873225
:1037300009F44BC0883721F0823209F071C02BC0E8
:1037400000D000D000D02DB73EB72F5F3F4F11966D
:10375000EDB7FEB7B283A1838BED91E0F9019383BE
:103760008283CE010296958384830E94FE2D482F8A
:103770008DB79EB706960FB6F8949EBF0FBE8DBF4D
:10378000442309F485C02A813B812F3F310509F08C
:1037900008F46FC07AC021E011969C91119799238B
:1037A00009F475C09983F7018081F801E80FF11DD4
:1037B0009083F70180818F5F8083882309F465C03F
:1037C0002F5F11962F3F41F762C000D000D000D08C
:1037D0002DB73EB72F5F3F4F1196EDB7FEB7B283BF
:1037E000A1838EED91E0F90193838283CE0101964E
:1037F000958384830E94FE2D482F8DB79EB7069631
:103800000FB6F8949EBF0FBE8DBF442309F440C08D
:10381000F7018081080F111D8981F80180832FC075
:1038200000D000D000D02DB73EB72F5F3F4FEDB78F
:10383000FEB75283418381EE91E0F9019383828345
:10384000CE010496958384830E94FE2D482F8DB768
:103850009EB706960FB6F8949EBF0FBE8DBF442349
:10386000B9F02C813D81C90180589F4F805891400B
:1038700060F4F7018081080F111DF8012083F70122
:1038800080818F5F8083882319F440E001C041E08C
:10389000842F0F900F900F900F900F90CF91DF918A
:1038A0001F910F91FF90EF9008954F925F926F924A
:1038B0007F928F929F92AF92BF92CF92DF92EF92C0
:1038C000FF920F931F93DF93CF93CDB7DEB7C6540C
:1038D000D1400FB6F894DEBF0FBECDBF8C01198268
:1038E00080918702909188029B838A83623058F48A
:1038F00080919503882321F088E599E10E94A9260B
:1039000084EE91E017C1D8018C91863259F08091F4
:103910009503882321F088E599E10E94A9268CEE81
:1039200091E008C1C8010E94322B8DE00E94F62A66
:10393000C8010196BE016E5F7F4F0E94962D8C01DB
:10394000009759F480919503882321F088E599E147
:103950000E94A92684EF91E0EDC000D000D000D0F5
:10396000EDB7FEB73196ADB7BEB712969C938E9366
:1039700011978CEF91E093838283CE010496958317
:1039800084830E94FE2D2C813D81EDB7FEB73696D3
:103990000FB6F894FEBF0FBEEDBF2F3F310530F5D7
:1039A000F82EE22E882319F14DB75EB748505040EB
:1039B0000FB6F8945EBF0FBE4DBFEDB7FEB73196A0
:1039C000CE010696ADB7BEB712969C938E93119713
:1039D0008FEF91E09383828315830483268317827C
:1039E0000E94DA2DEDB7FEB738961BC0EE2400D04A
:1039F00000D000D0EDB7FEB73196CE010696ADB738
:103A0000BEB712969C938E93119784E292E09383B3
:103A10008283158304830E94DA2DFF24EDB7FEB75D
:103A200036960FB6F894FEBF0FBEEDBF8E010A5F4B
:103A30001F4FC8010E94D826E7FC03C0FF2009F0F1
:103A400047C080919503882321F088E599E10E9481
:103A5000A92686E492E06EC08EE492E00E94D82609
:103A6000C8010E94D8268FE991E00E94D826C301A0
:103A7000B401A8010E94881BF82E882319F086E55E
:103A800092E002C083E692E00E94D82600D000D0E7
:103A900000D0EDB7FEB73196ADB7BEB71196CC9258
:103AA00011971296DC92B382A28289818483158257
:103AB0000E94DA2DEDB7FEB736960FB6F894FEBF2A
:103AC0000FBEEDBFC6010E94D826FF20A1F428C07A
:103AD00032E0432E512C4C0E5D1E27E4622E712CD9
:103AE0006C0E7D1E4E010894811C911C680191E7AB
:103AF000A92E92E0B92E80E090E0B2010E94962DAE
:103B00008C01009709F0A8CFFF2051F04981442390
:103B100039F08E2DBE01695B7F4F0E943E190CC0AB
:103B200080919503882321F088E599E10E94A926D8
:103B30008FE792E00E94D826CA5BDE4F0FB6F8945A
:103B4000DEBF0FBECDBFCF91DF911F910F91FF90D0
:103B5000EF90DF90CF90BF90AF909F908F907F902D
:103B60006F905F904F9008952091C1038D3071F454
:103B7000E22FF0E0EF5EFB4F10821092C103CB0109
:103B800061E174E00E94A42D81E00895E22FF0E04D
:103B9000EF5EFB4F8083203410F080E008952F5FAC
:103BA0002093C10380E008950F931F938091B70382
:103BB0009091B8030E9492328C0180918D03909174
:103BC0008E030E948A32080F111DC8011F910F91A8
:103BD0000895FF920F931F93DF93CF93CDB7DEB776
:103BE00027970FB6F894DEBF0FBECDBF8C01809132
:103BF0009603882321F082E798E10E94A926F80124
:103C00008081833209F099C0F801818189838281A2
:103C10008A831B8283818C8384818D8385818E83BB
:103C20001F82CE0104960E94782DF82E8E010F5F20
:103C30001F4FC80169E972E00E949B2D0097B9F4FB
:103C4000FF2039F48091B7039091B80360E070E0F1
:103C500009C0F1E0FF1641F48091B7039091B803D9
:103C60006FEF77E00E94A6320E94D41D5CC0C801AD
:103C70006CE972E00E949B2D009709F041C08F2DE6
:103C80006AE00E94462C292F8F2D0E94462CE82F97
:103C9000F0E0EA5AFB4F2083213019F0222309F487
:103CA000108260E070E020E030E041E050E0F90197
:103CB000E95AFB4F8081882351F0CA01022E02C0CD
:103CC000880F991F0A94E2F7682B792B0BC0CA0161
:103CD000022E02C0880F991F0A94E2F780959095F2
:103CE000682379232F5F3F4F2830310501F78091FA
:103CF000B7039091B8030E94A6320E94D41D13C04E
:103D0000C8016FE972E00E949B2D0097B1F48CE02E
:103D10008F1580F080918D0390918E036F2D0E94FE
:103D200098320E94D41DBC0180918F039091900322
:103D30000E94A63284EB97E106C080919503882308
:103D400021F089E892E00E94A92627960FB6F89400
:103D5000DEBF0FBECDBFCF91DF911F910F91FF90BE
:103D60000895CF93DF93EC018881DE010D90002050
:103D7000E9F71197AC1BBD0BAA2319F484EB97E16B
:103D800047C0853281F1863238F48332B1F1843212
:103D9000F0F48132B9F522C08A3279F08B3218F40E
:103DA000863281F525C08A3319F0803459F50AC06E
:103DB000CE016A2F0E945A1B2DC0CE016A2F0E948D
:103DC0002A1B28C0CE016A2F0E943D1623C0809175
:103DD00096038823F9F08FED98E11AC0CE016A2F7F
:103DE0000E941F1617C0CE016A2F0E940A1612C029
:103DF000CE016A2F0E94551C0DC0CE016A2F0E9471
:103E0000E91D08C080919503882321F089E498E199
:103E10000E94A926DF91CF9108958D3011F08A304C
:103E200021F48AE00E949E268DE00E949E2608953D
:103E3000AF92BF92CF92DF92EF92FF920F931F93B8
:103E4000DF93CF93CDB7DEB7CF55D0400FB6F89400
:103E5000DEBF0FBECDBF0E943A2789EB97E10E94DB
:103E6000A92688ED97E10E94A92660E679E080E026
:103E700090E00E94912A60E875E280E090E00E9464
:103E8000CD298FE098E10E94832A80E395E720E91D
:103E900031E0F9013197F1F70197D9F70E94CD117F
:103EA0000E94022620E931E007C088E893E1F90189
:103EB0003197F1F70197D9F7F999F7CF0E94D41DFF
:103EC0008C0180918F03909190030E9492326C013B
:103ED0008DB79EB708970FB6F8949EBF0FBE8DBFE3
:103EE000EDB7FEB731967E010894E11CF11CADB729
:103EF000BEB71296FC92EE92119752EAA52E52E0AE
:103F0000B52EB382A28215830483D782C6820E9413
:103F1000DA2DEDB7FEB738960FB6F894FEBF0FBE98
:103F2000EDBFC7010E94D826C016D10609F455C0BE
:103F3000C70160EC72E00E94A42DC7010E94D82640
:103F40008091B7039091B80360E070E00E94A632C0
:103F500080918D0390918E0367E00E949832C70193
:103F600067EF72E00E94A42DC7010E94D8260E942C
:103F7000D41D8C018DB79EB708970FB6F8949EBFDD
:103F80000FBE8DBFEDB7FEB73196ADB7BEB7129677
:103F9000FC92EE921197B382A28215830483D7829A
:103FA000C6820E94DA2DEDB7FEB738960FB6F894A8
:103FB000FEBF0FBEEDBFC7010E94D82680918F03C0
:103FC00090919003B8010E94A632C7016EE073E0A1
:103FD0000E94A42DC7010E94D8268091B70390911A
:103FE000B8030E949232AC0120E030E061E070E062
:103FF000A1E0F901E95AFB4F1082CB01022E02C069
:10400000880F991F0A94E2F784239523892B09F0DE
:10401000A0832F5F3F4F2830310559F70E940428B5
:104020000E9475230E94F92581E00E94B31181E06E
:1040300094E00E94F5228DEF93E00E94F52285E046
:1040400094E00E94F52283E594E00E94F52283EF3C
:1040500093E00E94F5228FE094E00E94F52281E532
:1040600094E00E94F52283E094E00E94F52285E529
:1040700094E00E94F52285EF93E00E94F5228FEFF5
:1040800093E00E94F52281EF93E00E94F522229AAC
:10409000239A249A3A9A0E9482180E9468180E94D1
:1040A0004E18429884EA9FE062E00E94D0250E9468
:1040B00069244FE1E42EF12CEC0EFD1E0E9499269E
:1040C000882371F00E948A26182F0E940D1F812FCD
:1040D000B7010E94B41D882319F0C7010E94B11EC8
:1040E0008091BE03823059F481E06CED75E00E944E
:1040F00077270E94B827BC0182E00E947727809131
:10410000BF03823059F483E06CED75E00E9477279D
:104110000E94B827BC0184E00E9477278091C003E9
:10412000823059F485E06CED75E00E9477270E949B
:10413000B827BC0186E00E9477278091BE038130BA
:1041400009F044C08091FD039091FE03892BF1F5A5
:1041500084E190E068EC70E00E94C92B9093FE032C
:104160008093FD0388EE93E060ED77E00E94C92B19
:10417000BC0181E00E94772788EE93E060ED77E054
:104180000E94C92BBC0182E00E94772761E070E0A9
:1041900080E090E029E130E040E050E00E94012C16
:1041A0009B01AC0181E0B9010E94552461E070E0FF
:1041B00080E090E029E130E040E050E00E94012CF6
:1041C0009B01AC0182E0B9010E9455248091BF039C
:1041D000813009F044C08091050490910604892B38
:1041E000F1F584E190E068EC70E00E94C92B9093B7
:1041F00006048093050488EE93E060ED77E00E946A
:10420000C92BBC0183E00E94772788EE93E060ED24
:1042100077E00E94C92BBC0184E00E94772761E00F
:1042200070E080E090E029E130E040E050E00E9462
:10423000012C9B01AC0183E0B9010E94552461E08F
:1042400070E080E090E029E130E040E050E00E9442
:10425000012C9B01AC0184E0B9010E94552480919E
:10426000C003813009F044C08091530490915404FC
:10427000892BF1F584E190E068EC70E00E94C92B95
:10428000909354048093530488EE93E060ED77E0BC
:104290000E94C92BBC0185E00E94772788EE93E03D
:1042A00060ED77E00E94C92BBC0186E00E94772771
:1042B00061E070E080E090E029E130E040E050E033
:1042C0000E94012C9B01AC0185E0B9010E9455249C
:1042D00061E070E080E090E029E130E040E050E013
:1042E0000E94012C9B01AC0186E0B9010E9455247B
:1042F0004091BE03433049F08091BF03833029F0E1
:104300008091C003833009F08DC08091FF039091AC
:104310000004892B09F086C08091C603813110F01A
:104320001092C6038091C6038F5F8093C60328EC6A
:1043300030E0309300042093FF0390E0FC013197BC
:10434000E131F105E0F5EF58FF4FEE0FFF1F05904B
:10435000F491E02D09948CED95E020C08CED95E072
:1043600011C080ED97E002C088EE93E09093C50302
:104370008093C4038CED95E01EC080ED97E017C0DC
:1043800080ED97E09093C5038093C40388EE93E09B
:1043900012C088EE93E00BC088EE93E09093C503C3
:1043A0008093C40380ED97E006C08CED95E0909378
:1043B000C5038093C4039093C3038093C203433027
:1043C00071F46091C4037091C50381E00E94772766
:1043D0006091C2037091C30382E00E9477278091AD
:1043E000BF03833069F46091C4037091C5030E94D8
:1043F00077276091C2037091C30384E00E947727FE
:104400008091C003833071F46091C4037091C5033F
:1044100085E00E9477276091C2037091C30386E014
:104420000E9477278091BD03813051F0813050F098
:10443000823049F48091F1039091F203892B11F0BD
:10444000429A01C042988091BC03813069F081306A
:1044500030F1823019F0833089F509C08091F3037F
:104460009091F403892BD9F00E94231927C08091E1
:10447000F3039091F403892B91F0809103049091C0
:104480000404892BD9F41A990DC083E090E06AE006
:1044900070E00E94C92B90930404809303040E944F
:1044A00082180CC085E090E064E170E00E94C92BA6
:1044B00090930404809303040E94D2188091BB035C
:1044C000813069F0813030F1823019F0833089F524
:1044D00009C080910F0490911004892BD9F00E949B
:1044E000081927C080910F0490911004892B91F036
:1044F0008091550490915604892BD9F41B990DC0D5
:1045000083E090E06AE070E00E94C92B909356042B
:10451000809355040E9468180CC085E090E064E127
:1045200070E00E94C92B90935604809355040E941A
:10453000B7188091BA03813069F0813030F1823050
:1045400019F0833089F509C080915104909152048B
:10455000892BD9F00E94ED1827C0809151049091C9
:104560005204892B91F08091F5039091F603892BE9
:10457000D9F41C990DC083E090E06AE070E00E94DD
:10458000C92B9093F6038093F5030E944E180CC03C
:1045900085E090E064E170E00E94C92B9093F603FF
:1045A0008093F5030E949C1880910104909102046D
:1045B000892B09F083CD07E014E091E0D8018C91BC
:1045C000882369F0892F6FEF7FEFA0969FAFA097A8
:1045D0000E947727F8011082A0969FADA0970F5FE9
:1045E0001F4F9F5F993051F769CD9C01ACE6B4E055
:1045F000E0E0F0E08D919C911197892B41F4EE0F52
:10460000FF1FE459FB4F3183208381E008953196E9
:104610001296E431F10571F780E008959C01ACE653
:10462000B4E0E0E0F0E08D919C9111978217930740
:1046300041F4EE0FFF1FE459FB4F1182108281E01D
:10464000089531961296E431F10569F780E00895F6
:104650009C018091650490916604892B19F4E0E037
:10466000F0E013C08091670490916804892B19F4DD
:10467000E1E0F0E00AC08091690490916A04892B1E
:1046800011F080E00895E2E0F0E0EE0FFF1FEB593B
:10469000FB4F3183208381E008959C018091650464
:1046A000909166048217930719F4E0E0F0E015C0DA
:1046B00080916704909168048217930719F4E1E0F0
:1046C000F0E00BC08091690490916A04821793070F
:1046D00011F080E00895E2E0F0E0EE0FFF1FEB59EB
:1046E000FB4F1182108281E008953B9A84B582606D
:1046F00084BD8FEC87BD16BCEEE6F0E08081826061
:10470000808385B5846085BD789408951F920F924B
:104710000FB60F9211242F933F934F935F936F9394
:104720007F938F939F93AF93BF93EF93FF9390915A
:10473000C703923030F48FEC87BD9F5F9093C7031F
:1047400086C080ED87BD1092C70380919704909139
:104750009804019690939804809397048091940410
:104760009091950401969093950480939404ACE6FF
:10477000B4E0ED91FC911197309749F080819181DF
:10478000892B29F0808191810197918380831296F2
:1047900084E0A439B80769F780916B048F5F809338
:1047A0006B0480916B04843611F410926B04809139
:1047B000C8038F5F8093C803843661F580916304DA
:1047C0009091640401969093640480936304109222
:1047D000C803809196048F5F80939604809196041D
:1047E0008C33C1F410929604809199048F5F80936A
:1047F0009904809199048C3369F410929904809102
:104800009A048F5F80939A0480919A04883111F4FE
:1048100010929A048091960480FF16C0439AE0910A
:104820006504F0916604309709F00995E0916704FA
:10483000F0916804309709F00995E0916904F091CE
:104840006A04309719F403C04398E9CF0995FF91A2
:10485000EF91BF91AF919F918F917F916F915F91F8
:104860004F913F912F910F900FBE0F901F90189571
:104870009093AC048093AB0408951092AC04109212
:10488000AB040895AC0120E030E0F901E753FC4FA0
:10489000DA01A20FB31F8D919C91918380832E5FCB
:1048A0003F4F2031310589F70895883040F4E82FD3
:1048B000F0E0EE0FFF1FE753FC4F71836083089514
:1048C000E9ECF3E01192119283E0E93DF807D1F7AA
:1048D00008951092D90381E08093DA03089581E06E
:1048E0008093DA0308951092DA031092BE041092B6
:1048F000BD04E091AB04F091AC04309709F0099548
:104900000895982F8091DD03981710F49093D903A0
:104910000895AF92BF92CF92DF92EF92FF920F93E2
:104920001F93CF93DF938C0170E0CB01880F991F09
:10493000860F971FAC0173E0440F551F7A95E1F77E
:104940004C5E5F4F9801240F351F4E5F5F4F400F45
:10495000511F5C01AA0CBB1CAA0CBB1CC1E0D0E01F
:10496000F901C590D490FA01E590F4902C2FCC1564
:10497000DD0518F4EC16FD06D0F0FE01EA0DFB1D76
:10498000EE0FFF1FE00FF11F85919491FE01EE0FD6
:10499000FF1FE555FB4F91838083808191818F5F5D
:1049A0009F4F29F4822F6FEF7FEF0E947727219688
:1049B000C930D105D9F6DF91CF911F910F91FF90AA
:1049C000EF90DF90CF90BF90AF900895EF92FF925D
:1049D0000F931F93CF93DF938091DA03882309F419
:1049E000D8C08091DB039091DC03892B09F4D1C0FE
:1049F00009EC13E0C0E0D0E0FF24F39438E1E32EAB
:104A00008091D9038E9DC00111244296E091DB0371
:104A1000F091DC03E80FF91F859194912FEF8F3F00
:104A2000920711F0AC0103C0F80140815181CE0121
:104A3000880F991FDC01A355BB4F2D913C91119715
:104A4000FC01E556FB4F80819181281B390BB1F1A8
:104A50004115510529F0808191818F5F9F4F69F445
:104A6000FE01EE0FFF1FDF01A355BB4F8D919C91FF
:104A7000E556FB4F918380831CC01216130644F445
:104A8000421753076CF480819181840F951F0AC0EF
:104A9000241735072CF480819181841B950B02C06B
:104AA0008D919C9191838083FE01EE0FFF1FE5564F
:104AB000FB4F608171818F2D0E9477272196F3949F
:104AC0000E5F1F4F89E0F81609F09ACF8091BD0460
:104AD0009091BE04892B09F05CC07091D90360915C
:104AE000DD03272F30E0862F90E001974091DB0314
:104AF0005091DC0328173907D4F4CA01672F0E94AC
:104B000089248091D90328E1829F90011124E091AA
:104B1000DB03F091DC03E20FF31F25913491309316
:104B2000BE042093BD048F5F8093D90332C018E187
:104B3000619FF00111247897E40FF51F85919491FE
:104B40006150892B79F4CA010E9489241092DA03FA
:104B50001092D903E091AB04F091AC043097C9F006
:104B6000099517C0CA010E9489248091DD03819FA5
:104B7000C00111244897E091DB03F091DC03E80FBA
:104B8000F91F859194919093BE048093BD04109277
:104B9000D903DF91CF911F910F91FF90EF9008956E
:104BA000CF93DF931092DA031092D9039093DC0332
:104BB0008093DB036093DD03C0E0D0E09E012F5FB4
:104BC000822F0E949E27FE01EE0FFF1FDF01A556D8
:104BD000BB4F11969C938E938D919C91E355FB4F07
:104BE000918380832196C830D10541F7DF91CF9121
:104BF000089586EE94E20E9428238DEB94E00E94B3
:104C0000F5220895E1ECF0E08081806880830895CA
:104C1000E1ECF0E080818F77808308951F920F92FE
:104C20000FB60F9211242F938F939F93EF93FF93BF
:104C30002091C60090910705809108059817D8F437
:104C4000E0910B05F0910C05219380910E058150A8
:104C500021F480910805E81BF10980930E05F0937B
:104C60000C05E0930B059FB7F894809107058F5FC3
:104C7000809307059FBFFF91EF919F918F912F9197
:104C80000F900FBE0F901F9018951F920F920FB6A6
:104C90000F9211242F938F939F93EF93FF93809103
:104CA000FF048823F1F0E0910105F09102052191C4
:104CB00080910505815021F480910005E81BF109E0
:104CC000F0930205E0930105809305059FB7F894E2
:104CD0008091FF0481508093FF049FBF2093C60002
:104CE00005C08091C1008F7D8093C100FF91EF913D
:104CF0009F918F912F910F900FBE0F901F9018953D
:104D000087E095E00E945610089587E095E00E94A4
:104D10006E10089587E095E00E946E1008958FEF61
:104D200094E00E948A1020E0892B09F421E0822F70
:104D3000089587E095E00E948A100895682F8FEF0C
:104D400094E00E943B10E1ECF0E09081906290834F
:104D500008951F93CF93DF93EC0107C00E948F2625
:104D60008823E1F3812F0E949E26FE012196149153
:104D70001123A1F7DF91CF911F9108950F931F93F6
:104D8000CF93DF93EC0101E010E004C00E949E2667
:104D900008231F5FFE01E10FF11D8081882311F0C0
:104DA0001F3FA1F7802FDF91CF911F910F910895A1
:104DB000EF92FF921F93CF93DF937C0110E008C026
:104DC0000E948F268823E1F388810E949E261F5F20
:104DD000E701C10FD11D8881882311F01F3F81F7A2
:104DE000DF91CF911F91FF90EF9008951F931FB710
:104DF0009C0140E050E084E0220F331F441F551F08
:104E00008A95D1F760E074E284EF90E00E94652C0F
:104E1000215030403093C5002093C400F894109284
:104E2000C00088E98093C10086E08093C200809131
:104E3000C6008091C00087FDFACF80EC8093C0004F
:104E40001FBF789487E095E06FEB74E040E40E9428
:104E500031108FEF94E06FE075E04FEF0E9431105A
:104E60001F91089580E895E20E94F62684E28093DF
:104E7000C200089580E895E20E94F626089588E031
:104E80008093DE0380E29EE490938500809384000B
:104E9000EFE6F0E08081816080837894E1E8F0E0E3
:104EA0008081826080830895CF93DF93A8E3B6E08A
:104EB000CBE2D6E041E050E0ED91FD912081CA01C6
:104EC000099002C0880F991F0A94E2F78095822307
:104ED000808386E0A834B80779F780916F008E7FD1
:104EE00080936F0010928100DF91CF910895E82F99
:104EF0008150883010F577FF0AC0F0E0EE0FFF1FF9
:104F0000E45FF94F8FEF9FEF91838083089589E0ED
:104F1000653C78071CF064EC79E006C081E0643FF2
:104F2000780714F464EF71E0F0E0EE0FFF1FE45F28
:104F3000F94F660F771F718360830895E82F8150C2
:104F4000883018F0E0E0F0E011C0F0E0EE0FFF1F55
:104F5000E45FF94F808191812FEF8F3F920719F421
:104F6000EFEFFFEF03C0FC01F695E795CF01089541
:104F7000809137068A3048F08FEF9FEF9093540668
:104F8000809353062FEF3FEF1CC080913706882394
:104F9000A1F480912606882381F08091510690919A
:104FA000520662E070E00E94522C9B0170935406FE
:104FB000609353061092260604C020915306309148
:104FC0005406C901089580B78B7F80BFE1E8F0E007
:104FD00080818F778083EFE6F0E080818F7D808312
:104FE000209810922A0610922906109228061092F4
:104FF000270610925006109237068FEF9FEF90937E
:105000005406809353060895EF92FF920F931F93D7
:10501000CF93DF93EEE0F6E08FEF9FEF81939193D4
:1050200026E0E632F207D1F72BE230E03093390682
:105030002093380630933B0620933A0630933D0682
:1050400020933C0630933F0620933E063093410662
:105050002093400685E290E09093430680934206B9
:105060009093450680934406309347062093460666
:10507000909349068093480690934B0680934A0686
:1050800090934D0680934C0690934F0680934E0666
:1050900082E080932B0683E080932C0624E020930B
:1050A0002D0695E090932E0686E080932F0681E0F2
:1050B000809330069093310687E0809332062093E8
:1050C0003306909334068BE0809335068CE0809312
:1050D0003606C8E3D6E04BE256E0DE01BA0101E055
:1050E00010E0ED90FD90F7012081FB01C8010190D7
:1050F00002C0880F991F0A94E2F7BF0180958223AE
:10510000F7018083F6E0A834BF0759F761E070E04B
:10511000E991F9912291DA01CB010D9002C0880F3B
:10512000991F0A94E2F7AD01282B2083B6E0C8341A
:10513000DB0771F780916F008E7F80936F0088E0AE
:105140008093DE031092800080E29EE490938500BD
:10515000809384000E94E3270E943F27DF91CF9134
:105160001F910F91FF90EF900895E1E8F0E08081AA
:1051700080648083B59A10925006EFE6F0E080815B
:1051800080628083089580916F008F7D80936F008F
:10519000809150068823A1F010923706809127064F
:1051A000909128062091290630912A06821B930BA4
:1051B000909352068093510681E0809326060895CD
:1051C000809137068B3028F4809137068F5F80936B
:1051D000370608951F920F920FB60F9211242F9346
:1051E0003F934F935F936F937F938F939F93AF936F
:1051F000BF93EF93FF938091DE03883028F00E94E5
:10520000C3281092DE031FC0E091DE03F0E0EE0F32
:10521000FF1FE85CF94FA081B1812C91E091DE0382
:10522000F0E0E55DF94F81E090E0008002C0880F7A
:10523000991F0A94E2F7809582238C938091DE0374
:105240008F5F8093DE038091DE03883048F080E238
:105250009EE490938500809384000E94B52859C0F5
:10526000E091DE03F0E0EE0FFF1FE25FF94F808177
:1052700091818F5F9F4F09F446C0E091DE03F0E01B
:10528000EE0FFF1FE85CF94FA081B1812C91E091F6
:10529000DE03F0E0E55DF94F81E090E0008002C0C0
:1052A000880F991F0A94E2F7282B2C938091DE0334
:1052B0008630E0F0E091DE03F0E0E95AFB4F8081B8
:1052C000813061F4E091DE03F0E0EE0FFF1FE25F5A
:1052D000F94F808191818057974117C0E091DE039B
:1052E000F0E0E95AFB4F8081882399F4E091DE03D6
:1052F000F0E0EE0FFF1FE25FF94F80819181909502
:1053000081959F4F02C08CE09EEF90938500809323
:105310008400FF91EF91BF91AF919F918F917F9109
:105320006F915F914F913F912F910F900FBE0F9012
:105330001F9018951F920F920FB60F9211248F9302
:105340009F93F8948091810086FF0FC08091860022
:105350009091870090932A0680932906809181007E
:105360008F7B80938100B59A10C0809186009091C8
:105370008700909328068093270681E0809350064B
:1053800080916F008F7D80936F0078949F918F91B3
:105390000F900FBE0F901F901895EF92FF920F93F2
:1053A0001F93CF93DF937B018C011092E003109247
:1053B000DF031092E2031092E1031092E4031092D3
:1053C000E3031092E6031092E503389A409A20E036
:1053D00030E0E901CC0FDD1FC20FD31FBE01660F05
:1053E000771F660F771FAB014D5B524EFA01859117
:1053F0009591A591B4918E159F05A007B10729F548
:10540000FB01E95BF24E859194919093E0038093C8
:10541000DF03FB01E75BF24E859194919093E203E9
:105420008093E103FB01E55BF24E859194919093AB
:10543000E4038093E303FB01E35BF24E85919491D7
:105440009093E6038093E50306C02F5F3F4F2C3017
:10545000310509F0BECFDF91CF911F910F91FF90E1
:10546000EF900895F82F2091E5033091E603211580
:10547000310509F432C0EFB7F894409888B12B5F3A
:105480003F4FC90140E001974FEF8F3F9407D9F795
:105490002550304051E060E070E0A0E0852F8F2380
:1054A00011F0409A01C0409888B1C9014A2F019774
:1054B0004FEF8F3F9407D9F7550F6F5F7F4F6830DD
:1054C000710561F7409A88B1EFBF7894C90120E077
:1054D00001972FEF8F3F9207D9F708951F93CF932E
:1054E000DF93EC0110E003C00E94322A1F5FFE012F
:1054F000E10FF11D8081882311F01F3FA9F7DF9193
:10550000CF911F910895CF93DF93EC0102C00E94C9
:10551000322AFE01219684918823C9F7DF91CF9129
:105520000895EF92FF920F931F93CF93DF937B0128
:105530008C011092E8031092E7031092EA03109294
:10554000E9031092EC031092EB031092EE03109219
:10555000ED03399A419A20E030E0E901CC0FDD1FDC
:10556000C20FD31FBE01660F771F660F771FAB01F7
:105570004D5B524EFA0185919591A591B4918E158E
:105580009F05A007B10729F5FB01E95BF24E859164
:1055900094919093E8038093E703FB01E75BF24E5D
:1055A000859194919093EA038093E903FB01E55B75
:1055B000F24E859194919093EC038093EB03FB0161
:1055C000E35BF24E859194919093EE038093ED030B
:1055D00006C02F5F3F4F2C30310509F0BECFDF9161
:1055E000CF911F910F91FF90EF900895F82F209188
:1055F000ED033091EE032115310509F432C0EFB708
:10560000F894419888B12B5F3F4FC90140E0019762
:105610004FEF8F3F9407D9F72550304051E060E0BD
:1056200070E0A0E0852F8F2311F0419A01C04198CE
:1056300088B1C9014A2F01974FEF8F3F9407D9F7DF
:10564000550F6F5F7F4F6830710561F7419A88B1E0
:10565000EFBF7894C90120E001972FEF8F3F9207A9
:10566000D9F708951F93CF93DF93EC0110E003C0A7
:105670000E94F62A1F5FFE01E10FF11D8081882341
:1056800011F01F3FA9F7DF91CF911F910895CF939C
:10569000DF93EC0102C00E94F62AFE01219684915C
:1056A0008823C9F7DF91CF9108952F923F924F92AF
:1056B0005F926F927F928F929F92AF92BF92CF92A2
:1056C000DF92EF92FF920F931F93DF93CF93CDB7AB
:1056D000DEB73B014C0119012A016D897E898F8952
:1056E000988D6A197B098C099D09621A730A840ACC
:1056F000950AA40193010E94272CE218F3080409DB
:105700001509A80197010E94872C2A0D3B1D4C1DED
:105710005D1DB901CA01CF91DF911F910F91FF90DB
:10572000EF90DF90CF90BF90AF909F908F907F9041
:105730006F905F904F903F902F9008950F931F931D
:10574000021B130B861B970B461B570BBC01069FB6
:10575000C001079F900D169F900D1124BA010E9461
:10576000522C620F731FCB011F910F910895CF939D
:10577000DF93EC01009719F420E030E006C00E94AE
:10578000072DBE010E94522C9C01C901DF91CF91CF
:105790000895CF93DF93EC01861797073CF4CB0174
:1057A0008C1B9D0B0E94B72BC80FD91FCE01DF9118
:1057B000CF910895009711F00E940C2D0895EF925B
:1057C000FF920F931F937B018C0161157105810579
:1057D000910529F420E030E040E050E00BC00E9449
:1057E0006A2DA80197010E94872CAC01CB01DA0138
:1057F0009C01AD01B901CA011F910F91FF90EF907B
:105800000895EF92FF920F931F937B018C01621713
:1058100073078407950764F4261B370B480B590B55
:10582000CA01B9010E94DF2BE60EF71E081F191FDF
:10583000B701C8011F910F91FF90EF900895611576
:1058400071058105910511F00E946F2D0895629FE9
:10585000D001739FF001829FE00DF11D649FE00D68
:10586000F11D929FF00D839FF00D749FF00D659FC9
:10587000F00D9927729FB00DE11DF91F639FB00DC8
:10588000E11DF91FBD01CF0111240895991B79E095
:1058900004C0991F961708F0961B881F7A95C9F7C0
:1058A0008095089597FB092E07260AD077FD04D02E
:1058B00049D006D000201AF4709561957F4F089565
:1058C000F6F7909581959F4F0895A1E21A2EAA1B95
:1058D000BB1BFD010DC0AA1FBB1FEE1FFF1FA217A0
:1058E000B307E407F50720F0A21BB30BE40BF50B9D
:1058F000661F771F881F991F1A9469F76095709526
:10590000809590959B01AC01BD01CF01089597FB57
:10591000092E05260ED057FD04D0D7DF0AD0001C73
:1059200038F450954095309521953F4F4F4F5F4F3C
:105930000895F6F790958095709561957F4F8F4FFC
:105940009F4F0895AA1BBB1B51E107C0AA1FBB1F95
:10595000A617B70710F0A61BB70B881F991F5A95FB
:10596000A9F780959095BC01CD010895A0E0B0E025
:10597000ECEBFCE20C94D533EC01A880B980CA8032
:10598000DB80A114B104C104D10441F484E2A82E47
:1059900089EDB82E8BE5C82E87E0D82EC601B5015B
:1059A0002DE133EF41E050E00E94872C27EA31E4FB
:1059B00040E050E00E94272C7B018C01C601B5011C
:1059C0002DE133EF41E050E00E94872CCA01B9017C
:1059D0002CEE34EF4FEF5FEF0E94272C6E0D7F1DF2
:1059E000801F911F97FF04C0615070408040904815
:1059F000688379838A839B839B013F77C901CDB7F5
:105A0000DEB7EAE00C94F1330E94B62C08958DE3E2
:105A100093E00E94B62C0895A0E0B0E080933D038F
:105A200090933E03A0933F03B09340030895A0E0FA
:105A3000B0E0EDE1FDE20C94D533EC01A880B98033
:105A4000CA80DB80A114B104C104D10441F484E212
:105A5000A82E89EDB82E8BE5C82E87E0D82EC6017A
:105A6000B5012DE133EF41E050E00E94872C27EA99
:105A700031E440E050E00E94272C7B018C01C601FC
:105A8000B5012DE133EF41E050E00E94872CCA01BF
:105A9000B9012CEE34EF4FEF5FEF0E94272C6E0D13
:105AA0007F1D801F911F97FF04C061507040804090
:105AB0009048688379838A839B839B01AC015F77DD
:105AC000B901CA01CDB7DEB7EAE00C94F1330E9408
:105AD000172D089581E493E00E94172D0895609397
